:100000000C94B7030C94FE030C94FE030C94640B45
:100010000C94FE030C94FE030C94FE030C94FE035C
:100020000C94FE030C94FE030C94751F0C94472053
:100030000C947C190C94FE030C94FE030C94FE03A8
:100040000C94FE030C94FE030C94FE030C94FE032C
:100050000C94FE030C94E4190C94FE030C94FE0320
:100060000C94FE030C94FE030C94FE030C94FE030C
:100070000C94FE030C94FE030C94FE030C94FE03FC
:100080000C94FE030C94FE030C94FE030C94FE03EC
:100090000C94FE030C94FE030C94FE030C94FE03DC
:1000A0000C94FE030C94FE030C94FE03A604A80417
:1000B000B304AA04AC04AE04B004B204B504B7049B
:1000C000B904C404BB04BD04BF04C104C304C60412
:1000D000730F730FA50FA50FF00F301130113011F2
:1000E00010103011B110B110201130113011291140
:1000F000BE10BE10BE10BE10BE10BE10BE10BE1090
:10010000BE10BE10BE10BE10BE10BE10BE10BE107F
:10011000CD10DB10E210E910F310BB11BB11CD11B3
:10012000CD11C411CD11CD11CD11BB11BB11C91110
:10013000CD11CD11C9114F1A451A5D1AB61ABD1A43
:10014000BD1AB61ABD1ABD1A7E1ABD1A881A921A9D
:10015000BD1ABD1ABD1ABD1AB61ABD1ABD1AB61AF5
:10016000BD1A6B1ABD1ABD1AA21AA21AA21AA21A95
:10017000A21AA21AA21AA21AA21AB81ABD1A4F1AC1
:10018000421ABD1ABD1ABD1ABD1ABD1ABD1ABD1A32
:10019000BD1ABD1ABD1AB81ABD1ABD1AB61ABD1AB3
:1001A000A01AA01AA01AA01AA01AA01AA01AA01A7F
:1001B000A01AB81AB420DB20CD21DB20CD212721C5
:1001C0004A21CD21A021AF214C0029001E001F0093
:1001D0002000210022002D002E005400000000000D
:1001E00000000000000000000000000000003100DE
:1001F0002B0014001A0008001500170052005F00C1
:10020000600000000000000000000000000000008E
:10021000000000002F003500040016000700090050
:100220000A004F005C005D000000000000000000BC
:10023000000000000000000000003000E1001D0090
:100240001B00060019000500500059005A0000006C
:10025000000000000000000000000000000000009E
:100260004600E000E300E20001512C002C005100A8
:1002700062006300000000000000000000000000B9
:1002800000000000000055002A0023002400250083
:10029000260027002A004C0000000000000000009B
:1002A0000000000000000000000000006100560097
:1002B0001C0018000C001200130034004A0000005B
:1002C000000000000000000000000000000000002E
:1002D00000005E0057000B000D000E000F00330001
:1002E00028004B000000000000000000000000009B
:1002F00000000000000000005B005800110010002A
:10030000360037003800E5004E0000000000000015
:1003100000000000000000000000000000003600A7
:1003200033022C002C000151E600E700E4004D00F0
:1003300000000000000000000000000000000000BD
:1003400000000000010001003A003B003C003D00BD
:100350003E0001000100010000000000000000005C
:10036000000000000000000000000100010001008A
:100370000100010001000100010001000100000076
:10038000000000000000000000000000000000006D
:100390000100010001000100010001000100010055
:1003A000010001000000000000000000000000004B
:1003B0000000000000000100010001000100010038
:1003C0000100010001000100010000000000000028
:1003D000000000000000000000000000010001001B
:1003E0000100010001000100010001000100010005
:1003F00000000000000000000000000000000000FD
:100400000000010001003F004000410042004300A5
:1004100001000100000000000000000000000000DA
:1004200000000000000000000100010001000100C8
:1004300001000100010001000100000000000000B7
:1004400000000000000000000000000000000100AB
:100450000100010001000100010001000100010094
:10046000000000000000000000000000000000008C
:100470000000000001000100010001000100010076
:100480000100010001000000000000000000000069
:100490000000000000000000000001000100010059
:1004A0000100010001000100010001000000000046
:1004B000000000000000000000000000000000003C
:1004C000010001003A003B003C003D003E000100FD
:1004D000010001000000000000000000000000001A
:1004E0000000000000000100010001000100010007
:1004F00001000100010001000100000000000000F7
:1005000000000000000000000000000001000100E9
:1005100001000100010001000100010001000100D3
:1005200000000000000000000000000000000000CB
:1005300000000100010001000100010001000100B4
:1005400001000100010000000000000000000000A8
:100550000000000000000000010001000100010097
:100560000100010001000100010001000000000085
:10057000000000000000000000000000000001007A
:1005800001003F0040004100420043000100010023
:10059000000000000000000000000000000000005B
:1005A0000000000001000100010001000100010045
:1005B0000100010001000000000000000000000038
:1005C0000000000000000000000001000100010028
:1005D0000100010001000100010001000000000015
:1005E000000000000000000000000000000000000B
:1005F00001000100010001000100010001000100F3
:1006000001000000000000000000000000000000E9
:1006100000000000000001000100010001000100D5
:1006200001000100010001000000000000000000C6
:100630000000000000000000000000000403300083
:10064000000018036B00650079005F0074006F0004
:10065000790073005F003900350000000E0354007C
:100660005F0074006F007900730000000403090448
:1006700009023B00020100A0FA0904000001030185
:100680000100092111010001224000070581030832
:10069000000A090401000103000000092111010002
:1006A000012271000705820320000A1201100100D7
:1006B000000008EDFE230501000102030105010908
:1006C00080A10185031601002603001A81002A83F8
:1006D00000751095018100C0050C0901A101850478
:1006E000160100269C021A01002A9C027510950131
:1006F0008100C005010906A1018505050719E0294A
:10070000E7150025019508750181020508190129E1
:10071000059505750191029501750391010507196C
:100720000029EF1500250195F075018102C0050132
:100730000906A101050719E029E71500250195081B
:1007400075018102950175088101050819012905C6
:100750009505750191029501750391010507190031
:1007600029FF150026FF00950675088100C0112499
:100770001FBECFEFDAE0DEBFCDBF04B603FE27C059
:100780008091D9029091DA02A091DB02B091DC0253
:100790008730904BA740B04BD1F41092D902109201
:1007A000DA021092DB021092DC0214BE84B7877F5B
:1007B00084BF0FB6F894A8958091600088618093FB
:1007C0006000109260000FBEE0E0F8E3099511E0D0
:1007D000A0E0B1E0E6E9F4E402C005900D92A43394
:1007E000B107D9F722E0A4E3B1E001C01D92A93D11
:1007F000B207E1F70E94991C0C9449220C94000066
:100800000C94C30781E0089581E008950C940404DA
:100810001F93CF93DF9300D000D01F92CDB7DEB7E8
:1008200049835A832091C00189819A81211112C084
:10083000662349F00E94E016182F682F89819A815B
:100840000E94851603C00E94B416182F69817A8110
:10085000812F04C00E94E01669817A810F900F9069
:100860000F900F900F90DF91CF911F910C94520534
:10087000FC01408151816281738184810C94080460
:100880000E941018811102C00E9496180C94000456
:100890000C94C50708950C944A040C944B040895D5
:1008A0000E94AB110E944F042FEF84E39CE0215083
:1008B00080409040E1F700C0000087E797E7909301
:1008C0000108809300080C940A1A0F931F93CF938A
:1008D000DF938C010E943804EC01B8010E940604E9
:1008E000882309F4D5C0B801CE010E946B0A882381
:1008F00009F4CEC0C531FCE5DF0708F07BC0C2308B
:100900008CE5D80708F452C0F8018281882309F4E5
:1009100054C00E941018811102C00E9496180E94B3
:10092000231890E09093CB028093CA02FE01E3501B
:10093000FC45E231F10530F4EA5AFF4F8091CA02DA
:100940000C9401228091CA02816027C0826025C078
:10095000846023C0806121C080621FC080641DC08C
:1009600080681BC08460886018C08E7F16C08D7F31
:1009700014C08B7F12C08F7E10C08F7D0EC08F7B06
:100980000CC08F770AC08B7F877F07C087FB222729
:1009900020F991E0922790FB87F98093CA02809119
:1009A000CA020E9427180E94AB1172C0C115ECE563
:1009B000DE0751F0C130DC4579F0C801DF91CF91FD
:1009C0001F910F910C940204F8018281882309F48D
:1009D0005FC00E9450045CC0F8018281882309F442
:1009E00057C080919E02982F909590FB80F980933C
:1009F0009E024EC0CC3D8CE5D80739F4F8018281C7
:100A0000882309F445C080E00DC0CD3DECE5DE074C
:100A100060F0CD3D8CE5D80791F5F80182818823FF
:100A2000B9F182E00E94381D33C0C631DC4529F699
:100A30000E946017282FF80182814091090150918E
:100A40000A01882379F02A7A91E009F490E09093E2
:100A50003401911102C069E201C065E3CA010E943C
:100A6000FD180AC080913401811102C069E201C001
:100A700065E3CA010E9408190E94AC1709C0CE3D67
:100A8000DC4509F09ACFF801828181110E94961805
:100A900080E0DF91CF911F910F91089580E090E069
:100AA0000895089593E1799FF00111249EEB899FA9
:100AB000E00DF11D1124E60FF11DEE0FFF1FE853AD
:100AC000FE4F859194910895880F991FFC01E45C75
:100AD000F94F859194910895CF93DF930E94520529
:100AE0000E942307EC01811520E59207F0F581159E
:100AF00030E4930708F024C1883E910500F5803E5C
:100B0000910508F09CC1883A910570F4853A9105E9
:100B100008F09FC08130910509F491C108F442C1E9
:100B2000049708F08CC13EC18F3B910508F49CC02E
:100B3000803C910508F436C1805C9109F4C08115B0
:100B400040E2940758F4C11581E0D80708F077C156
:100B5000C03FD10508F426C1D06571C1811520E3DD
:100B6000920708F0E4C09F70DEC0811535E5930759
:100B700008F044C0811544E5940708F0F8C0C11599
:100B800082E5D80708F5C11521E5D20708F0DBC0DA
:100B90008C2F837021E030E002C0220F331F8A9532
:100BA000E2F73C68CE0174E0969587957A95E1F777
:100BB0008370382BCF70C695C69580E2C89FE00140
:100BC0001124C22BD32B3BC12C2F26952695CE0169
:100BD00083709927C115D34508F0BAC040E2249F1D
:100BE00090011124C1E0D0E002C0CC0FDD1F8A9536
:100BF000E2F72C2B3D2BE901DC6821C1811549E589
:100C00009407A0F4C11588E5D80708F0B5C0C11550
:100C100026E5D20708F0C6C08C2F0E94A0078F716E
:100C2000C82FD0E0DC2FCC27D06209C181153AE56E
:100C3000930708F4A6C090568115904208F0B2C000
:100C40008D2F8F710E94A007DD27D0628F71D82B66
:100C5000F6C0853A910509F4A8C0863A910509F0D5
:100C6000A7C0C2E8D0E4EBC0883A910509F4A3C05C
:100C7000893A910509F4A2C08A3A910509F4A1C004
:100C80008B3A910509F4A0C08C3A910509F49FC0F4
:100C90008B3B910509F49EC08C3B910509F49DC0E6
:100CA0008D3A910509F49CC0803B910509F49BC0E5
:100CB0008E3A910509F49AC08F3A910509F499C0CA
:100CC000813B910509F498C0823B910509F497C0D6
:100CD000833B910509F496C0843B910509F495C0C6
:100CE000853B910509F494C0863B910509F493C0B6
:100CF000873B910509F492C0883B910509F491C0A6
:100D0000893B910509F490C08D3B910509F48FC092
:100D10008E3B910509F48EC08A3B910509F48DC084
:100D2000C0E0D4E48CC00E946405EC0188C099271F
:100D3000D3FF03C0EC01D86C82C0EC01D06C7FC043
:100D4000DF70D06A7CC0DC2FCC27C16FD06A77C03F
:100D500040E2249F90011124C1E0D0E002C0CC0FFA
:100D6000DD1F8A95E2F7C22BD32BDA6868C0D82F33
:100D7000CC27C46FD06A63C0DC2FCC27C06FD06A89
:100D80005EC08F700E94A00794E0D695C7959A9593
:100D9000E1F7CF70D0E0DC2FCC27D06A8F70806E67
:100DA000C82B4DC0C0E0D0E04AC0C1E8D0E447C085
:100DB000C3E8D0E444C0C2EED4E441C0C9EED4E4F8
:100DC0003EC0CAEED4E43BC0C5EBD4E438C0C6EBA9
:100DD000D4E435C0C3EBD4E432C0C4EBD4E42FC0B8
:100DE000C7EBD4E42CC0CCECD4E429C0CDECD4E4E3
:100DF00026C0C3E8D5E423C0CAE8D5E420C0C2E9D0
:100E0000D5E41DC0C4E9D5E41AC0C1E2D6E417C0D8
:100E1000C3E2D6E414C0C4E2D6E411C0C5E2D6E40D
:100E20000EC0C6E2D6E40BC0C7E2D6E408C0CFE6E7
:100E3000D4E405C0C0E7D4E402C0CAE2D6E4CE01DF
:100E4000DF91CF9108958238910549F1B0F4813353
:100E5000910509F458C048F48932910509F44EC04F
:100E60008A32910509F454C008958533910509F437
:100E700040C08933910599F00895833E910529F189
:100E800038F4803E910591F0823E9105A1F00895DD
:100E9000863E9105F9F0873E910531F10895209144
:100EA000CA0220FD3AC021FD38C008958091CA02CF
:100EB00080FD35C032C08091CA0282FF32C080916D
:100EC000CA0284FD30C083EE39C08091CA0282FD1F
:100ED00028C0F5CF8091CA0283FF27C08091CA0243
:100EE00084FD21C087EE2AC08091CA0283FD1DC007
:100EF000F5CF8091CA0285FD1AC01BC08091CA023D
:100F000085FD17C014C08091CA0286FD14C015C0AB
:100F10008091CA0286FD11C00EC080EE0FC089E329
:100F20000DC082EE0BC080E009C086EE07C089E2EA
:100F300005C085E303C08AE201C081E390E0089523
:100F40009091CA0292FF0DC0282F2871283019F401
:100F5000877F846006C0282F2471243011F48B7F92
:100F6000886093FF0DC0282F2871283119F4877EDF
:100F7000846106C0282F2471243111F48B7E88618E
:100F800094FD877E0895089508950C94C4070895EC
:100F900024E0829FC0011124FC01E65BFE4F6081CA
:100FA0007181828193810895089580919E0283606A
:100FB000886080939E0280910001809100018111E0
:100FC00002C095E001C090E09093C50285E0891BC6
:100FD0008093C402A9E2B1E041E050E025E02A0F8D
:100FE0008D91E82FE295EF70F0E031A18F70BA019A
:100FF00002C0660F771F8A95E2F7CB01962F909576
:10100000932391A392A1892B82A32A13E9CFA6E16E
:10101000B1E041E050E023E12A0F8D91E82FE29505
:10102000EF70F0E031A18F70BA0102C0660F771F38
:101030008A95E2F7CB01962F9095932391A392A1E5
:10104000892B82A32A13E9CFEAE4F1E011921192ED
:101050001192119271E0E237F707C1F785E00E9423
:101060004D090C9440042F923F924F925F926F92E1
:101070007F928F929F92AF92BF92CF92DF92EF9228
:10108000FF920F931F93CF93DF93CDB7DEB72997CE
:101090000FB6F894DEBF0FBECDBF29E231E03A8330
:1010A0002983A6E3B1E01F8241E050E060E070E0F8
:1010B000BE83AD838D909D90AD90BC9013971D9293
:1010C0001D921D921C921397E981FA818191FA83F6
:1010D000E983E82FE295EF702E2F30E039872887DB
:1010E000F90191A18F7022242394312C01C0220C8C
:1010F0008A95EAF7892F822981A392A1822D809572
:10110000982392A3F0EAFA95F1F726E131E03C83C7
:101110002B8300E010E0EB81FC81F190FC83EB83FA
:101120002F2D22952F7030E0F90120A130E0EF2D16
:10113000EF7002C035952795EA95E2F720FD0BC0C8
:101140002A013B01002E04C0440C551C661C771C70
:101150000A94D2F703C0412C512C3201CD90DD907E
:10116000ED90FC9013974C285D286E287F284D92B7
:101170005D926D927C9213970F5F1F4F03311105A3
:1011800051F6E885F98591A1892381A382A1282AB6
:1011900022A2149681E0ED81FE81008111812281DD
:1011A000338180169106A206B30609F480E03F81E0
:1011B000382B3F8381E0AA34B80709F079CF6091DA
:1011C000C50294E0699FB0011124665B7E4F232F16
:1011D00045E086E391E00E944E098F8129960FB683
:1011E000F894DEBF0FBECDBFDF91CF911F910F915D
:1011F000FF90EF90DF90CF90BF90AF909F908F9037
:101200007F906F905F904F903F902F900895CF9375
:101210000E943308C82F0E948A09882379F12091FF
:10122000C40234E0239FC0011124865B9E4F0E94BC
:10123000C00981111EC0909135019F5F90933501C7
:101240009630C8F04091C40284E0489FA001112468
:1012500020E030E0F901E40FF51FE65BFE4F10825D
:101260001182128213822C5F3F4F2431310591F796
:1012700002C0109235010E9448040CC02091C502A2
:1012800034E0239FC0011124865B9E4F0E94E50934
:101290000E94C7078C2FCF9108950895FF920F9356
:1012A0001F93CF93DF93F82ED92F8B01C42F2223C6
:1012B00049F081E0809374010E94AE19909373010C
:1012C00080937201809174018823F1F08091720102
:1012D000909173010E94BA190697B0F0EF2DFD2F7F
:1012E000D80180E090E04C2F50E08417950754F42B
:1012F00001911191219131910D931D932D933D9366
:101300000196F3CF10927401DF91CF911F910F914D
:10131000FF90089580917501811112C08091D800CD
:1013200080618093D8008AE18A95F1F700C08091AE
:10133000D90080FD02C082E001C081E08093750188
:1013400081E090917501913009F080E008950C944E
:101350008A090E94A709809300010E948A098111CD
:101360000C94B4090C94BA0961E070E081E091E05A
:101370000C94090B61E070E081E091E00C94120B99
:10138000CF93DF93D82FC92F0E94B50B892BC9F4B7
:10139000ED2FFC2F80E090E0DC01AA0FBB1FAA0F0D
:1013A000BB1FA958BE4F4D915D916D917C914193AA
:1013B00051936193719301968530910569F781E0AE
:1013C00001C080E0DF91CF91089520E030E0FC0182
:1013D0004191519161917191CF01F901EE0FFF1F80
:1013E000EE0FFF1FE958FE4F4083518362837383E2
:1013F0002F5F3F4F2530310551F708950F931F930D
:10140000CF93DF93C62FD42F022FFC018281882334
:10141000C9F060938D010E94AE1990938C01809366
:101420008B0180E28C0F883008F050C0C77081E0DB
:1014300001C0880FCA95EAF7DF91CF911F910F91F4
:101440000C942F0F10918D01161330C080918B01D9
:1014500090918C010E94BA198436910538F5C0E24A
:10146000CD0F1D17B9F080E2810F883040F417705E
:1014700081E001C0880F1A95EAF70E94360FC83044
:1014800048F481E09D2F977001C0880F9A95EAF784
:101490000E942F0F802F0E941C0FC830B8F4D77005
:1014A00081E001C0880FDA95EAF70AC080E28C0F6C
:1014B000883060F4C77081E001C0880FCA95EAF7F0
:1014C000DF91CF911F910F910C94360FDF91CF9147
:1014D0001F910F9108959C01CB01203F4CE53407EB
:1014E000F9F078F4283DFCE53F07B9F0293D4CE5DB
:1014F000340711F1273D3C4531F526E241EE61EE1E
:101500001EC0223FFCE53F0799F070F0233F3C45A9
:10151000D1F427E245EE66EE12C027E245EE0EC09A
:1015200026E241EE60EE0BC027E245EE64EE07C016
:1015300026E241EE62EE03C028E241E065EE0E9441
:10154000FE0980E00895FC018281882319F0109241
:101550008D01089581E008958EE14A9B02C081507B
:10156000E1F74A9BFECF08955A9880E28A95F1F7F9
:101570005A9A0895FC014AE04A95F1F798E030E064
:1015800080E021E040E14A95F1F7880F4A9B02C0D4
:101590008160322700C0000040E14A95F1F7915088
:1015A00089F790E19A95F1F729B100C0000040E178
:1015B0004A95F1F722FB992790F993272081920F02
:1015C00090830895FF920F931F93CF93DF9300D0E2
:1015D000CDB7DEB71982F82E8C01802F8F198617B0
:1015E00060F46A830E94AC0ACE0101960E94BA0A96
:1015F000F80181938F016A81F0CF81E09981911187
:1016000080E00F900F90DF91CF911F910F91FF908D
:1016100008959093900180938F0160938E01529A68
:101620005A9A08959093900180938F0160938E0150
:1016300052985A9AEA9AE9E6F0E080818F7C80839A
:101640000895615091E001C0990F6A95EAF720E092
:1016500031E0992361F0492F482319F05A9A232742
:1016600001C05A9840E24A95F1F79695F2CF2223AD
:1016700011F05A9A01C05A9880E28A95F1F75A9867
:101680000895EF92FF920F931F93CF93DF931F92D2
:10169000CDB7DEB7162F082F7C018E2D801B81174A
:1016A00058F4F70181917F0189830E94B40A68E0B0
:1016B00089810E94210BF1CF0F90DF91CF911F9173
:1016C0000F91FF90EF9008951F920F920FB60F9217
:1016D00011242F933F934F935F936F937F938F9337
:1016E0009F93AF93BF93CF93DF93EF93FF935A985A
:1016F000529AC0918F01D09190016D81662321F0A3
:101700008E819F810E94410B0E94B40A80E18A95DC
:10171000F1F75A9852985A9A80E18A95F1F76A81BE
:10172000662351F08B819C810E94E20AE881F98155
:10173000811104C082E003C0E881F98188E08083E0
:101740000E94AC0AFF91EF91DF91CF91BF91AF91D1
:101750009F918F917F916F915F914F913F912F91C9
:101760000F900FBE0F901F901895CF93DF93C091ED
:101770008F01D0919001F894529A5A9885E08A95F9
:10178000F1F7000052985A9A80E28A95F1F74A9B45
:101790000AC0529A5A9AE881F98181E0808378944C
:1017A00081E090E02CC06D81662381F08E819F8165
:1017B0000E94E20A81110AC0529A5A9AE881F9817C
:1017C00082E08083789482E090E019C00E94AC0AA5
:1017D00080E28A95F1F75A98529A80E18A95F1F75A
:1017E0006A81662321F08B819C810E94410B0E94BB
:1017F000B40AE881F9811082789480E090E0DF916A
:10180000CF91089590939601809395010895E0916A
:101810009501F0919601309721F00190F081E02D33
:10182000099480E00895E0919501F0919601309738
:1018300099F020911501222359F02091CA0227FF27
:1018400007C0DC012C9111962C93119725E02C9365
:101850000280F381E02D0994089520919301309145
:1018600094018217930771F09093940180939301F0
:10187000E0919501F0919601309721F00680F78173
:10188000E02D0994089520919101309192018217E1
:10189000930771F09093920180939101E0919501EB
:1018A000F0919601309721F00084F185E02D0994A4
:1018B000089585B7806885BF85B7806885BF08951E
:1018C00008950C94600C08950C94630C0E94590CBC
:1018D0000E94A9090C94610C0E94A5190E94D507C9
:1018E0000E941B1AEAECF2E08081806880830C94ED
:1018F000640C4F925F926F927F929F92AF92BF92D1
:10190000CF92DF92EF92FF920F931F93CF93DF93CB
:10191000CDB7DEB72E970FB6F894DEBF0FBECDBFA2
:101920000E9407090E948A09811111C08FEF8983E3
:101930008A831B820E94AE198160782F9D838C83DD
:1019400049815A816B818D810E945A0D7CC048E982
:10195000A42E41E0B42E00E010E0902E802F0E94D3
:10196000C807F501C190D190E190F1905F01C626C2
:10197000D726E826F926C114D104E104F10431F494
:101980000F5F1F4F0A30110541F7D0CF20919E0203
:1019900021FF0AC06B877C878D879E870E94D407B2
:1019A0009E858D857C856B8540E050E02601370162
:1019B000042E04C076946794579447940A94D2F7FF
:1019C00040FE3AC04E839F82C12CD12C7601C39435
:1019D00004C0CC0CDD1CEE1CFF1C4A95D2F726017E
:1019E0003701462257226822792281E0452846287D
:1019F000472809F480E088870E94AE198160782F1B
:101A00009A8789874E815F8168858A850E945A0DF1
:101A1000000F111F000F111FF801E856FE4F8081C3
:101A20009181A281B381C826D926EA26FB26C082ED
:101A3000D182E282F38207C04F5F5F4F433151058D
:101A400009F0B4CF9DCF109197010E94070C181791
:101A5000D9F00E94070C809397012E960FB6F89448
:101A6000DEBF0FBECDBFDF91CF911F910F91FF90D1
:101A7000EF90DF90CF90BF90AF909F907F906F904E
:101A80005F904F900C944D042E960FB6F894DEBFE5
:101A90000FBECDBFDF91CF911F910F91FF90EF90BF
:101AA000DF90CF90BF90AF909F907F906F905F90AE
:101AB0004F900895CF93DF93CDB7DEB72B970FB636
:101AC000F894DEBF0FBECDBF4F83588769877A87F2
:101AD0008B87DE01119686E0FD0111928A95E9F768
:101AE00085E0FE01379601900D928A95E1F74981D4
:101AF0005A816B817C818D819E810E9455142B9629
:101B00000FB6F894DEBF0FBECDBFDF91CF91089521
:101B1000FC01808191810E9421170895CF93DF936A
:101B20001F92CDB7DEB7882309F423C1682F82380E
:101B3000C1F40E94070C81FD1CC169E38091090179
:101B400090910A010E94FD180E94AC172FEF81EEC0
:101B500094E0215080409040E1F700C0000069E32C
:101B600019C0833811F50E94070C80FD02C163E59E
:101B70008091090190910A010E94FD180E94AC1702
:101B80002FEF81EE94E0215080409040E1F700C0BB
:101B9000000063E58091090190910A010E940819F3
:101BA0000F90DF91CF910C94AC178438C1F40E9450
:101BB000070C82FDDEC067E48091090190910A0163
:101BC0000E94FD180E94AC172FEF81EE94E0215087
:101BD00080409040E1F700C0000067E4DBCF8CEF6D
:101BE000860F813A70F4862F69830E94C51A698135
:101BF0008111BFC08091090190910A010E94FD18D6
:101C0000CFCF80E2860F883048F4677081E001C052
:101C1000880F6A95EAF70E946317C2CF8BE5860F9B
:101C2000833088F4653A29F0663A31F083E890E031
:101C300005C081E890E002C082E890E00F90DF915B
:101C4000CF910C942D0C88E5860F873108F091C058
:101C5000683A09F445C0693A09F445C06A3A09F49A
:101C600045C06B3A09F445C06C3A09F445C06B3B7A
:101C700009F445C06C3B09F445C06D3A09F445C010
:101C8000603B09F445C06E3A09F445C06F3A09F467
:101C900045C0613B09F445C0623B09F445C0633B64
:101CA00009F445C0643B09F445C0653B09F445C0EF
:101CB000663B09F445C0673B09F445C0683B09F43D
:101CC00045C0693B09F445C06D3B09F445C06E3B16
:101CD00009F445C06A3B09F445C080E090E044C087
:101CE00082EE90E041C089EE90E03EC08AEE90E046
:101CF0003BC085EB90E038C086EB90E035C083EBCD
:101D000090E032C084EB90E02FC087EB90E02CC0D5
:101D10008CEC90E029C08DEC90E026C083E891E047
:101D200023C08AE891E020C082E991E01DC084E9E7
:101D300091E01AC081E292E017C083E292E014C001
:101D400084E292E011C085E292E00EC086E292E069
:101D50000BC087E292E008C08FE690E005C080E704
:101D600090E002C08AE292E00F90DF91CF910C9454
:101D7000430C0F90DF91CF910895882309F45BC045
:101D8000682F823879F40E94070C81FF54C069E300
:101D90008091090190910A010E94FD180E94AC17E0
:101DA00069E310C08338B1F40E94070C80FF43C080
:101DB00063E58091090190910A010E94FD180E943B
:101DC000AC1763E58091090190910A010E940819FE
:101DD0000C94AC17843879F40E94070C82FF2BC056
:101DE00067E48091090190910A010E94FD180E9408
:101DF000AC1767E4E7CF8CEF860F813A18F380E2E7
:101E0000860F883048F4677081E001C0880F6A95BA
:101E1000EAF70E946917DCCF8BE5860F833020F448
:101E200080E090E00C942D0C685A673120F480E03B
:101E300090E00C94430C0895CF93C82F0E948E0D10
:101E4000C93349F42FEF87EE93E021508040904052
:101E5000E1F700C000008C2FCF910C94BD0E8823B9
:101E600021F00E9463170C94AC170895882321F089
:101E70000E9469170C94AC1708954F925F926F926D
:101E80007F92BF92CF92DF92EF92FF920F931F93B8
:101E9000CF93DF937C01062FC72FFC01158112958C
:101EA0001F70D281D1110E9480170E945917882378
:101EB00079F0DD2369F080E2800F883048F082E01D
:101EC0000E94F7170E94591791E0B82EB92601C059
:101ED000B12CCC2EC2948FE0C822D12CF601E85947
:101EE000FF4F0C9401228C2F807FCF70882311F03C
:101EF000C295C07FDD2399F0CC2309F48CC180E228
:101F0000800F883010F0011104C08C2F0E946317DD
:101F100003C08C2F0E9473170E94AC177CC1802FC6
:101F20000E94BD0ECC2309F49BC180E2800F883053
:101F300010F0011104C08C2F0E94691703C08C2F70
:101F40000E9479170E94AC178BC18C2F807FCF70B5
:101F5000803211F0C295C07F002319F00130C9F022
:101F600022C0DD2371F0112341F0113031F40E94C1
:101F700093178C2B0E94991773C10E9493178C2B77
:101F80001DC0112319F0113009F46AC10E94A21773
:101F900025C0DD2321F0163008F062C10EC01530D7
:101FA00008F05EC11BC0DD2361F0112331F0F701A1
:101FB000858180FF30C18F7085838C2F0E942F0F09
:101FC0004FC1112359F0093309F036C1FFEF27EE55
:101FD00083E0F15020408040E1F72CC18C2FDAC023
:101FE0008C2F86958695837090E0009719F0019765
:101FF00061F036C1DD2321F0802F9C2F937002C049
:1020000080E090E00E942D0C3BC1DD2321F0802F69
:102010009C2F937002C080E090E00E94430C30C17E
:102020008C2F837009F04BC0D11126C1202F22952F
:1020300026952770220F220F602F6F70862F90E059
:10204000A0E0B0E02C013D01022E04C0440C551C60
:10205000661C771C0A94D2F704FF10C08FE090E052
:10206000A0E0B0E004C0880F991FAA1FBB1F2A95EB
:10207000D2F780959095A095B09503C080E090E050
:10208000DC01C695C695C370D0E0BC01CD016429C2
:10209000752986299729C230D10559F0C330D10559
:1020A00059F0219719F00E949A15E6C00E948815F0
:1020B000E3C00E94AC15E0C00E948615DDC0DD23A0
:1020C00019F08C2F817001C08695882309F4D4C043
:1020D000202F229526952770220F220F602F6F70D8
:1020E000862F90E0A0E0B0E02C013D01022E04C05C
:1020F000440C551C661C771C0A94D2F704FF10C0D0
:102100008FE090E0A0E0B0E004C0880F991FAA1F04
:10211000BB1F2A95D2F780959095A095B09503C0E6
:1021200080E090E0DC01C695C695C370D0E0BC01AC
:10213000CD016429752986299729C230D10559F026
:10214000C330D10559F0219719F00E94601694C050
:102150000E944E1691C00E9472168EC00E94C11538
:102160008BC0802F90E0FC01E05EF109E531F105C4
:1021700008F04DC0E858FF4F0C9401220F708C2FCF
:102180008F71DD2321F00E94E715802F17CF0E9469
:102190000816802F0E94360F63C0DD2341F01530F2
:1021A00008F05EC08C2F8F710E942D1659C016301A
:1021B00008F056C0F7CFDD2339F08C2F8F710E94C5
:1021C000E7154EC0DD23C9F38C2F8F710E940816CE
:1021D00047C0DD2329F08C2F8F710E94D21540C09B
:1021E0000E94CD153DC0DD2349F0CF718C2F0E9498
:1021F000E71563E08C2F0E94E21732C081E00E9455
:10220000F717123068F182E00E94F71729C0DD232A
:1022100031F0112391F2802F0E948E0D21C01123E5
:1022200099F2093349F49FEFE7EEF3E09150E04073
:10223000F040E1F700C00000802F0E94BD0E10C0EA
:102240004C2F4F70602FC7010E944E050E94F91459
:1022500017C04C2F4F70602FC7010E94510510C04E
:1022600028E0C216D10441F05CF09AE0C91AD10806
:10227000E2E0CE16D10420F40E94070C0E944D0427
:10228000BB20F1F00E94551780FD1AC0F7011282A1
:102290000E944F170E94E715C7010E946E110E940D
:1022A0004F17DF91CF911F910F91FF90EF90DF902B
:1022B000CF90BF907F906F905F904F900C940816D6
:1022C000DF91CF911F910F91FF90EF90DF90CF9012
:1022D000BF907F906F905F904F9008950F931F93E2
:1022E000CF93DF93EC01888199812B813C81232B53
:1022F000B9F09F3F11F48F3F99F0CE010E94650421
:10230000882371F0688179818A810E942C178C0161
:102310000E9484160E948515B801CE010E943D0FCF
:10232000DF91CF911F910F9108950E9480170E9415
:1023300090170E94AC1780E090E00E942D0C80E086
:1023400090E00C94430C8091090190910A010E9445
:1023500013190C9495110E9470170C94A311E92F76
:10236000E295EF70F0E03297EE30F105B0F4E3570C
:10237000FF4F0C940122803F91F018F4803E68F4E6
:102380000EC0843F51F40BC0803E48F0813F29F4D9
:1023900006C093FB882780F9089580E0089581E0C6
:1023A00008950E9421170E94AF110895CF93DF93E3
:1023B00000D000D01F92CDB7DEB70F900F900F90D6
:1023C0000F900F90DF91CF910895CF93DF9300D0BE
:1023D00000D000D0CDB7DEB726960FB6F894DEBF9A
:1023E0000FBECDBFDF91CF9108951F93CF93DF93A1
:1023F000C091C10116E08091C201C81799F0D0E0E8
:102400001C9FF0011D9FF00D1124ED53FE4F4081E4
:10241000518162817381848195810E94E5112196A9
:10242000C770E9CFDF91CF911F9108954091F301DB
:102430005091F4016091F5017091F6018091F701DE
:102440009091F8010C94E5118091F80182958F70BC
:1024500009F054C08091F501882309F44FC08091A0
:10246000C101A091C2016091F3017091F40140910A
:10247000F6015091F701B6E08A1709F43FC090E0E9
:1024800041155105C1F17F3F11F46F3FA1F1B89F94
:10249000F001B99FF00D1124ED53FE4F218172130D
:1024A0002AC02081621327C02281211124C02381E8
:1024B00034812417350710F421503109241B350BC2
:1024C00024363105C0F42091F8012F70206120934B
:1024D000F80126E0289FF001299FF00D1124E85310
:1024E000FE4F80818F708061808383EF91E00E9436
:1024F0006E110C94F51101968770BECF0895CF929E
:10250000DF92EF92FF920F931F93CF93DF93CDB79C
:10251000DEB762970FB6F894DEBF0FBECDBF8C0159
:1025200085E0F801DE011D9601900D928A95E1F794
:10253000D8014C9111965C91119712966C9112975B
:102540001396CD90DC9014973091F3017091F401C3
:102550008091F6019091F701009709F46BC17F3FDC
:1025600019F43F3F09F466C1E090F501EE2009F44B
:10257000C0C02091F801C816D90628F0F601E81B62
:10258000F90BCF0104C0809590958C0D9D1DFF2403
:10259000F3948436910578F0F12C207F09F0C6C0C1
:1025A0007C2DD98AC88A89890E94D61183EF91E04F
:1025B0000E946E11B1C0822F807F09F046C0751352
:1025C00014C0341312C0611110C02F702061209309
:1025D000F8010E94161283EF91E00E946E11809123
:1025E000F801D80115968C932EC0CD2819F15F3FC4
:1025F00011F44F3FF9F0F62E61111CC08091C1011A
:102600002091C20136E0821709F45AC090E0389F49
:10261000F001399FF00D1124ED53FE4F71815713D6
:1026200006C07081471303C07281711103C0019607
:102630008770E9CFF62E662309F427C18091F8014F
:1026400081608093F801F12C20C1751308C0341308
:1026500006C0611104C08091F801D801C3C04D8744
:102660005E878D859E856A8B0E94D1116A89882339
:10267000E1F16623D1F12091F801822F82958F70CC
:1026800090E0029774F08091F3019091F4019887A3
:102690008F831986DB86CA862C87CE0107960E9417
:1026A0006E1186E0F801A3EFB1E001900D928A95DA
:1026B000E1F70E9424120E941612FF24F394E5C051
:1026C0004D875E878D859E850E942117292F229533
:1026D0002F7030E0223031050CF0CBC09F7009F034
:1026E000C5C0805E883008F4D0C0C8010E946E1159
:1026F000E4CFC816D90608F453C0F601E81BF90B5D
:10270000CF018436910508F450C0F12C7C2DD98A74
:10271000C88A89890E94D611E3EFF1E086E0DF01E3
:102720001D928A95E9F70E941612AFC0751314C066
:10273000341312C0611110C08091F801F801858333
:10274000C8010E946E1186E0E3EFF1E0DF011D9207
:102750008A95E9F7FE2C99C04D875E878D859E8509
:102760006A8B0E94D1116A89882309F4BECF66233F
:1027700009F4BBCF2091F801822F82958F7090E0F1
:1027800002970CF48ECF8091F3019091F4019A831B
:1027900089831B82DD82CC822E83CE0101967FCF7E
:1027A000809590958C0D9D1DACCFF62E662309F477
:1027B0009CCF75132EC034132CC02091F80120FD3E
:1027C0001FC0822F82958F70D9F0D80115962C9357
:1027D00015978F3049F08F5F982F9295907F822FB9
:1027E0008F70892B15968C93C8010E946E1186E01C
:1027F000F801A3EFB1E001900D928A95E1F793CF34
:1028000086E0F801A3EFB1E001900D928A95E1F71F
:102810003CC04D875E878D859E850E94D1118111B8
:1028200040CF8091F80181608093F801C8010E9437
:102830006E112BC0662309F458CF4D875E878D85B6
:102840009E850E94D111F82E882309F44ECF86E090
:10285000F801A3EFB1E001900D928A95E1F783EFC3
:1028600091E00E94880D0E9424125DCF811139CF22
:102870000CC0243031050CF038CF9F7009F431CFF3
:10288000F8019581907F09F02CCF8F2D62960FB6BD
:10289000F894DEBF0FBECDBFDF91CF911F910F9196
:1028A000FF90EF90DF90CF9008951F93CF93DF9329
:1028B000CDB7DEB72C970FB6F894DEBF0FBECDBFF5
:1028C0004F83588769877A878B879C87CE010796C5
:1028D0000E947F12882369F08F8198852A853B8525
:1028E000232BF1F19F3F09F063C08F3F09F060C0D7
:1028F00037C086E0FE013796DE01119601900D92F9
:102900008A95E1F76F817885EA85FB85309741F1FB
:102910007F3F11F46F3F21F12091C20130E0C901E6
:102920000196877099274091C10150E0841795075F
:1029300009F447C069837A83FD83EC8396E0929F14
:10294000D001939FB00D1124AD53BE4FFE013196BF
:1029500001900D929A95E1F78093C2010E94F511C2
:1029600016E08091C1019091C2018917C1F1189FB1
:10297000C00111248D539E4F0E947F12882379F14C
:10298000E091C1011E9FF0011124ED53FE4F4081E3
:10299000518162817381848195810E94E5118091CA
:1029A000C10190E00196877099278093C101D9CF2A
:1029B0004F81588569857A858B859C850E94E511B4
:1029C000CFCF0E94AB111092C2011092C101E3EF70
:1029D000F1E086E0DF011D928A95E9F7C1CF2C96E0
:1029E0000FB6F894DEBF0FBECDBFDF91CF911F9120
:1029F0000895EF92FF920F931F93CF93DF938C0173
:102A0000892B09F46CC0F12CEE24E394E8012196A3
:102A1000F8018491843740F4843008F051C081304B
:102A200081F0823019F15BC0853709F444C0A8F108
:102A30009CE7980F903708F052C08F770E94BD0E28
:102A400041C00E5F1F4FFE01C49180E28C0F8830A1
:102A500048F4C7708E2D01C0880FCA95EAF70E940E
:102A6000831714C08C2F0E948E0D2DC00E5F1F4F38
:102A7000FE01C49180E28C0F883058F4C7708E2D0F
:102A800001C0880FCA95EAF70E9489170E94AC1707
:102A90001AC08C2F0E94BD0E16C00E5F1F4FFE0184
:102AA000C491CC2381F08FE99FE00197F1F700C03A
:102AB0000000C150F6CF0E5F1F4FFE01F49003C01F
:102AC0000E948E0D8E018F2D882309F49FCFEFE990
:102AD000FFE03197F1F700C000008150F5CFDF91A2
:102AE000CF911F910F91FF90EF90089508950C944E
:102AF00076150E9477156093750270937602809325
:102B00007702909378020C94951108950C9479159E
:102B10000F931F9300917502109176022091770216
:102B200030917802602B712B822B932B1F910F9188
:102B30000C9479150F931F930091750210917602F2
:102B400020917702309178026023712382239323AE
:102B50001F910F910C9479150F931F93009175029B
:102B600010917602209177023091780260277127C8
:102B7000822793271F910F910C94791508950C9437
:102B8000BE150E94BF15609371027093720280930C
:102B90007302909374020C94951160E070E0CB0185
:102BA0000C94C1150F931F9341E050E060E070E07A
:102BB0008A019B0104C0000F111F221F331F8A9539
:102BC000D2F7C901B8011F910F910C94C1150F9351
:102BD0001F9341E050E060E070E004C0440F551FD7
:102BE000661F771F8A95D2F78091710290917202C9
:102BF000A0917302B09174028A019B01082B192BDA
:102C00002A2B3B2BC901B8011F910F910C94C115C0
:102C10000F931F9341E050E060E070E004C0440F68
:102C2000551F661F771F8A95D2F74095509560957E
:102C300070958091710290917202A0917302B0918F
:102C400074028A019B01082319232A233B23C9010B
:102C5000B8011F910F910C94C1150F931F9341E080
:102C600050E060E070E004C0440F551F661F771FFE
:102C70008A95D2F78091710290917202A0917302AD
:102C8000B09174028A019B01082719272A273B2744
:102C9000C901B8011F910F910C94C1150F931F9397
:102CA00000917102109172022091730230917402AE
:102CB000602B712B822B932B1F910F910C94C115BC
:102CC0000F931F9300917102109172022091730271
:102CD0003091740260237123822393231F910F91FB
:102CE0000C94C1150F931F93009171021091720201
:102CF00020917302309174026027712782279327F5
:102D00001F910F910C94C115089523E1929F800D9E
:102D10001124A82FA695A695A695877051E001C00D
:102D2000550F8A95EAF785E0A89FD001112420E08D
:102D300030E070E0F901EA0FFB1FE750FE4F4081E1
:102D4000CB01022E02C0969587950A94E2F7817016
:102D50009927819584278523842780832F5F3F4F80
:102D60002530310539F7089523E1929F800D112414
:102D7000682F669566956695982F977085E0689F91
:102D8000B001112440E050E080E0FA01E60FF71FA7
:102D9000E750FE4F208130E0092E02C0369527957E
:102DA0000A94E2F721703327042E01C0220F0A94FF
:102DB000EAF7822B4F5F5F4F4530510531F7089599
:102DC000BF92CF92DF92EF92FF920F931F93CF9318
:102DD000DF938C01C0907502D0907602E09077026C
:102DE000F09078028091710290917202A09173022A
:102DF000B0917402C82AD92AEA2AFB2ACFE1D0E08E
:102E0000D701C6010C2E04C0B695A7959795879556
:102E10000A94D2F780FF07C0BC2EB8018C2F0E9405
:102E20006C05019719F4219758F7B12C8B2DDF9180
:102E3000CF911F910F91FF90EF90DF90CF90BF90B7
:102E40000895CF93DF93EC010E94E016BE010E942B
:102E50006C05DF91CF9108951F93CF93DF93EB0122
:102E60009091C001992321F0CB010E94211713C03A
:102E7000882349F0CB010E94E016182F682FCE015D
:102E80000E94851604C0CB010E94B416182FBE0103
:102E9000812F0E946C05DF91CF911F910895809141
:102EA0007902859585958595089580917902877039
:102EB000089590917902977081E009F480E0089577
:102EC00080919D02089590919D02892B80939D028F
:102ED0000895809590919D02892380939D02089585
:102EE00010929D02089590919C02892B80939C02E0
:102EF0000895809590919C02892380939C02089567
:102F000010929C02089590919B02892B80939B02C2
:102F10000895809590919B02892380939B02089548
:102F200010929B02089580917A02089508950C945E
:102F3000961790917A02981721F080937A020C9458
:102F40009717089580917A02882329F010927A02C7
:102F500080E00C9497170895E0910901F0910A011F
:102F600080919D028083E0910901F0910A01908196
:102F700080919C02892B8083E0910901F0910A01E4
:102F8000908180919B02892B808380917A02882393
:102F900081F0E0910901F0910A019081892B8083F1
:102FA0008091090190910A010E94981881110E9454
:102FB000A2178091090190910A010C94130C0895B5
:102FC0000C94DF1798E0899F90011124262B209301
:102FD00079020E94E71580917902859585958595FE
:102FE0000C94E0171092790280E00C94E017209185
:102FF00079028095822380937902982F977079F4D3
:1030000030E0482F082E000C550B2417350739F0F7
:103010008595859585950E9408160C94F21708955C
:1030200080E090E00E940F2221E08D3E9E4F09F04B
:1030300020E0822F089582E090E00C94072283E044
:1030400090E00C94072284E090E00C940722682F13
:1030500084E090E00C941522AB01BC018FE090E07D
:103060000C942722AB01BC0183E190E00C94272251
:1030700060E070E0CB010C94321860E070E0CB01AE
:103080000E942C180C9438186DEE7EEF80E090E0D2
:103090000E94332260E082E090E00E94152260E00E
:1030A00083E090E00E941522109275021092760241
:1030B000109277021092780260E084E090E00E9423
:1030C000152260E085E090E00E94152260E086E035
:1030D00090E00E9415226FEF87E090E00E94152299
:1030E00040E050E0BA0188E090E00E94272260E0D2
:1030F0008DE090E00E94152240E050E0BA0188E1A6
:1031000090E00E94272260E087E190E00E94152273
:1031100040E050E0BA018CE190E00E94272260E09C
:1031200080E290E00E9415220C943D180C94441803
:10313000FC01329680911501882331F08091CA02FA
:1031400087FF02C09EE101C096E080E0915028F028
:1031500021912223D9F38F5FF9CF08959C01FC01BF
:1031600032969FEF80E04191461789F09F3F19F416
:10317000411101C0982F8F5F8630A9F79F3F39F02A
:10318000F901E90FF11D97FDFA95628308950895FD
:10319000FC01329608962081261301C010823196D8
:1031A000E817F907C1F70895262F26952695269545
:1031B0002E3168F4FC01E20FF11D677021E030E070
:1031C00001C0220F6A95EAF78281282B2283089595
:1031D000262F2695269526952E3170F4FC01E20FB8
:1031E000F11D677021E030E001C0220F6A95EAF717
:1031F000209582812823228308952091150122237E
:1032000029F02091CA0227FD0C94D4180C94AE1812
:1032100020911501222329F02091CA0227FD0C9448
:10322000E8180C94C81820911501FC01329622234D
:1032300031F08091CA0287FF02C08EE101C086E0B2
:10324000DF011D928A95E9F7089508950C942519D8
:103250000E9426198091D002843049F110929F0279
:1032600020E488E190E00FB6F894A8958093600080
:103270000FBE2093600080E00E944D040E9426193A
:1032800083B7817F846083BF83B7816083BF789475
:10329000889583B78E7F83BF0FB6F894A8958091E9
:1032A0006000886180936000109260000FBE0895F6
:1032B00008950895CF930E9458190E9407090E940B
:1032C0005919C0E08C2F0E94C807672B682B692B07
:1032D00029F4CF5FCA30B1F780E001C081E0CF911F
:1032E000089508950C9471190E94AB110E94070C67
:1032F0000E944D040C9472191F920F920FB60F92F8
:1033000011248F939F93AF93BF9380919F0281115C
:1033100013C08091C6029091C702A091C802B091DB
:10332000C9024196A11DB11D8093C6029093C702A8
:10333000A093C802B093C902BF91AF919F918F91A2
:103340000F900FBE0F901F90189582E084BD93E000
:1033500095BD9AEF97BD80936E0008952FB7F894AE
:103360008091C6029091C702A091C802B091C90293
:103370002FBF0895CF92DF92EF92FF920F931F938A
:103380002FB7F8944091C6025091C7026091C802CD
:103390007091C9022FBF6A017B01EE24FF248C01CA
:1033A00020E030E0C016D106E206F30610F44150EA
:1033B00051099A01281B390BC9011F910F91FF90E8
:1033C000EF90DF90CF90089578941F920F920FB6F0
:1033D0000F9211248F939F93AF93BF938091C60256
:1033E0009091C702A091C802B091C9020196A11D97
:1033F000B11D8093C6029093C702A093C802B093F8
:10340000C902BF91AF919F918F910F900FBE0F9006
:103410001F90189587E797E790930108809300081D
:103420009AE088E10FB6F894A895809360000FBEEB
:1034300090936000FFCF0E941018811102C00E947B
:1034400096180E941B1880939E020E94231890E0F9
:103450009093CB028093CA020E941F18682F70E0DD
:1034600080E090E00C9486150F931F93482F50E056
:10347000FA013597EF33F10508F07FC0E556FF4FAD
:103480000C9401220E94961871C080919E02817F47
:103490008E7F80939E0281E08093A0026FC00E9485
:1034A000AB110FEF13ED20E3015010402040E1F786
:1034B00000C000000E940A1A59C080919E02982FF5
:1034C0009095917090FB80F980939E0291114EC06F
:1034D000897F877F10C080919E0281FB222720F97F
:1034E00091E0922790FB81F980939E029923F1F15C
:1034F00080919E02816080939E0238C080919E02DE
:1035000082FB222720F991E0922790FB82F9ECCFF1
:1035100080919E0283FB222720F991E0922790FB65
:1035200083F9E2CF0E94AB118091CA0287FB222768
:1035300020F991E0922790FB87F98093CA0216C088
:10354000895301C08D5141E050E060E070E08A0194
:103550009B0104C0000F111F221F331F8A95D2F751
:10356000C901B8010E9486150E94AB1181E006C016
:1035700061E070E080E090E0F5CF80E01F910F9176
:10358000089580E0089580E00895CF93C82F80913A
:10359000A002882319F0813031F02BC00E946017FF
:1035A000823249F504C00E946017823261F48C2F88
:1035B0000E94C11A811104C08C2F0E94341A17C0B6
:1035C00081E090E014C08C2F0E94C31A81110EC0BC
:1035D000C43149F018F4CB3049F00FC0C93219F0AA
:1035E000C83321F00AC01092A00207C081E08170A8
:1035F00006C01092A00280E002C080E0F8CFCF9118
:1036000008958091C102089508950F931F93CF9359
:10361000DF9300D01F92CDB7DEB78C010E94481D0A
:10362000823011F0843021F584E089831B830A8382
:1036300082E08093E9008FEF9091E800815095FD42
:1036400006C095ED9A95F1F700008111F5CF8091B4
:10365000E80085FF0DC040E050E063E070E0CE017F
:1036600001960E94651D8091E8008E778093E800A6
:103670000F900F900F90DF91CF911F910F910895B0
:10368000CF93DF9300D01F92CDB7DEB72091D00249
:10369000243031F523E02983805891099B838A8364
:1036A00082E08093E9008FEF9091E800815095FDD2
:1036B00006C095ED9A95F1F700008111F5CF809144
:1036C000E80085FF0DC040E050E063E070E0CE010F
:1036D00001960E94651D8091E8008E778093E80036
:1036E0000F900F900F90DF91CF910895CF93DF93BC
:1036F000EC010E94481D823011F08430D9F5809190
:103700001501882339F08091CA0287FF03C060E267
:1037100082E002C068E081E08093E9008FEF909141
:10372000E800815095FD06C095ED9A95F1F70000EF
:103730008111F5CF8091E80085FF1CC080911501B3
:10374000811105C040E050E068E070E003C070E027
:1037500040E050E0CE010E94651D8091E8008E7728
:103760008093E80080E2FE01A1EAB2E001900D92B0
:103770008A95E1F7DF91CF9108958091CF02811171
:1037800009C00E94FA1E0E94571F8091E2008460C7
:103790008093E20008951092CF020895089508954D
:1037A0000C94741942E061EC81E00E94741E42E2C4
:1037B00061EC82E00C94741E8091D202833009F493
:1037C00060C030F4813071F0823009F499C00895FE
:1037D0008A3009F485C08B3009F46BC0893009F058
:1037E000A7C020C08091D102813A09F0A1C0809188
:1037F000E800877F8093E8008091D5029091D602FF
:10380000892B21F460E281EA92E003C060E080E06D
:1038100090E070E00E94B01D8091E8008B7780936B
:10382000E80008958091D102813209F081C0809131
:10383000D5029091D602029708F07AC08091E800F4
:10384000877F8093E8008091E80082FD05C0809129
:10385000D0028111F8CF6CC02091F3008091F2006A
:1038600090E0922B029729F48091F1008B7F8130B8
:1038700021F48091F1008093C1028091E8008B7760
:1038800053C08091D102813A09F052C08091D50293
:103890009091D602892B09F04BC08091E800877F78
:1038A0008093E8008091E80080FFFCCF80911501B3
:1038B00036C08091D1028132D9F58091D5029091A4
:1038C000D602892BA9F58091E800877F8093E800D4
:1038D0000E94A91E8091D302809315010C94AB1114
:1038E0008091D102813221F58091E800877F809319
:1038F000E8000E94A91E8091D4028093C20208951C
:103900008091D102813AA1F48091E800877F809371
:10391000E8008091E80080FFFCCF8091C202809394
:10392000F1008091E8008E778093E8000C94A91E46
:10393000089584B7877F84BF0FB6F894A8958091C7
:103940006000886180936000109260000FBE80E884
:1039500080936100109261000E94660C0E94FA1E22
:103960000E94571F8091E20084608093E200789467
:103970000E94E6210E946C0C8BE091E00E94020CF8
:103980008091D002853069F40E9428198091CE027E
:103990008823B1F30E945A19882391F30E944F1D86
:1039A000EFCF0E94790CECCF0C94D61C292F332733
:1039B00023303105C9F064F42130310581F0223023
:1039C000310509F04CC08BE390E020E736E04BC0B6
:1039D0002132310521F12232310589F140C082E1E5
:1039E00090E02BEA36E03FC099278130910571F0D5
:1039F0002CF4892BA1F5ECE6F6E00DC082309105A0
:103A000041F0039761F5ECE3F6E005C0ECE5F6E084
:103A100002C0E2E4F6E0849190E09F0124C06115C9
:103A2000710541F061307105D1F489E090E02BE936
:103A300036E019C089E090E022E836E014C0611554
:103A4000710541F06130710551F481E790E02DEB93
:103A500036E009C080E490E02EE237E004C080E068
:103A600090E020E030E0FA0131832083089508954A
:103A7000CF93C82F0E94371DC093C302CF910895E2
:103A80008091D002843011F081E0089582E00895A1
:103A90008091C302811102C00C94401D089580E101
:103AA00089BD82E189BD09B400FEFDCF8091D800B7
:103AB0008F7D8093D8008091E00082608093E00049
:103AC0008091E00081FDFCCF0895CF92DF92EF92CC
:103AD000FF920F931F93CF93DF93EC018B016A0149
:103AE0000E94C81E811133C0C114D10439F0F601FF
:103AF00080819181081B190BC80FD91FE12CF12C73
:103B00000115110519F18091E80085FD16C080911D
:103B1000E8008E778093E800C114D10449F0F601E3
:103B200080819181E80EF91EF182E08285E00FC06C
:103B30000E94C81E882321F30AC089918093F10056
:103B400001501109FFEFEF1AFF0ADACF80E0DF9191
:103B5000CF911F910F91FF90EF90DF90CF9008953C
:103B60002091D7023091D8022617370748F0611507
:103B7000710539F42091E8002E772093E80001C008
:103B8000B90140E061157105A9F12091D00222230D
:103B900009F443C0253009F442C02091E80023FD18
:103BA00040C02091E80022FD32C02091E80020FFB3
:103BB000E9CF4091F3002091F20030E0342BFC017A
:103BC000CF016115710559F02830310540F481911C
:103BD0008093F100615071092F5F3F4FF1CF41E0B9
:103BE0002830310509F040E02091E8002E7720933D
:103BF000E800C8CF4111C9CF0AC08091D002882304
:103C000061F0853061F08091E80083FD0AC0809109
:103C1000E80082FFF2CF80E0089582E0089583E01B
:103C2000089581E008952091D7023091D802261797
:103C3000370748F06115710539F42091E8002E77B7
:103C40002093E80001C0B901FC0120E06115710575
:103C500091F18091D002882309F440C0853009F4A5
:103C60003FC08091E80083FD3DC08091E80082FD67
:103C70002FC08091E80080FFE9CF2091F300809170
:103C8000F20090E0922B6115710559F08830910592
:103C900040F424912093F10031966150710901960E
:103CA000F2CF21E0089709F020E08091E8008E77BC
:103CB0008093E800CBCF2111CCCF0AC08091D002F5
:103CC000882361F0853061F08091E80083FD0AC0AF
:103CD0008091E80082FFF2CF80E0089582E00895AD
:103CE00083E0089581E00895982F973058F59093D8
:103CF000E900981739F07091EC002091ED00509197
:103D0000F00003C0242F762F50E021FF19C030911E
:103D1000EB003E7F3093EB003091ED003D7F309320
:103D2000ED003091EB0031603093EB007093EC00CC
:103D30002093ED005093F0002091EE0027FF07C084
:103D40009F5FD3CF8F708093E90081E0089580E07A
:103D500008958091D10287FF11C08091E80082FD13
:103D600005C08091D0028111F8CF11C08091E80088
:103D70008B770BC08091D002882349F08091E800B6
:103D800080FFF8CF8091E8008E778093E800089557
:103D90002091E4003091E50095E64091EC00842FFD
:103DA000817040FF22C08091E80080FD1CC080919E
:103DB000D002882391F0853091F08091EB0085FD51
:103DC00010C04091E4005091E5004217530729F3D9
:103DD0009A01915011F784E0089582E0089583E0FC
:103DE000089581E0089580E008954091E80042FF41
:103DF000DECF08950E94681F0E94701FE0EEF0E081
:103E0000808181608083E8EDF0E080818F7780831E
:103E100019BCA7EDB0E08C918E7F8C9380818F7E52
:103E200080831092CF0208950F931F93CF93DF9357
:103E30000E94681F0E94701FC8EDD0E088818F77B4
:103E4000888388818068888388818F7D888319BC76
:103E50001092D0021092CC021092CE021092CD029B
:103E600000EE10E0F80180818B7F80838881816083
:103E7000888342E060E080E00E94741EE1EEF0E0A2
:103E800080818E7F8083E2EEF0E08081816080839C
:103E9000808188608083F80180818E7F8083888123
:103EA00080618883DF91CF911F910F910895E8ED94
:103EB000F0E080818F7E8083E7EDF0E0808181609B
:103EC000808384E082BF81E08093CF020C94141F32
:103ED000E8EDF0E080818E7F80831092E20008950B
:103EE0001092DA001092E10008951F920F920FB61F
:103EF0000F9211242F933F934F935F936F937F9370
:103F00008F939F93AF93BF93EF93FF938091E100C3
:103F100082FF0BC08091E20082FF07C08091E10028
:103F20008B7F8093E1000E94E5218091DA0080FF81
:103F30001FC08091D80080FF1BC08091DA008E7F67
:103F40008093DA008091D90080FF0DC080E189BDA7
:103F500082E189BD09B400FEFDCF81E08093D002EB
:103F60000E94BD1B05C019BC1092D0020E94CB1B41
:103F70008091E10080FF19C08091E20080FF15C0B0
:103F80008091E2008E7F8093E2008091E200806168
:103F90008093E2008091D80080628093D80019BCA1
:103FA00085E08093D0020E94CF1B8091E10084FFC6
:103FB00030C08091E20084FF2CC080E189BD82E1A5
:103FC00089BD09B400FEFDCF8091D8008F7D80931C
:103FD000D8008091E1008F7E8093E1008091E20023
:103FE0008F7E8093E2008091E20081608093E20006
:103FF0008091CC02882311F084E007C08091E30017
:1040000087FD02C081E001C083E08093D0020E945E
:10401000D01B8091E10083FF29C08091E20083FFE3
:1040200025C08091E100877F8093E10082E080934A
:10403000D0021092CC028091E1008E7F8093E1004B
:104040008091E2008E7F8093E2008091E2008061A7
:104050008093E20042E060E080E00E94741E809164
:10406000F00088608093F0000E94CE1BFF91EF91DA
:10407000BF91AF919F918F917F916F915F914F9180
:104080003F912F910F900FBE0F901F9018951F9288
:104090000F920FB60F9211242F933F934F935F937C
:1040A0006F937F938F939F93AF93BF93CF93DF9340
:1040B000EF93FF93C091E900CF708091EC00D82F6F
:1040C000D17080FDD0E81092E9008091F000877FE8
:1040D0008093F00078940E948B201092E9008091E8
:1040E000F00088608093F000CD2BCF70C093E90082
:1040F000FF91EF91DF91CF91BF91AF919F918F9100
:104100007F916F915F914F913F912F910F900FBED3
:104110000F901F9018951F93CF93DF93CDB7DEB705
:10412000AA970FB6F894DEBF0FBECDBFE1EDF2E067
:1041300088E08E0F9091F10091938E13FBCF0E9437
:10414000DC1B8091E80083FF28C18091D10290910F
:10415000D202492F50E04A30510508F01EC1FA0141
:10416000E652FF4F0C940122803821F0823809F08A
:1041700014C108C08091CD029091CE02992389F09C
:1041800082600FC08091D5028F70873008F005C122
:104190008093E9008091EB0085FB882780F91092DD
:1041A000E9009091E800977F9093E8008093F100F8
:1041B0001092F100D0C0282F2D7F09F0EEC0882387
:1041C00019F0823061F0E9C08091D302813009F0AA
:1041D000E4C0933009F080E08093CE022EC080913D
:1041E000D30281112AC08091D5028F702FEF280F42
:1041F000263008F0D2C08093E9002091EB0020FF28
:104200001CC0933021F48091EB00806214C0909127
:10421000EB0090619093EB0021E030E0A90102C037
:10422000440F551F8A95E2F74093EA001092EA0086
:104230008091EB0088608093EB001092E900809100
:10424000E800877F8093E8000E94A91EA6C0811124
:10425000A4C01091D3021F778091E3008078812B56
:104260008093E3008091E800877F8093E8000E94BC
:10427000A91E8091E80080FFFCCF8091E300806858
:104280008093E300111102C082E001C083E08093BB
:10429000D00283C08058823008F07FC08091D30262
:1042A0009091D4028C3D53E0950779F583E08A83A1
:1042B0008AE289834FB7F894DE01139620E03EE04E
:1042C00051E2E32FF0E050935700E49120FF03C048
:1042D000E295EF703F5FEF708E2F90E0EA3010F0C4
:1042E000C79601C0C0968D939D932F5F243149F7E7
:1042F0004FBF8091E800877F8093E8006AE270E01A
:10430000CE0101960E94B01D15C06091D50270913A
:10431000D602AE014F5F5F4F0E94D41CBC01892BB7
:10432000E1F19091E800977F9093E80089819A816C
:104330000E94131E8091E8008B778093E8002DC0C7
:10434000803859F58091E800877F8093E80080915C
:10435000CC028093F1008091E8008E7773CF8111B9
:104360001CC09091D3029230C0F48091E800877F06
:104370008093E8009093CC020E94A91E8091CC0209
:10438000811106C08091E30087FD02C081E001C079
:1043900084E08093D0020E94D21B8091E80083FFCA
:1043A0000AC08091E800877F8093E8008091EB004D
:1043B00080628093EB00AA960FB6F894DEBF0FBE22
:1043C000CDBFDF91CF911F9108950895CF93809134
:1043D000D0028823A1F0C091E900CF709091EC0049
:1043E000892F817090FD80E8C82B1092E9008091A0
:1043F000E80083FD0E948B20CF70C093E900CF912D
:104400000895EE0FFF1F0590F491E02D0994F9999E
:10441000FECF92BD81BDF89A992780B50895A8E195
:10442000B0E042E050E00C943B22262FF999FECFF9
:1044300092BD81BDF89A019700B4021639F01FBAF7
:1044400020BD0FB6F894FA9AF99A0FBE0895039614
:10445000272F0E9416220E941522252F0E94162225
:10446000242F0C9416220196272F0E9416220C94BA
:104470001522DC01CB01FC01F999FECF06C0F2BD8B
:10448000E1BDF89A319600B40D9241505040B8F712
:064490000895F894FFCF2F
:104496000176010077011477017B02011B761B046C
:1044A6001B401B051B01343536323331F7F6F5F464
:1044B60000000000000000000090946697C600000F
:0444C60000000000F2
:00000001FF
