:100000000C94B6070C94FD070C94FD070C94FD07A7
:100010000C94FD070C94FD070C94FD070C94FD0750
:100020000C94FD070C94FD070C94E42A0C94B62B59
:100030000C941D1D0C94FD070C94FD070C94FD07FA
:100040000C94FD070C94FD070C94FD070C94FD0720
:100050000C94FD070C94911D0C94FD070C94FD0766
:100060000C94FD070C94FD070C94FD070C94FD0700
:100070000C94FD070C94FD070C94FD070C94FD07F0
:100080000C94FD070C94FD070C94FD070C94FD07E0
:100090000C94FD070C94FD070C94FD070C94FD07D0
:1000A0000C94FD070C94FD070C94FD07E909EB097E
:1000B000F609ED09EF09F109F309F509F809FA095B
:1000C000FC09070AFE09000A020A040A060A090ACC
:1000D000EB12EB121D131D1366138613EA14EA14B8
:1000E000C813EA1469146914DA14EA14EA14E3145C
:1000F00076147614761476147614761476147614B0
:10010000761476147614761476147614761476149F
:10011000871495149C14A314AD14791579158B15B7
:100120008B1582158B158B158B1579157915871500
:100130008B158B158715232C4A2C3C2D4A2C3C2DD6
:10014000962CB92C3C2D0F2D1E2D68747470733AAB
:100150002F2F716D6B2E666D2F012800514D4B2096
:100160006973207468652062657374207468696EB1
:1001700067206576657221002A002E002D00270079
:1001800026002500240023002200210020001F005B
:100190001E00350029004A002B0014001A00080038
:1001A000150017001C0018000C00120013002F008F
:1001B000300031004C004B002800340033000F00A9
:1001C0000E000D000B000A000900070016000400D5
:1001D00039004D0046004C00E1001D001B000600E8
:1001E0001900050011001000360037003800E50046
:1001F00052004E004F0051005000E4000151E60053
:100200002C00E200E300E0003B00000000000000E2
:100210000000000000000000000001004500440054
:1002200043004200410040003F003E003D003C00D2
:100230003B003A0001000100010001000100010043
:1002400001000100010001000100010001000100A6
:100250000100010001000100010001000100010096
:100260000100010001000100010001000100010086
:100270000100010001000100010001000100010076
:100280000100010001000100010001000100010066
:100290000100010001000100010001000100010056
:1002A0000100010001000100010001000000000048
:1002B00000000000000000000000000001004500F8
:1002C000440043004200410040003F003E003D002A
:1002D0003C003B003A000100010001000100010068
:1002E0000100010001000100010001000100010006
:1002F00001000100010001000100010001000100F6
:1003000001000100010001000100010001000100E5
:1003100001000100010001000100010001000100D5
:1003200001000100010001000100010001000100C5
:1003300001000100010001000100010001000100B5
:1003400001000100010001000100010001000000A6
:100350000000000000000000000000000000444514
:100360004255473A2064697361626C65642E0A00E5
:1003700044454255473A20656E61626C65642E0AB9
:100380000000000000000000002A2B2800000000F0
:100390000000000000000000000000002900000034
:1003A000002C1E3420212224342627252E362D37DA
:1003B00038271E1F202122232425263333362E37AB
:1003C000381F0405060708090A0B0C0D0E0F101143
:1003D00012131415161718191A1B1C1D2F31302350
:1003E0002D350405060708090A0B0C0D0E0F101118
:1003F00012131415161718191A1B1C1D2F3130351E
:100400004C000000000000000000000000000000A0
:1004100000000000000000000000000000000000DC
:1004200000000000000000000000000000000000CC
:1004300000000000000000000000000000000000BC
:1004400000000000000000000000000000000000AC
:10045000000000000000000000000000000000009C
:10046000000000000000000000000000000000008C
:10047000000000000000000000000000000000007C
:10048000000000000000000000000000000000006C
:10049000000000000000000000000000000000005C
:1004A0000000010101010101000101010100000042
:1004B0000000000000000000000000010001000139
:1004C000010101010101010101010101010101011C
:1004D000010101010101010101010101000000010F
:1004E000010000000000000000000000000000000B
:1004F00000000000000000000000000001010101F8
:10050000000A002530313662003A2000253032588A
:10051000000A722F632030313233343536373839A0
:100520004142434445460A000A0025303258200023
:100530006B6579626F6172645F7265706F72743A35
:1005400020000A0025303258006B6579626F6172B5
:10055000645F7365745F6C65643A2000290A002546
:1005600075002F002575005D2800256400200025FA
:100570006400200025640020002564007C002530F4
:100580003258006D6F7573656B6579205B62746EB0
:100590007C782079207620685D287265702F6163F1
:1005A0006C293A205B006D6B5F776865656C5F74E2
:1005B000696D655F746F5F6D6178203D2025640A09
:1005C000006D6B5F776865656C5F6D61785F7370F8
:1005D000656564203D2025640A006D6B5F74696D5C
:1005E000655F746F5F6D6178203D2025640A006D42
:1005F0006B5F6D61785F7370656564203D20256475
:100600000A006D6B5F696E74657276616C203D20C7
:1006100025640A006D6B5F64656C6179203D20255F
:10062000640A006D6B5F776865656C5F74696D6502
:100630005F746F5F6D6178203D2025640A006D6BEB
:100640005F776865656C5F6D61785F737065656421
:10065000203D2025640A006D6B5F74696D655F74D1
:100660006F5F6D6178203D2025640A006D6B5F6DC2
:1006700061785F7370656564203D2025640A006DB4
:100680006B5F696E74657276616C203D2025640A2B
:10069000006D6B5F64656C6179203D2025640A0004
:1006A0000A00257500363A20776865656C5F7469C5
:1006B0006D655F746F5F6D61783A20000A00257583
:1006C00000353A20776865656C5F6D61785F73709F
:1006D0006565643A20000A00257500343A20746983
:1006E0006D655F746F5F6D61783A20000A00257553
:1006F00000333A206D61785F73706565643A20005D
:100700000A00257500323A20696E74657276616C54
:10071000286D73293A20000A00257500313A2064BB
:10072000656C6179282A31306D73293A20000A09F5
:100730002D2056616C756573202D0A004D3E004DCD
:1007400025643E20003F0073657420646566617512
:100750006C740A00433E200077686572652064650A
:100760006C74613A20637572736F723D25642C203E
:10077000776865656C3D25640A5365652068747407
:10078000703A2F2F656E2E77696B697065646961A9
:100790002E6F72672F77696B692F4D6F7573655F69
:1007A0006B6579730A000A092D204D6F7573656BAF
:1007B0006579202D0A4553432F713A097175697483
:1007C0000A313A0964656C6179282A31306D7329E0
:1007D0000A323A09696E74657276616C286D732904
:1007E0000A333A096D61785F73706565640A343A5B
:1007F0000974696D655F746F5F6D61780A353A09D8
:10080000776865656C5F6D61785F73706565640AB4
:10081000363A09776865656C5F74696D655F746FFA
:100820005F6D61780A0A703A097072696E74207699
:10083000616C7565730A643A097365742064656652
:1008400061756C74730A75703A092B310A646F779D
:100850006E3A092D310A706775703A092B31300AEA
:100860007067646F776E3A092D31300A0A737065CC
:100870006564203D2064656C7461202A206D617878
:100880005F7370656564202A2028726570656174E5
:10089000202F2074696D655F746F5F6D6178290A20
:1008A000003F004D3E2000433E20004C25640A00DE
:1008B00074696D65725F72656164333228293A200C
:1008C0002530346C580A006B6579626F6172645F21
:1008D00069646C653A2025580A006B6579626F611E
:1008E00072645F70726F746F636F6C3A2025580A80
:1008F00000686F73745F6B6579626F6172645F6CBF
:1009000065647328293A2025580A000A092D2053C6
:100910007461747573202D0A004743433A20342EC6
:10092000392E32204156522D4C4942433A20322E24
:10093000302E30204156525F415243483A20617672
:1009400072350A004F5054494F4E533A204C554689
:1009500041204D4F5553454B455920455854524120
:100960004B455920434F4E534F4C4520434F4D4D1F
:10097000414E4420343039360A004255494C443AFD
:10098000202263623565343722202831363A3338E5
:100990003A343320536570203238203230323029D7
:1009A0000A005649443A2030784645454428545F69
:1009B000746F797329205049443A203078303030B0
:1009C00030286B65795F746F79735F3733292056F0
:1009D00045523A203078303030310A004445534394
:1009E0003A204120637573746F6D206B6579626F77
:1009F0006172640A000A092D2056657273696F6E70
:100A0000202D0A000A092D20436F6E736F6C65203C
:100A10002D0A4553432F713A09717569740A6D3A6D
:100A2000096D6F7573656B65790A000A092D204D94
:100A300061676963202D0A443A094465627567203D
:100A40004D65737361676520546F67676C650A58FD
:100A50003A094D6174726978204465627567204D6A
:100A60006F646520546F67676C65202D2053686F35
:100A700077206B65797072657373657320696E207A
:100A80006D617472697820677269640A4B3A094B28
:100A90006579626F61726420446562756720546F86
:100AA00067676C65202D2053686F77206B657970C0
:100AB00072657373207265706F72740A4D3A0944DF
:100AC00065627567204D6F75736520546F67676C3D
:100AD000650A563A0956657273696F6E0A533A0988
:100AE0005374617475730A433A094163746976619A
:100AF000746520436F6E736F6C65204D6F64650A7B
:100B000046312D4631303A09537769746368207451
:100B10006F204C6179657220302D392028463130A4
:100B2000203D204C30290A302D393A095377697419
:100B3000636820746F204C6179657220302D390A0A
:100B400047524156453A0953776974636820746F78
:100B5000204C6179657220302028616C7465726E5A
:100B6000617465290A423A094A756D7020746F20D4
:100B7000426F6F746C6F616465720A4553433A0942
:100B80004A756D7020746F20426F6F746C6F616472
:100B900065722028616C7465726E617465290A45FE
:100BA0003A095072696E7420454550524F4D20539A
:100BB000657474696E67730A4253504143453A093C
:100BC000436C65617220454550524F4D0A000A0042
:100BD0002575002E6E6B726F3A20000A0025750095
:100BE0002E737761705F6261636B736C6173685FB2
:100BF0006261636B73706163653A20000A0025755A
:100C0000002E737761705F67726176655F657363ED
:100C10003A20000A002575002E6E6F5F6775693AED
:100C200020000A002575002E737761705F72616C79
:100C3000745F726775693A20000A002575002E738B
:100C40007761705F6C616C745F6C6775693A2000E6
:100C50000A002575002E636170736C6F636B5F749F
:100C60006F5F636F6E74726F6C3A20000A002575B7
:100C7000002E737761705F636F6E74726F6C5F6369
:100C80006170736C6F636B3A20000A002530325834
:100C9000006B65796D61705F636F6E6669672E7258
:100CA00061773A20000A002575002E6D6F75736517
:100CB0003A20000A002575002E6B6579626F61721B
:100CC000643A20000A002575002E6D6174726978FF
:100CD0003A20000A002575002E656E61626C653A47
:100CE00020000A00253032580064656275675F6332
:100CF0006F6E6669672E7261773A20000A0025756B
:100D00000064656661756C745F6C617965723A2028
:100D1000003F000A6D6F7573653A206F66660A00C2
:100D20000A6D6F7573653A206F6E0A000A6B6579FC
:100D3000626F6172643A206F66660A000A6B6579B9
:100D4000626F6172643A206F6E0A000A6D6174729C
:100D500069783A206F66660A000A6D617472697874
:100D60003A206F6E0A000A64656275673A206F6602
:100D7000660A000A64656275673A206F6E0A000AA7
:100D80000A4A756D70696E6720746F20626F6F74A8
:100D90006C6F616465722E2E2E2000433E2000434E
:100DA0006C656172696E6720454550524F4D0A006F
:100DB0006565636F6E6669673A0A005B735D004B39
:100DC0006579626F6172642073746172742E0A00B7
:100DD0005B575D005B535D005B525D005B445D00F3
:100DE0005B435D0004033000000018036B006500E6
:100DF00079005F0074006F00790073005F003700B6
:100E0000330000000E0354005F0074006F0079008F
:100E1000730000000403090409025B00030100A041
:100E2000FA09040000010301010009211101000178
:100E30002240000705810308000A0904010001039C
:100E4000000000092111010001228500070582032D
:100E500020000A0904020002030000000921110118
:100E60000001222200070583032000010705030378
:100E70002000011201100100000008EDFE00000139
:100E800000010203010631FF0974A1010975150073
:100E900026FF009520750881020976150026FF00BF
:100EA000952075089102C005010902A1018502097A
:100EB00001A10005091901290515002501950575F0
:100EC0000181029501750381010501093009311580
:100ED00081257F95027508810609381581257F9542
:100EE0000175088106050C0A38021581257F9501D8
:100EF00075088106C0C005010980A101850316019E
:100F0000002603001A81002A8300751095018100D4
:100F1000C0050C0901A1018504160100269C021AD6
:100F200001002A9C02751095018100C00501090687
:100F3000A101050719E029E71500250195087501AC
:100F4000810295017508810105081901290595059A
:100F5000750191029501750391010507190029FF9B
:100F6000150026FF00950675088100C011241FBEDC
:100F7000CFEFDAE0DEBFCDBF04B603FE27C080911D
:100F80003A0290913B02A0913C02B0913D02873021
:100F9000904BA740B04BD1F410923A0210923B0212
:100FA00010923C0210923D0214BE84B7877F84BF2A
:100FB0000FB6F894A89580916000886180936000D6
:100FC000109260000FBEE0E0F8E3099511E0A0E0A8
:100FD000B1E0EAEDFBE502C005900D92AE33B1073A
:100FE000D9F722E0AEE3B1E001C01D92AA33B20707
:100FF000E1F70E94FF270C94EB2D0C940000FF9367
:10100000EF93E0913E01F0913F01309709F009958F
:10101000EF91FF910895FC018591803011F0EFDF91
:10102000FBCF0895FF27E0E230E247FF0CC0419577
:1010300097FF09C0EDE26095709580959095611DD0
:10104000711D811D911D27FF02C0219530E350E2E3
:10105000AA27660F771F881F991FAA1FA41710F0D1
:10106000A41B63955A95A9F7AA3008F0A95FA05D63
:10107000AF93F395611571058105910541F7ED3247
:1010800011F4EF93F395F21718F43F93F395FBCF18
:101090008F91B5DFFA95E1F70895E991F99185917E
:1010A000803021F0853219F0AADFF9CF089520E0D1
:1010B000E89455915532C1F3503311F46894559129
:1010C0005A3348F4505390F3220F022E220F220F6E
:1010D000200D250FF4CF0EF4219589919991533667
:1010E00019F3533729F1533559F1BC018827992752
:1010F000E8945C3621F4899199916894559154361D
:1011000039F446EF7EF077FF0DC08FEF9FEF0AC0F6
:1011100055374AE039F0583540E121F0523642E087
:1011200009F00895FF93EF937DDFEF91FF91B7CF23
:10113000FF93EF93FC0181918030B9F360DFFBCF27
:10114000FF93EF9368DFF1CFDF93CF93CDB7DEB797
:101150002596A3DFCF91DF910895873F2CE5920775
:1011600021F0883F9C4541F00FC0FB01828188231C
:1011700059F08CE591E006C0FB018281882321F0C3
:101180008AE491E00E94760981E008950895089527
:10119000089581E008950C94AD081F93CF93DF93D9
:1011A00000D000D01F92CDB7DEB749835A8320917B
:1011B000840189819A81211112C0662349F00E941D
:1011C0009E1A182F682F89819A810E94431A03C0A2
:1011D0000E94721A182F69817A81812F04C00E949F
:1011E0009E1A69817A810F900F900F900F900F9047
:1011F000DF91CF911F910C94970AFC01408151819E
:101200006281738184810C94CD081F93CF93DF9307
:10121000282F30E0F901EF57FC4F1491F901EF57F7
:10122000FB4FE491C1E0E11101C0C0E0F901EF5FC3
:10123000FB4F2491D1E0211101C0D0E0CC2319F063
:1012400081EE0E94F310DD2319F086EE0E94F31068
:10125000812F0E949412DD2319F086EE0E942C1239
:10126000CC2331F081EEDF91CF911F910C942C12A1
:10127000DF91CF911F9108950F931F93CF93DF9329
:10128000EC01062FFE018491882359F19E012F5F06
:101290003F4F813041F4E901F9011491812F0E94FF
:1012A000F310812F0DC0823031F4E901F9018491EE
:1012B0000E94F3100AC0833031F4E901F9018491EE
:1012C0000E942C1202C00E9405092196802F8823BB
:1012D000C9F2EFE9FFE03197F1F700C0000081505B
:1012E000F6CFDF91CF911F910F91089560E00C949C
:1012F0003C090E94031C811102C00E94891C0C94AD
:10130000080D0C940A0D0C94C8080C9483090895D8
:101310000E9469150E9487092FEF84E39CE0215009
:1013200080409040E1F700C0000087E797E7909386
:101330000108809300080C94B71D0F931F93CF935F
:10134000DF938C010E94FD08EC01B8010E94CB08DC
:101350008823D9F0B801CE010E94E60E8823A9F0B7
:10136000C531FCE5DF0708F088C0C2308CE5D8073E
:1013700070F4C115ECE5DE0709F05BC0F801C2812D
:10138000CC2309F4CAC00E948809C0E0C6C0F80195
:101390008281882309F450C00E94031C811102C07D
:1013A0000E94891C0E94161C90E090932C0280934E
:1013B0002B02FE01E350FC45E231F10530F4EA5A1C
:1013C000FF4F80912B020C948F2D80912B02816016
:1013D00027C0826025C0846023C0806121C08062F4
:1013E0001FC080641DC080681BC08460886018C0F6
:1013F0008E7F16C08D7F14C08B7F12C08F7E10C071
:101400008F7D0EC08F7B0CC08F770AC08B7F877F4C
:1014100007C087FB222720F991E0922790FB87F9EC
:1014200080932B0280912B020E941A1C0E94691546
:10143000ACCFC130DC4539F0C801DF91CF911F91AD
:101440000F910C94C908F801C281CC2309F465C03E
:1014500080910902C82FC095C170C0FB80F98093AC
:101460000902CC2329F080E793E00E940B088DCF7E
:101470008EE593E00E940B0850C0CC3D8CE5D80768
:1014800039F4F801C281CC2309F447C080E00DC0D3
:10149000CD3DECE5DE0760F0CD3D8CE5D80791F55C
:1014A000F801C281CC23C9F182E00E94A7286DCF48
:1014B000C631DC4509F60E941E1B282FF8018281E7
:1014C0004091000150910101882379F02A7A91E03E
:1014D00009F490E090934001911102C069E201C0CB
:1014E00065E3CA010E94BD1C0AC0809140018111C0
:1014F00002C069E201C065E3CA010E94BF1C0E94EC
:101500006A1B43CFCE3DDC4509F096CFF801C2817E
:10151000CC2319F00E94891C38CF8C2FDF91CF91FA
:101520001F910F91089580E090E00895089599E04B
:10153000799FF001112491E5899FE00DF11D11249F
:10154000E60FF11DEE0FFF1FE858FE4F85919491B5
:101550000895880F991FFC01EF5FFA4F85919491D0
:101560000895CF93DF930E94970A0E94680CEC01C4
:10157000811520E59207F0F5811530E4930708F016
:1015800024C1883E910500F5803E910508F09CC17C
:10159000883A910570F4853A910508F09FC0813032
:1015A000910509F491C108F442C1049708F08CC177
:1015B0003EC18F3B910508F49CC0803C910508F426
:1015C00036C1805C9109F4C0811540E2940758F45B
:1015D000C11581E0D80708F077C1C03FD10508F4F4
:1015E00026C1D06571C1811520E3920708F0E4C0DF
:1015F0009F70DEC0811535E5930708F044C0811562
:1016000044E5940708F0F8C0C11582E5D80708F54D
:10161000C11521E5D20708F0DBC08C2F837021E0D3
:1016200030E002C0220F331F8A95E2F73C68CE01FA
:1016300074E0969587957A95E1F78370382BCF7093
:10164000C695C69580E2C89FE0011124C22BD32B1A
:101650003BC12C2F26952695CE0183709927C11565
:10166000D34508F0BAC040E2249F90011124C1E0A4
:10167000D0E002C0CC0FDD1F8A95E2F72C2B3D2B6A
:10168000E901DC6821C1811549E59407A0F4C11581
:1016900088E5D80708F0B5C0C11526E5D20708F0DF
:1016A000C6C08C2F0E94E50C8F71C82FD0E0DC2FB4
:1016B000CC27D06209C181153AE5930708F4A6C08A
:1016C00090568115904208F0B2C08D2F8F710E9404
:1016D000E50CDD27D0628F71D82BF6C0853A9105D5
:1016E00009F4A8C0863A910509F0A7C0C2E8D0E481
:1016F000EBC0883A910509F4A3C0893A910509F431
:10170000A2C08A3A910509F4A1C08B3A910509F467
:10171000A0C08C3A910509F49FC08B3B910509F458
:101720009EC08C3B910509F49DC08D3A910509F44A
:101730009CC0803B910509F49BC08E3A910509F449
:101740009AC08F3A910509F499C0813B910509F43B
:1017500098C0823B910509F497C0833B910509F439
:1017600096C0843B910509F495C0853B910509F429
:1017700094C0863B910509F493C0873B910509F419
:1017800092C0883B910509F491C0893B910509F409
:1017900090C08D3B910509F48FC08E3B910509F4F3
:1017A0008EC08A3B910509F48DC0C0E0D4E48CC0A2
:1017B0000E94A90AEC0188C09927D3FF03C0EC015D
:1017C000D86C82C0EC01D06C7FC0DF70D06A7CC066
:1017D000DC2FCC27C16FD06A77C040E2249F9001F4
:1017E0001124C1E0D0E002C0CC0FDD1F8A95E2F7E2
:1017F000C22BD32BDA6868C0D82FCC27C46FD06A2D
:1018000063C0DC2FCC27C06FD06A5EC08F700E948F
:10181000E50C94E0D695C7959A95E1F7CF70D0E0A6
:10182000DC2FCC27D06A8F70806EC82B4DC0C0E0F3
:10183000D0E04AC0C1E8D0E447C0C3E8D0E444C027
:10184000C2EED4E441C0C9EED4E43EC0CAEED4E452
:101850003BC0C5EBD4E438C0C6EBD4E435C0C3EB21
:10186000D4E432C0C4EBD4E42FC0C7EBD4E42CC022
:10187000CCECD4E429C0CDECD4E426C0C3E8D5E454
:1018800023C0CAE8D5E420C0C2E9D5E41DC0C4E93C
:10189000D5E41AC0C1E2D6E417C0C3E2D6E414C04E
:1018A000C4E2D6E411C0C5E2D6E40EC0C6E2D6E476
:1018B0000BC0C7E2D6E408C0CFE6D4E405C0C0E759
:1018C000D4E402C0CAE2D6E4CE01DF91CF910895FC
:1018D0008238910549F1B0F48133910509F458C07B
:1018E00048F48932910509F44EC08A32910509F411
:1018F00054C008958533910509F440C0893391059A
:1019000099F00895833E910529F138F4803E9105C0
:1019100091F0823E9105A1F00895863E9105F9F07F
:10192000873E910531F1089520912B0220FD3AC0A8
:1019300021FD38C0089580912B0280FD35C032C052
:1019400080912B0282FF32C080912B0284FD30C037
:1019500083EE39C080912B0282FD28C0F5CF8091A3
:101960002B0283FF27C080912B0284FD21C087EECC
:101970002AC080912B0283FD1DC0F5CF80912B02E0
:1019800085FD1AC01BC080912B0285FD17C014C0B5
:1019900080912B0286FD14C015C080912B0286FD1C
:1019A00011C00EC080EE0FC089E30DC082EE0BC0E7
:1019B00080E009C086EE07C089E205C085E303C068
:1019C0008AE201C081E390E0089590912B0292FF9A
:1019D0000DC0282F2871283019F4877F846006C035
:1019E000282F2471243011F48B7F886093FF0DC061
:1019F000282F2871283119F4877E846106C0282F8A
:101A00002471243111F48B7E886194FD877E0895C2
:101A10000C94C6080C94C708E82FF0E0EE0FFF1FE7
:101A2000EF5BFE4F808191810895CF92DF92EF921C
:101A3000FF920F931F93CF93DF9381E195E00E9474
:101A40000B0881E4E82E81E0F82EC0E0D0E09CE0B5
:101A5000C92E95E0D92E03E015E0DF93CF93DF92F6
:101A6000CF920E94A40889E095E00E940B08F7013C
:101A7000819191917F010E94E91B9F938F931F9306
:101A80000F930E94A40881E095E00E940B08219624
:101A90008DB79EB708960FB6F8949EBF0FBE8DBF48
:101AA000C930D105D1F6DF91CF911F910F91FF90F1
:101AB000EF90DF90CF900895ACE1B1E041E050E0CD
:101AC00029E02A0F8D91E82FE295EF70F0E031A127
:101AD0008F70BA0102C0660F771F8A95E2F7CB01BB
:101AE000962F9095932391A392A1892B82A32A13D9
:101AF000E9CFA3E1B1E041E050E029E02A0F8D9168
:101B0000E82FE295EF70F0E031A18F70BA0102C0CA
:101B1000660F771F8A95E2F7CB01962F9095932356
:101B200091A392A1892B82A32A13E9CFE3E5F1E0E7
:101B3000A1E4B1E0119211921D921D9271E0E5367F
:101B4000F707C1F789E00E943E0E0C9479095F9275
:101B50006F927F928F929F92AF92BF92CF92DF92BD
:101B6000EF92FF920F931F93CF93DF930CE111E05D
:101B7000A3E5B1E0612CEE24E394F12C5D018D909E
:101B80009C90119711961C921E92E80189918E01EA
:101B9000E82FE295EF70F0E091A18F70A70101C0EE
:101BA000440F8A95EAF7892F842B81A382A1542EB2
:101BB0005094852182A3D0EADA95F1F783E1C82E0B
:101BC00081E0D82E80E090E0E60179906E01272D2B
:101BD00022952F7030E0E90168A12D913C91119779
:101BE00070E0D72DDF7002C075956795DA95E2F742
:101BF00060FD08C0B701082E02C0660F771F0A9467
:101C0000E2F702C060E070E0262B372B11963C9380
:101C10002E93019689309105B9F681A1D52DD8234F
:101C2000D1A382A1482B42A3129681E0F501208125
:101C300031818216930609F480E0682AF1E0A53626
:101C4000BF0709F09BCF262D49E061E471E083E5F1
:101C500091E00E943F0E0E948109862DDF91CF9175
:101C60001F910F91FF90EF90DF90CF90BF90AF90BA
:101C70009F908F907F906F905F9008950895FF924E
:101C80000F931F93CF93DF93F82E092F162FD72F83
:101C9000C42F222349F081E0809367010E944F1DE9
:101CA0009093660180936501809167018823D9F044
:101CB00080916501909166010E94671D069798F0DA
:101CC000EF2DF02FA12FBD2F80E090E04C2F50E0A2
:101CD0008417950734F4219131912D933D9301960A
:101CE000F7CF10926701DF91CF911F910F91FF9075
:101CF00008950F931F93CF93DF93C62FD42F022FF6
:101D0000FC0182818823C9F060936A010E944F1D03
:101D1000909369018093680180E28C0F883008F00D
:101D200050C0C77081E001C0880FCA95EAF7DF9103
:101D3000CF911F910F910C94A71210916A01161365
:101D400030C080916801909169010E94671D883CB4
:101D5000910538F5C0E2CD0F1D17B9F080E2810F73
:101D6000883040F4177081E001C0880F1A95EAF7B7
:101D70000E94AE12C83048F481E09D2F977001C0D8
:101D8000880F9A95EAF70E94A712802F0E9494125A
:101D9000C830B8F4D77081E001C0880FDA95EAF74F
:101DA0000AC080E28C0F883060F4C77081E001C007
:101DB000880FCA95EAF7DF91CF911F910F910C948C
:101DC000AE12DF91CF911F910F9108959C01CB012D
:101DD000203F4CE53407F9F078F4283DFCE53F0757
:101DE000B9F0293D4CE5340711F1273D3C4531F56B
:101DF00026E241EE61EE1EC0223FFCE53F0799F06E
:101E000070F0233F3C45D1F427E245EE66EE12C068
:101E100027E245EE0EC026E241EE60EE0BC027E25F
:101E200045EE64EE07C026E241EE62EE03C028E212
:101E300041E065EE0E94790E80E00895FC01828108
:101E4000882319F010926A01089581E00895909313
:101E5000700180936F010895E0916F01F09170011E
:101E6000309721F00190F081E02D099480E00895F1
:101E7000EF92FF920F931F93CF93DF93E0916F0147
:101E8000F09170013097B1F18C010280F381E02D67
:101E900009958091090282FF2DC080FF04C080E374
:101EA00095E00E940B08E80118E08AE2E82E85E040
:101EB000F82E8091090280FF0BC088811F928F93BA
:101EC000FF92EF920E94A4080F900F900F900F9036
:101ED000115021961111EDCF8091090280FF0AC0A7
:101EE00088E295E0DF91CF911F910F91FF90EF90E5
:101EF0000C940B08DF91CF911F910F91FF90EF9001
:101F00000895E0916F01F0917001309739F022E06F
:101F1000DC012C930480F581E02D09940895209133
:101F20006D0130916E018217930771F090936E01ED
:101F300080936D01E0916F01F0917001309721F075
:101F40000680F781E02D0994089520916B0130916E
:101F50006C018217930771F090936C0180936B0171
:101F6000E0916F01F0917001309721F00084F185CC
:101F7000E02D0994089585B7806885BF85B780688E
:101F800085BF0895089508950C94C30F08950C9487
:101F9000C60F0E94BB0F0E94C20F0C94C40F81E0B9
:101FA00008950E94461D0E945C0D0E94C81D0C945D
:101FB000C70FCF93C82F8091090282FF1EC080FFF8
:101FC00004C089E495E00E940B088091090280FF1B
:101FD0000CC01F92CF9384E495E09F938F930E944F
:101FE000A4080F900F900F900F908091090280FF2E
:101FF00004C082E495E00E940B088C2FCF910C94D2
:1020000085094F925F927F928F929F92AF92BF927B
:10201000CF92DF92EF92FF920F931F93CF93DF93B4
:10202000CDB7DEB72A970FB6F894DEBF0FBECDBF8F
:102030000E94A70D0E94CF0F811111C08FEF8983DD
:102040008A831B820E944F1D8160782F9D838C8321
:1020500049815A816B818D810E94BF1057C092E7E0
:10206000C92E91E0D92E00E010E0AA24A394B12C4F
:10207000702E802F0E940C0D4C01F6014190519062
:102080006F01482659264114510431F40F5F1F4F48
:102090000930110569F7D2CF8091090281FD0E94B4
:1020A000150D20E030E07501022E02C0EE0CFF1C81
:1020B0000A94E2F7C70184219521892B09F12E8327
:1020C0007F828E209F2091E0892809F490E09887F4
:1020D0000E944F1D8160782F9A8789874E815F818A
:1020E00068858A850E94BF10000F111FF801EE5805
:1020F000FE4F80819181E826F926F182E08206C0B8
:102100002F5F3F4F2930310571F6C0CF0E94DD1F90
:10211000109171010E942C0F1817D9F00E942C0FFA
:10212000809371012A960FB6F894DEBF0FBECDBF23
:10213000DF91CF911F910F91FF90EF90DF90CF90A3
:10214000BF90AF909F908F907F905F904F900C9436
:10215000D90F2A960FB6F894DEBF0FBECDBFDF9120
:10216000CF911F910F91FF90EF90DF90CF90BF9094
:10217000AF909F908F907F905F904F900895CF93F6
:10218000DF93CDB7DEB72B970FB6F894DEBF0FBE47
:10219000CDBF4F83588769877A878B87DE01119679
:1021A00086E0FD0111928A95E9F785E0FE013796F8
:1021B00001900D928A95E1F749815A816B817C816A
:1021C0008D819E810E9413182B960FB6F894DEBF66
:1021D0000FBECDBFDF91CF910895FC018081918129
:1021E0000E94DF1A0895CF93DF931F92CDB7DEB719
:1021F000882309F42DC1682F8238C1F40E942C0F66
:1022000081FD26C169E380910001909101010E9446
:10221000BD1C0E946A1B2FEF81EE94E0215080408C
:102220009040E1F700C0000069E319C0833811F560
:102230000E942C0F80FD0CC163E5809100019091FC
:1022400001010E94BD1C0E946A1B2FEF81EE94E0E9
:10225000215080409040E1F700C0000063E580918C
:102260000001909101010E94BF1C0F90DF91CF915E
:102270000C946A1B8438C1F40E942C0F82FDE8C0C4
:1022800067E480910001909101010E94BD1C0E94B1
:102290006A1B2FEF81EE94E0215080409040E1F7DF
:1022A00000C0000067E4DBCF8CEF860F813A70F44A
:1022B000862F69830E944A2469818111C9C0809157
:1022C0000001909101010E94BD1CCFCF80E2860FDA
:1022D000883048F4677081E001C0880F6A95EAF79A
:1022E0000E94211BC2CF8BE5860F833088F4653AAC
:1022F00029F0663A31F083E890E005C081E890E08B
:1023000002C082E890E00F90DF91CF910C948F0F84
:1023100088E5860F873108F091C0683A09F445C016
:10232000693A09F445C06A3A09F445C06B3A09F4C0
:1023300045C06C3A09F445C06B3B09F445C06C3BA1
:1023400009F445C06D3A09F445C0603B09F445C045
:102350006E3A09F445C06F3A09F445C0613B09F48F
:1023600045C0623B09F445C0633B09F445C0643B8A
:1023700009F445C0653B09F445C0663B09F445C016
:10238000673B09F445C0683B09F445C0693B09F463
:1023900045C06D3B09F445C06E3B09F445C06A3B3E
:1023A00009F445C080E090E044C082EE90E041C076
:1023B00089EE90E03EC08AEE90E03BC085EB90E075
:1023C00038C086EB90E035C083EB90E032C084EB00
:1023D00090E02FC087EB90E02CC08CEC90E029C0FF
:1023E0008DEC90E026C083E891E023C08AE891E07C
:1023F00020C082E991E01DC084E991E01AC081E229
:1024000092E017C083E292E014C084E292E011C02F
:1024100085E292E00EC086E292E00BC087E292E095
:1024200008C08FE690E005C080E790E002C08AE235
:1024300092E00F90DF91CF910C94A50F603F40F098
:10244000862F0E94631E0F90DF91CF910C94501F36
:102450000F90DF91CF910895882309F464C08238EA
:1024600079F40E942C0F81FF5EC069E38091000126
:10247000909101010E94BD1C0E946A1B69E310C07B
:102480008338B1F40E942C0F80FF4DC063E580912A
:102490000001909101010E94BD1C0E946A1B63E52E
:1024A00080910001909101010E94BF1C0C946A1B55
:1024B000843879F40E942C0F82FF35C067E4809144
:1024C0000001909101010E94BD1C0E946A1B67E4FB
:1024D000E7CF9CEF980F913A10F4682FE1CF90E28C
:1024E000980F983050F4877091E001C0990F8A9549
:1024F000EAF7892F0E94271BD9CF9BE5980F9330CD
:1025000020F480E090E00C948F0F98E5980F9731BD
:1025100020F480E090E00C94A50F803F20F00E9412
:10252000CB1E0C94501F0895CF93C82F0E94F31018
:10253000C93349F42FEF87EE93E02150804090405B
:10254000E1F700C000008C2FCF910C942C1288234F
:1025500021F00E94211B0C946A1B0895882321F00E
:102560000E94271B0C946A1B08954F925F926F92F2
:102570007F92BF92CF92DF92EF92FF920F931F93C1
:10258000CF93DF937C01062FC72FFC011581129595
:102590001F70D281D1110E943E1B0E94171B8823FD
:1025A00079F0DD2369F080E2800F883048F082E026
:1025B0000E94B51B0E94171B91E0B82EB92601C0DE
:1025C000B12CCC2EC2948FE0C822D12CF601E85950
:1025D000FF4F0C948F2D8C2F807FCF70882311F0AC
:1025E000C295C07FDD2399F0CC2309F4CEC180E2EF
:1025F000800F883010F0011104C08C2F0E94211B25
:1026000003C08C2F0E94311B0E946A1BBEC1802F09
:102610000E942C12CC2309F4DDC180E2800F8830A7
:1026200010F0011104C08C2F0E94271B03C08C2FB7
:102630000E94371B0E946A1BCDC18C2F807FCF70F8
:10264000803211F0C295C07F002319F00130C9F02B
:1026500022C0DD2371F0112341F0113031F40E94CA
:10266000511B8C2B0E94571BB5C10E94511B8C2BF8
:1026700045C1112319F0113009F4ACC10E94601B4F
:1026800023C0DD2321F0163008F0A4C10EC01530A0
:1026900008F0A0C119C0DD2351F0112331F0F7017A
:1026A000858180FF72C18F7085838C2F27C1112394
:1026B00059F0093309F07AC1FFEF27EE83E0F150BA
:1026C00020408040E1F770C18C2F1EC18C2F869571
:1026D0008695837090E0009719F0019761F07AC1B8
:1026E000DD2321F0802F9C2F937002C080E090E0CA
:1026F0000E948F0F7FC1DD2321F0802F9C2F9370CC
:1027000002C080E090E00E94A50F74C1DD23F9F0C3
:10271000053F51F0063F71F0043FA9F48091250276
:102720009091260281600BC0809125029091260233
:10273000826005C08091250290912602846090936A
:10274000260280932502802F0E94631E1EC0053F33
:1027500051F0063F71F0043FA9F480912502909159
:1027600026028E7F0BC080912502909126028D7FDC
:1027700005C080912502909126028B7F90932602BE
:1027800080932502802F0E94CB1E0E94501F32C1D1
:102790008C2F837009F04BC0D11128C1202F2295B6
:1027A00026952770220F220F602F6F70862F90E0E2
:1027B000A0E0B0E02C013D01022E04C0440C551CE9
:1027C000661C771C0A94D2F704FF10C08FE090E0DB
:1027D000A0E0B0E004C0880F991FAA1FBB1F2A9574
:1027E000D2F780959095A095B09503C080E090E0D9
:1027F000DC01C695C695C370D0E0BC01CD0164294B
:10280000752986299729C230D10559F0C330D105E1
:1028100059F0219719F00E945819E8C00E944619F2
:10282000E5C00E946A19E2C00E944419DFC0DD239E
:1028300019F08C2F817001C08695882309F4D6C0C9
:10284000202F229526952770220F220F602F6F7060
:10285000862F90E0A0E0B0E02C013D01022E04C0E4
:10286000440C551C661C771C0A94D2F704FF10C058
:102870008FE090E0A0E0B0E004C0880F991FAA1F8D
:10288000BB1F2A95D2F780959095A095B09503C06F
:1028900080E090E0DC01C695C695C370D0E0BC0135
:1028A000CD016429752986299729C230D10559F0AF
:1028B000C330D10559F0219719F00E941E1A96C015
:1028C0000E940C1A93C00E94301A90C00E947F1977
:1028D0008DC0802F90E0FC01E05EF109E531F1054B
:1028E00008F04FC0E858FF4F0C948F2D0F708C2FBD
:1028F0008F71DD2331F00E94A519802F0E94A7124D
:1029000069C00E94C619802F0E94AE1263C0DD23E9
:1029100041F0153008F05EC08C2F8F710E94EB19CA
:1029200059C0163008F056C0F7CFDD2339F08C2F90
:102930008F710E94A5194EC0DD23C9F38C2F8F71B2
:102940000E94C61947C0DD2329F08C2F8F710E9489
:10295000901940C00E948B193DC0DD2349F0CF7112
:102960008C2F0E94A51963E08C2F0E94A01B32C0FF
:1029700081E00E94B51B123068F182E00E94B51B15
:1029800029C0DD2331F0112391F2802F0E94F31032
:1029900021C0112399F2093349F49FEFE7EEF3E0E8
:1029A0009150E040F040E1F700C00000802F0E940D
:1029B0002C1210C04C2F4F70602FC7010E94930A39
:1029C0000E94B71817C04C2F4F70602FC7010E948C
:1029D000960A10C028E0C216D10441F05CF09AE0DB
:1029E000C91AD108E2E0CE16D10420F40E942C0FBF
:1029F0000E948509BB20F1F00E94131B80FD1AC0C4
:102A0000F70112820E940D1B0E94A519C7010E94A6
:102A100028150E940D1BDF91CF911F910F91FF9000
:102A2000EF90DF90CF90BF907F906F905F904F902E
:102A30000C94C619DF91CF911F910F91FF90EF90E9
:102A4000DF90CF90BF907F906F905F904F900895F0
:102A50000F931F93CF93DF93EC01888199812B8192
:102A60003C81232BB9F09F3F11F48F3F99F0CE01A9
:102A70000E949D09882371F0688179818A810E9472
:102A8000EA1A8C010E94421A0E944319B801CE0131
:102A90000E94B512DF91CF911F910F9108950E946E
:102AA0003E1B0E944E1B0E946A1B0E9478200E94BF
:102AB000501F80E090E00E948F0F80E090E00C9427
:102AC000A50F80910001909101010E94C11C0C94FE
:102AD0004F150E942E1B0C946115E92FE295EF70A3
:102AE000F0E03297EE30F105B0F4E357FF4F0C946D
:102AF0008F2D803F91F018F4803E68F40EC0843F23
:102B000051F40BC0803E48F0813F29F406C093FB8E
:102B1000882780F9089580E0089581E008950E9453
:102B2000DF1A0E946D150895CF93DF9300D000D077
:102B30001F92CDB7DEB70F900F900F900F900F90B0
:102B4000DF91CF910895CF93DF9300D000D000D0D4
:102B5000CDB7DEB726960FB6F894DEBF0FBECDBF59
:102B6000DF91CF9108951F93CF93DF93C09185019B
:102B700016E080918601C81799F0D0E01C9FF00103
:102B80001D9FF00D1124E957FE4F40815181628154
:102B90007381848195810E94A3152196C770E9CF26
:102BA000DF91CF911F9108954091B7015091B801E5
:102BB0006091B9017091BA018091BB019091BC0103
:102BC0000C94A3158091BC0182958F7009F054C0BC
:102BD0008091B901882309F44FC080918501A091AB
:102BE00086016091B7017091B8014091BA0150918E
:102BF000BB01B6E08A1709F43FC090E041155105CA
:102C0000C1F17F3F11F46F3FA1F1B89FF001B99F6F
:102C1000F00D1124E957FE4F218172132AC0208143
:102C2000621327C02281211124C0238134812417FB
:102C3000350710F421503109241B350B283C310590
:102C4000C0F42091BC012F7020612093BC0126E0CC
:102C5000289FF001299FF00D1124E457FE4F808139
:102C60008F708061808387EB91E00E9428150C941F
:102C7000B31501968770BECF0895CF92DF92EF9281
:102C8000FF920F931F93CF93DF93CDB7DEB7629779
:102C90000FB6F894DEBF0FBECDBF8C0185E0F80102
:102CA000DE011D9601900D928A95E1F7D8014C91B5
:102CB00011965C91119712966C9112971396CD9084
:102CC000DC9014973091B7017091B8018091BA01EE
:102CD0009091BB01009709F46BC17F3F19F43F3F0E
:102CE00009F466C1E090B901EE2009F4C0C020915A
:102CF000BC01C816D90628F0F601E81BF90BCF0174
:102D000004C0809590958C0D9D1DFF24F394883C04
:102D1000910578F0F12C207F09F0C6C07C2DD98A6E
:102D2000C88A89890E94941587EB91E00E94281532
:102D3000B1C0822F807F09F046C0751314C03413D0
:102D400012C0611110C02F7020612093BC010E943D
:102D5000D41587EB91E00E9428158091BC01D80121
:102D600015968C932EC0CD2819F15F3F11F44F3F7B
:102D7000F9F0F62E61111CC0809185012091860129
:102D800036E0821709F45AC090E0389FF001399F6D
:102D9000F00D1124E957FE4F7181571306C0708161
:102DA000471303C07281711103C001968770E9CF88
:102DB000F62E662309F427C18091BC0181608093BF
:102DC000BC01F12C20C1751308C0341306C0611179
:102DD00004C08091BC01D801C3C04D875E878D853A
:102DE0009E856A8B0E948F156A898823E1F166238C
:102DF000D1F12091BC01822F82958F7090E00297D3
:102E000074F08091B7019091B80198878F831986EB
:102E1000DB86CA862C87CE0107960E94281586E09D
:102E2000F801A7EBB1E001900D928A95E1F70E94BD
:102E3000E2150E94D415FF24F394E5C04D875E8708
:102E40008D859E850E94DF1A292F22952F7030E0F4
:102E5000223031050CF0CBC09F7009F0C5C0805EF8
:102E6000883008F4D0C0C8010E942815E4CFC816E5
:102E7000D90608F453C0F601E81BF90BCF01883CD2
:102E8000910508F450C0F12C7C2DD98AC88A898913
:102E90000E949415E7EBF1E086E0DF011D928A9530
:102EA000E9F70E94D415AFC0751314C0341312C0D3
:102EB000611110C08091BC01F8018583C8010E9496
:102EC000281586E0E7EBF1E0DF011D928A95E9F72E
:102ED000FE2C99C04D875E878D859E856A8B0E94EA
:102EE0008F156A89882309F4BECF662309F4BBCF06
:102EF0002091BC01822F82958F7090E002970CF494
:102F00008ECF8091B7019091B8019A8389831B82FB
:102F1000DD82CC822E83CE0101967FCF8095909565
:102F20008C0D9D1DACCFF62E662309F49CCF751336
:102F30002EC034132CC02091BC0120FD1FC0822F55
:102F400082958F70D9F0D80115962C9315978F30F4
:102F500049F08F5F982F9295907F822F8F70892BE9
:102F600015968C93C8010E94281586E0F801A7EBFE
:102F7000B1E001900D928A95E1F793CF86E0F801D8
:102F8000A7EBB1E001900D928A95E1F73CC04D8727
:102F90005E878D859E850E948F15811140CF80911F
:102FA000BC0181608093BC01C8010E9428152BC020
:102FB000662309F458CF4D875E878D859E850E94D4
:102FC0008F15F82E882309F44ECF86E0F801A7EB81
:102FD000B1E001900D928A95E1F787EB91E00E94B4
:102FE000ED100E94E2155DCF811139CF0CC0243065
:102FF00031050CF038CF9F7009F431CFF80195817D
:10300000907F09F02CCF8F2D62960FB6F894DEBF1B
:103010000FBECDBFDF91CF911F910F91FF90EF9029
:10302000DF90CF9008951F93CF93DF93CDB7DEB796
:103030002C970FB6F894DEBF0FBECDBF4F835887D5
:1030400069877A878B879C87CE0107960E943D16F9
:10305000882369F08F8198852A853B85232BF1F1A0
:103060009F3F09F063C08F3F09F060C037C086E022
:10307000FE013796DE01119601900D928A95E1F7D7
:103080006F817885EA85FB85309741F17F3F11F4A8
:103090006F3F21F12091860130E0C90101968770D0
:1030A00099274091850150E08417950709F447C09E
:1030B00069837A83FD83EC8396E0929FD001939F8E
:1030C000B00D1124A957BE4FFE01319601900D920B
:1030D0009A95E1F7809386010E94B31516E08091DE
:1030E0008501909186018917C1F1189FC0011124B3
:1030F00089579E4F0E943D16882379F1E091850102
:103100001E9FF0011124E957FE4F408151816281D9
:103110007381848195810E94A3158091850190E03F
:1031200001968770992780938501D9CF4F81588563
:1031300069857A858B859C850E94A315CFCF0E94D7
:1031400069151092860110928501E7EBF1E086E0A7
:10315000DF011D928A95E9F7C1CF2C960FB6F8943E
:10316000DEBF0FBECDBFDF91CF911F910895EF92CB
:10317000FF920F931F93CF93DF938C01892B09F458
:103180006CC0F12CEE24E394E8012196F8018491BF
:10319000843740F4843008F051C0813081F08230AF
:1031A00019F15BC0853709F444C0A8F19CE7980F7A
:1031B000903708F052C08F770E942C1241C00E5FEA
:1031C0001F4FFE01C49180E28C0F883048F4C77015
:1031D0008E2D01C0880FCA95EAF70E94411B14C0CA
:1031E0008C2F0E94F3102DC00E5F1F4FFE01C49163
:1031F00080E28C0F883058F4C7708E2D01C0880F84
:10320000CA95EAF70E94471B0E946A1B1AC08C2FBE
:103210000E942C1216C00E5F1F4FFE01C491CC23DA
:1032200081F08FE99FE00197F1F700C00000C150E5
:10323000F6CF0E5F1F4FFE01F49003C00E94F31003
:103240008E018F2D882309F49FCFEFE9FFE031979E
:10325000F1F700C000008150F5CFDF91CF911F91B1
:103260000F91FF90EF90089508950C9434190E94E7
:1032700035196093F8017093F9018093FA019093E6
:10328000FB010C944F1508950C9437190F931F935D
:103290000091F8011091F9012091FA013091FB01A0
:1032A000602B712B822B932B1F910F910C9437194C
:1032B0000F931F930091F8011091F9012091FA01E9
:1032C0003091FB0160237123822393231F910F917F
:1032D0000C9437190F931F930091F8011091F90185
:1032E0002091FA013091FB016027712782279327F3
:1032F0001F910F910C94371908950C947C190E941A
:103300007D196093F4017093F5018093F601909319
:10331000F7010C944F1560E070E0CB010C947F191D
:103320000F931F9341E050E060E070E08A019B0141
:1033300004C0000F111F221F331F8A95D2F7C90145
:10334000B8011F910F910C947F190F931F9341E0C7
:1033500050E060E070E004C0440F551F661F771F07
:103360008A95D2F78091F4019091F501A091F60130
:10337000B091F7018A019B01082B192B2A2B3B2BBB
:10338000C901B8011F910F910C947F190F931F93DE
:1033900041E050E060E070E004C0440F551F661F3C
:1033A000771F8A95D2F740955095609570958091DA
:1033B000F4019091F501A091F601B091F7018A0115
:1033C0009B01082319232A233B23C901B8011F911C
:1033D0000F910C947F190F931F9341E050E060E030
:1033E00070E004C0440F551F661F771F8A95D2F7FF
:1033F0008091F4019091F501A091F601B091F7014F
:103400008A019B01082719272A273B27C901B801F0
:103410001F910F910C947F190F931F930091F4014A
:103420001091F5012091F6013091F701602B712B7D
:10343000822B932B1F910F910C947F190F931F9345
:103440000091F4011091F5012091F6013091F701FE
:1034500060237123822393231F910F910C947F1972
:103460000F931F930091F4011091F5012091F60143
:103470003091F70160277127822793271F910F91C1
:103480000C947F19089529E0929F800D1124A82F94
:10349000A695A695A695877051E001C0550F8A950F
:1034A000EAF785E0A89FD001112420E030E070E029
:1034B000F901EA0FFB1FE354FE4F4081CB01022EBE
:1034C00002C0969587950A94E2F7817099278195B5
:1034D00084278523842780832F5F3F4F2530310544
:1034E00039F7089529E0929F800D1124682F669581
:1034F00066956695982F977085E0689FB0011124B6
:1035000040E050E080E0FA01E60FF71FE354FE4F81
:10351000208130E0092E02C0369527950A94E2F703
:1035200021703327042E01C0220F0A94EAF7822B60
:103530004F5F5F4F4530510531F70895BF92CF92ED
:10354000DF92EF92FF920F931F93CF93DF938C0143
:10355000C090F801D090F901E090FA01F090FB01E1
:103560008091F4019091F501A091F601B091F701DD
:10357000C82AD92AEA2AFB2ACFE1D0E0D701C6011E
:103580000C2E04C0B695A795979587950A94D2F707
:1035900080FF07C0BC2EB8018C2F0E94B10A019792
:1035A00019F4219758F7B12C8B2DDF91CF911F91F2
:1035B0000F91FF90EF90DF90CF90BF900895CF9341
:1035C000DF93EC010E949E1ABE010E94B10ADF91B6
:1035D000CF9108951F93CF93DF93EB0190918401D6
:1035E000992321F0CB010E94DF1A13C0882349F0F0
:1035F000CB010E949E1A182F682FCE010E94431AF9
:1036000004C0CB010E94721A182FBE01812F0E94A4
:10361000B10ADF91CF911F9108958091FC018595AA
:103620008595859508958091FC0187700895909106
:10363000FC01977081E009F480E008958091080210
:10364000089590910802892B80930802089580952F
:10365000909108028923809308020895109208022D
:10366000089590910702892B809307020895809511
:103670009091070289238093070208951092070210
:10368000089590910602892B8093060208958095F3
:1036900090910602892380930602089510920602F3
:1036A00008958091FD01089508950C94541B909104
:1036B000FD01981721F08093FD010C94551B08958E
:1036C0008091FD01882329F01092FD0180E00C9487
:1036D000551B0895E0910001F091010180910802CD
:1036E0008083E0910001F0910101908180910702B7
:1036F000892B8083E0910001F091010190818091FC
:103700000602892B80838091FD01882381F0E0915E
:103710000001F09101019081892B8083809100014B
:10372000909101010E948B1C81110E94601B80916D
:103730000001909101010C94380F08950C949D1B89
:1037400098E0899F90011124262B2093FC010E9470
:10375000A5198091FC018595859585950C949E1BF6
:103760001092FC0180E00C949E1B2091FC0180953E
:1037700082238093FC01982F977079F430E0482FD2
:10378000082E000C550B2417350739F085958595C3
:1037900085950E94C6190C94B01B089590933F0123
:1037A00080933E0108958295982F9C7C392F369501
:1037B0003695282F237344E0249FC0011124932FB2
:1037C000982B292F2A7A2695892F8575880F822B89
:1037D00008951F93CF93DF931F92CDB7DEB79983E0
:1037E0000E94D31B182F9981892F0E94D31B212F50
:1037F00030E0322F2227A901482BCA010F90DF9118
:10380000CF911F91089580E090E00E94B12D21E0BA
:103810008D3E9E4F09F020E0822F089582E090E0D7
:103820000C94A92D83E090E00C94A92D84E090E005
:103830000C94A92D682F84E090E00C94B72DAB0177
:10384000BC018FE090E00C94C92DAB01BC0183E179
:1038500090E00C94C92D60E070E0CB010C94251C25
:1038600060E070E0CB010E941F1C0C942B1C6DEEDD
:103870007EEF80E090E00E94D52D60E082E090E055
:103880000E94B72D60E083E090E00E94B72D109277
:10389000F8011092F9011092FA011092FB0160E018
:1038A00084E090E00E94B72D60E085E090E00E9407
:1038B000B72D60E086E090E00E94B72D6FEF87E0C3
:1038C00090E00E94B72D40E050E0BA0188E090E01F
:1038D0000E94C92D60E08DE090E00E94B72D40E08D
:1038E00050E0BA0188E190E00E94C92D60E087E1D4
:1038F00090E00E94B72D40E050E0BA018CE190E0EA
:103900000E94C92D60E080E290E00E94B72D0C94E7
:10391000301C0C94371CFC01329697E080E09150EB
:1039200029F021912223D9F38F5FF9CF08959C01CB
:10393000FC0132969FEF80E04191461789F09F3F4E
:1039400019F4411101C0982F8F5F8630A9F79F3F6E
:1039500039F0F901E90FF11D97FDFA956283089599
:103960000895FC01329608962081261301C010822A
:103970003196E817F907C1F708950C94971C0C9439
:10398000B11C029626E0FC0111922A95E9F70895F0
:1039900008950C94C81C0E94C91C80913102843087
:1039A00049F110920A0220E488E190E00FB6F89401
:1039B000A895809360000FBE2093600080E00E9475
:1039C00085090E94C91C83B7817F846083BF83B748
:1039D000816083BF7894889583B78E7F83BF0FB64D
:1039E000F894A8958091600088618093600010929F
:1039F00060000FBE089508950895CF930E94FB1CA8
:103A00000E94A70D0E94FC1CC0E08C2F0E940C0D90
:103A1000892B29F4CF5FC930C1F780E001C081E074
:103A2000CF91089508950C94121D0E9469150E946B
:103A30002C0F0E9485090C94131D1F920F920FB634
:103A40000F9211248F939F93AF93BF9380910A029B
:103A5000811113C08091270290912802A091290220
:103A6000B0912A024196A11DB11D80932702909327
:103A70002802A0932902B0932A02BF91AF919F918F
:103A80008F910F900FBE0F901F90189582E084BD0C
:103A900093E095BD9AEF97BD80936E0008952FB780
:103AA000F8948091270290912802A0912902B09168
:103AB0002A022FBF08952FB7F894609127027091C2
:103AC00028028091290290912A022FBF0895CF9257
:103AD000DF92EF92FF920F931F932FB7F8944091CC
:103AE0002702509128026091290270912A022FBF6B
:103AF0006A017B01EE24FF248C0120E030E0C01637
:103B0000D106E206F30610F4415051099A01281B30
:103B1000390BC9011F910F91FF90EF90DF90CF906B
:103B2000089578941F920F920FB60F9211248F93DD
:103B30009F93AF93BF938091270290912802A09109
:103B40002902B0912A020196A11DB11D809327027E
:103B500090932802A0932902B0932A02BF91AF91BB
:103B60009F918F910F900FBE0F901F90189587E730
:103B700097E790930108809300089AE088E10FB6D8
:103B8000F894A895809360000FBE90936000FFCFDB
:103B90000E94031C811102C00E94891C0E940E1CFD
:103BA000809309020E94161C90E090932C0280934F
:103BB0002B020E94121C682F70E080E090E00C94B1
:103BC000441980910E0280FF0BC06091050185E0D1
:103BD000689FB001112475956795759567952BC001
:103BE00081FF09C06091050185E0689FB001112443
:103BF0007595679520C082FF07C06091050185E03B
:103C0000689FB001112417C090910D029923D1F043
:103C100060910401961788F72091050185E0289F9F
:103C200090011124929FA001939F500D112470E0E8
:103C3000CA010E947B2D6038710540F46115710541
:103C400039F002C065E070E0862F08958FE708958F
:103C500081E0089580910E0280FF08C06091030109
:103C600070E0759567957595679521C081FF06C0D1
:103C70006091030170E07595679519C082FF04C0DB
:103C80006091030170E010C090910D029923C1F082
:103C9000609102019617A0F780910301899FC001EE
:103CA000112470E00E947B2D6038710528F46115A5
:103CB000710521F0862F08958FE7089581E008951A
:103CC00061E070E0F4CF803F21F40E94E11D819516
:103CD00004C0813F29F40E94E11D809312020895DF
:103CE000823F21F40E94E11D819504C0833F29F4A5
:103CF0000E94E11D809311020895893F19F40E94EA
:103D00002A1E05C08A3F31F40E942A1E81958093A5
:103D1000130208958B3F21F40E942A1E819504C04E
:103D20008C3F29F40E942A1E809314020895843F38
:103D300021F480911002816017C0853F21F48091A9
:103D40001002826011C0863F21F4809110028460CD
:103D50000BC0873F21F480911002886005C0883F26
:103D600031F48091100280618093100208958D3F9C
:103D700021F480910E0281600BC08E3F21F480916E
:103D80000E02826005C08F3F29F480910E0284608C
:103D900080930E020895803F39F48091120287FFCC
:103DA0006CC01092120269C0813F29F48091120206
:103DB0001816BCF362C090911102823F29F497FF5C
:103DC0005CC01092110259C0833F19F41916CCF34C
:103DD00054C0893F41F48091130218160CF04DC075
:103DE000109213024AC08A3F29F48091130287FF80
:103DF00044C0F6CF8B3F39F48091140287FF3DC059
:103E0000109214023AC08C3F29F4809114021816C3
:103E1000BCF333C0843F21F4809110028E7F17C021
:103E2000853F21F4809110028D7F11C0863F21F4DF
:103E3000809110028B7F0BC0873F21F4809110028C
:103E4000877F05C0883F31F4809110028F7E809378
:103E5000100213C08D3F21F480910E028E7F0BC0A3
:103E60008E3F21F480910E028D7F05C08F3F29F493
:103E700080910E028B7F80930E028091110281113E
:103E80000EC08091120281110AC08091130281112B
:103E900006C080911402811102C010920D02089593
:103EA0008091090283FF7EC083E895E00E940B08A1
:103EB000809110021F928F938EE795E09F938F93CE
:103EC0000E94A4088CE795E00E940B0880911102E3
:103ED000282F082E000C330B3F938F9389E795E032
:103EE0009F938F930E94A40887E795E00E940B0898
:103EF00080911202282F082E000C330B3F938F93D2
:103F000084E795E09F938F930E94A40882E795E051
:103F10000E940B0880911302282F082E000C330BEF
:103F20003F938F938FE695E09F938F930E94A40811
:103F30008DE695E00E940B0880911402282F082E30
:103F4000000C330B3F938F938AE695E09F938F93FA
:103F50000E94A40887E695E00E940B0880910D025C
:103F60001F928F9384E695E09F938F930E94A408FD
:103F700082E695E00E940B0880910E021F928F93BB
:103F80008FE595E09F938F930E94A4088CE595E0C0
:103F90000E940B088DB79EB74C960FB6F8949EBF43
:103FA0000FBE8DBF8FE092E00E94810F0E944F1DD7
:103FB00090930C0280930B0208951F93CF93DF938D
:103FC00080910B0290910C020E94671DAC019091B0
:103FD0000D02992321F02091060130E006C02091C6
:103FE00007018AE0289F900111244217530708F423
:103FF0007BC080911102C0911202D09113021091E6
:104000001402811107C0C1116BC0D11169C0111117
:1040100067C06AC09F3F19F09F5F90930D0218160A
:1040200024F40E94E11D809311028091110287FF08
:1040300005C00E94E11D8195809311021C1624F495
:104040000E94E11D809312028091120287FF05C039
:104050000E94E11D81958093120230911102332359
:10406000E1F0209112022223C1F045EB3403C0019C
:104070001124892F990F990B009709F481E08093FF
:10408000110235EB2303C0011124892F990F990BDD
:10409000009709F481E0809312021D1624F40E9417
:1040A0002A1E809313028091130287FF05C00E948D
:1040B0002A1E819580931302111624F40E942A1E51
:1040C000809314028091140287FF05C00E942A1E6B
:1040D000819580931402DF91CF911F910C94501F12
:1040E0009F3F09F099CFA1CFDF91CF911F91089504
:1040F000EFE0F2E086E0DF011D928A95E9F7109289
:104100000D0210920E02089586EA97E00E940B08B5
:104110001F9281E08F931F9285E08F9388E597E04F
:104120009F938F930E94A4080F900F900F900F9071
:104130000F900F9008958330E9F128F4813061F0F9
:10414000823009F10895853009F462C008F449C04D
:10415000863009F474C0089580910701262F30E05D
:10416000280F311D2F3F310524F4680F609307019C
:1041700003C08FEF80930701809107011F928F93F7
:1041800081E996E072C080910601262F30E0280F69
:10419000311D2F3F310524F4680F6093060103C0E1
:1041A0008FEF80930601809106011F928F938FE716
:1041B00096E05BC080910501262F30E0280F311D6D
:1041C0002F3F310524F4680F6093050103C08FEF82
:1041D00080930501809105011F928F938CE696E0F4
:1041E00044C080910401262F30E0280F311D2F3F5D
:1041F000310524F4680F6093040103C08FEF8093AE
:104200000401809104011F928F9387E596E02DC0F1
:1042100080910301262F30E0280F311D2F3F3105FB
:1042200024F4680F6093030103C08FEF80930301B0
:10423000809103011F928F938EE396E016C08091C8
:104240000201262F30E0280F311D2F3F310524F4C5
:10425000680F6093020103C08FEF80930201809189
:1042600002011F928F9383E296E09F938F930E94A7
:10427000A4080F900F900F900F900895833081F154
:1042800028F4813059F08230D1F00895853009F456
:1042900049C0B8F1863009F456C0089580910701ED
:1042A000681720F4861B8093070102C01092070153
:1042B000809107011F928F9384E196E054C0809112
:1042C0000601681720F4861B8093060102C0109235
:1042D0000601809106011F928F9382E096E043C011
:1042E00080910501681720F4861B8093050102C0A8
:1042F00010920501809105011F928F938FEE95E03A
:1043000032C080910401681720F4861B8093040159
:1043100002C010920401809104011F928F938AEDD4
:1043200095E021C080910301681720F4861B8093DB
:10433000030102C010920301809103011F928F9329
:1043400081EC95E010C080910201681720F4861B73
:104350008093020102C010920201809102011F921B
:104360008F9386EA95E09F938F930E94A4080F9005
:104370000F900F900F900895CF93C82F1F928F9397
:104380008BEA98E09F938F930E94A40881E090E0CD
:10439000A0E0B0E0BC01CD0104C0660F771F881F0C
:1043A000991FCA95D2F70E9444190F900F900F9051
:1043B0000F90CF910C946915CF938B3109F4D1C133
:1043C00008F067C18B3009F48AC108F03DC186301E
:1043D00009F488C120F4853009F496C144C28730BD
:1043E00009F4A4C1883009F03EC280EB9DE00E9430
:1043F0000B0881E09DE00E940B080E94121C1F9296
:104400008F938EEF9CE09F938F930E94A4088CEF74
:104410009CE00E940B080E940E1CC82F89EE9CE0B5
:104420000E940B081F92CF9384EE9CE09F938F9382
:104430000E94A40882EE9CE00E940B0888ED9CE09C
:104440000E940B088C2F81701F928F9385ED9CE04A
:104450009F938F930E94A40883ED9CE00E940B0819
:1044600089EC9CE00E940B08C1FB882780F91F9211
:104470008F9386EC9CE09F938F930E94A40884EC1A
:104480009CE00E940B0888EB9CE00E940B08C2FB9A
:10449000882780F91F928F9385EB9CE09F938F93E1
:1044A0000E94A40883EB9CE00E940B088AEA9CE02F
:1044B0000E940B08C3FBCC27C0F91F92CF9387EA59
:1044C0009CE09F938F930E94A40885EA9CE00E9441
:1044D0000B080E94161CC82F81E99CE00E940B0863
:1044E0001F92CF938CE89CE09F938F930E94A40827
:1044F0008AE89CE00E940B0881E79CE00E940B0880
:104500008C2F81701F928F938EE69CE09F938F93E8
:104510000E94A4088DB79EB780960FB6F8949EBFF0
:104520000FBE8DBF8CE69CE00E940B0885E59CE0E9
:104530000E940B08C1FB882780F91F928F9382E5A8
:104540009CE09F938F930E94A40880E59CE00E94CA
:104550000B088EE39CE00E940B08C2FB882780F9C1
:104560001F928F938BE39CE09F938F930E94A408EC
:1045700089E39CE00E940B0887E29CE00E940B0804
:10458000C3FB882780F91F928F9384E29CE09F935E
:104590008F930E94A40882E29CE00E940B0888E1AD
:1045A0009CE00E940B08C4FB882780F91F928F9320
:1045B00085E19CE09F938F930E94A40883E19CE097
:1045C0000E940B0881E09CE00E940B08C5FB882735
:1045D00080F91F928F938EEF9BE09F938F930E94A1
:1045E000A4088CEF9BE00E940B0880EE9BE00E94E9
:1045F0000B08C6FB882780F91F928F938DED9BE0F7
:104600009F938F930E94A4088BED9BE00E940B0860
:1046100083ED9BE00E940B08C7FBCC27C0F91F92DB
:10462000CF9380ED9BE09F938F930E94A4088EEC24
:104630009BE00E940B088DB79EB74C960FB6F8947E
:104640009EBF0FBE8DBF49C0803109F4B4C020F4B5
:104650008E3009F49AC007C1863109F4C7C0893188
:1046600009F001C185EF99E00E940B088CED99E0FB
:104670000E940B0882EA99E00E940B088AE799E001
:104680000E940B0884E499E00E940B0889E199E0FC
:104690008FC08A32E1F060F4873209F4E0C028F478
:1046A0008E3108F4E0C08D51DBC0893269F1DBC086
:1046B000833448F48A3308F0D0C0853309F4CFC07E
:1046C000883369F0D0C0833409F4C9C0CCC08FE905
:1046D0009DE00E940B080E94891CC1E0C9C08BE2CA
:1046E0009AE066C080910902817F8E7F80930902E3
:1046F00084E09AE00E940B088BE99DE00E940B0881
:1047000081E080931602E9CF0E9469158FE79DE052
:104710000E940B089FEF23ED80E3915020408040E2
:10472000E1F700C000000E94B71DD7CF80910902B9
:10473000C82FC095C170C0FB80F980930902CC23BB
:1047400029F083E79DE00E940B0892C086E69DE079
:104750000E940B0880910902897F877F809309025C
:10476000BCCF9091090291FBCC27C0F981E0C8270A
:10477000892FC0FB81F980930902CC2319F089E5C8
:104780009DE029C08BE49DE013C09091090292FB4B
:10479000CC27C0F981E0C827892FC0FB82F980931C
:1047A0000902CC2319F08CE39DE015C08CE29DE05A
:1047B0000E940B0892CF9091090293FBCC27C0F97D
:1047C00081E0C827892FC0FB83F980930902CC239D
:1047D00051F080E29DE00E940B0880910902816007
:1047E0008093090245C083E19DE0E2CF8BE099E030
:1047F0000E940B080E942C0F1F928F9381EF98E06C
:104800009F938F930E94A408809112011F928F930F
:104810008AED98E09F938F930E94A40880912302D1
:104820001F928F9387EC98E09F938F930E94A40828
:104830000E945B1D9F938F937F936F9380EB98E013
:104840009F938F930E94A4088DB79EB742960FB690
:10485000F8949EBF0FBE8DBF40CF895301C080E04A
:104860000E94BC213ACF81E19DE00E940B08C0E08C
:104870008C2FCF91089580E0089580E008958E51A7
:104880008A3030F4E82FF0E0EB5DFE4F8081089530
:1048900080E00895CF93C82F80911602813059F09F
:1048A00020F0823009F445C039C10E941E1B8232BB
:1048B00009F036C104C00E941E1B823261F48C2FA5
:1048C0000E943B24811104C08C2F0E94DC212FC048
:1048D00081E090E02CC08C2F0E943D24811126C0E5
:1048E000C431E1F070F4CB3081F0C031D1F40E94DA
:1048F000842083EA98E00E940B0882E080931602ED
:1049000015C0C93259F0C83361F484E09AE00E94BE
:104910000B0887EA98E00E940B0808C01092160264
:1049200001C181EA98E00E940B08FCC081E081701F
:10493000FBC0C43228F5CE3108F0C1C0CB30A1F1A4
:10494000D0F4C73009F0D0C08EE18093070182E334
:10495000809306018AE08093050184E1809304013D
:1049600088E08093030188E28093020187E497E066
:104970000E940B08BCC0C33149F1C431C1F0B4C0BE
:10498000CB3409F4A6C028F4C93289F0C83361F0E9
:10499000ABC0C13509F49BC0C23509F496C0CE3412
:1049A00009F0A2C06AE09BC00E948420A0C0809150
:1049B0001502882319F01092150299C084E597E03A
:1049C0000E940B0881E080931602AEC08EE297E051
:1049D0000E940B088CE197E00E940B088091070170
:1049E0001F928F9389E197E09F938F930E94A40871
:1049F00087E197E00E940B0885E097E00E940B0892
:104A0000809106011F928F9382E097E09F938F938E
:104A10000E94A40880E097E00E940B0881EF96E0D6
:104A20000E940B08809105011F928F938EEE96E0F5
:104A30009F938F930E94A4088CEE96E00E940B082F
:104A40008BED96E00E940B08809104011F928F93DA
:104A500088ED96E09F938F930E94A40886ED96E0E0
:104A60000E940B0881EC96E00E940B0880910301E4
:104A70001F928F938EEB96E09F938F930E94A408D2
:104A80008CEB96E00E940B0885EA96E00E940B08EA
:104A9000809102011F928F9382EA96E09F938F93F9
:104AA0000E94A40880EA96E00E940B088DB79EB78A
:104AB00048960FB6F8949EBF0FBE8DBF18C08C2FBE
:104AC0000E943F248093150212C061E003C061E0A0
:104AD00006C06AE0809115020E949B2008C0809168
:104AE00015020E943E2103C085E497E013C0809127
:104AF0001502882369F01F928F938FE397E09F93AD
:104B00008F930E94A4080F900F900F900F9004C0F5
:104B10008CE397E00E940B0881E006C01092160219
:104B200080E002C080E003CFCF91089580912202FF
:104B300008959FB7F894109219029FBF9091310287
:104B4000943009F057C09091E9009F703091EC00CB
:104B5000232F217030FD20E8922B23E02093E900E1
:104B60002091EB0020FF43C02091EE0027FF3FC0C3
:104B700020911702222321F02091E80025FF37C061
:104B80001092170226E03091E80035FD15C03091F3
:104B90003102343061F53091EB0035FD28C02150F1
:104BA00021F481E08093170222C0EFE9FFE0319702
:104BB000F1F700C00000E7CF8093F1008091E8009A
:104BC00085FD0AC08091E80080FFFCCF8091E8005D
:104BD0008E778093E80006C08FB7F89421E0209389
:104BE00019028FBF9F709093E90080E008959F7035
:104BF0009093E9008FEF08950F931F93CF93DF9366
:104C000000D01F92CDB7DEB78C010E94B72882304A
:104C100011F0843021F584E089831B830A8382E0CC
:104C20008093E9008FEF9091E800815095FD06C0D8
:104C300095ED9A95F1F700008111F5CF8091E8008C
:104C400085FF0DC040E050E063E070E0CE010196CA
:104C50000E94D4288091E8008E778093E8000F901E
:104C60000F900F90DF91CF911F910F910895CF93E7
:104C7000DF9300D01F92CDB7DEB7209131022430F0
:104C800031F523E02983805891099B838A8382E050
:104C90008093E9008FEF9091E800815095FD06C068
:104CA00095ED9A95F1F700008111F5CF8091E8001C
:104CB00085FF0DC040E050E063E070E0CE0101965A
:104CC0000E94D4288091E8008E778093E8000F90AE
:104CD0000F900F90DF91CF910895CF93DF93EC0168
:104CE0000E94B728823011F08430F9F482E080937A
:104CF000E9009FEF8091E800915085FD06C085EDA9
:104D00008A95F1F700009111F5CF8091E80085FFB9
:104D10000CC040E050E066E070E0CE010E94D42874
:104D20008091E8008E778093E800DF91CF9108951D
:104D3000CF93DF93EC010E94B728823011F08430CA
:104D400039F581E08093E9008FEF9091E800815080
:104D500095FD06C095ED9A95F1F700008111F5CF0C
:104D60008091E80085FF14C040E050E068E070E00A
:104D7000CE010E94D4288091E8008E778093E800CD
:104D800088E0FE01AAE1B2E001900D928A95E1F778
:104D9000DF91CF91089580EE9DE00E940B088091F5
:104DA0003002811109C00E94692A0E94C62A80919E
:104DB000E20084608093E20008958CED9DE00E9403
:104DC0000B0810923002089588ED9DE00C940B08BA
:104DD00084ED9DE00C940B0880ED9DE00E940B0893
:104DE0000C94151D209118022F5F822F62E30E9400
:104DF0006F2D992319F0209318020895109218022C
:104E000080911902882371F180913102843041F53B
:104E10008091E9008F702091EC00922F917020FD1D
:104E200090E8892B93E09093E9009091EB0090FF3C
:104E300014C09091EE0097FF10C09091E80095FF8C
:104E400003C01092F100F9CF9091E80090FF05C0E7
:104E50009091E8009E779093E8008F708093E9002E
:104E600010921902089542E061EC81E00E94E3296A
:104E700042E261EC82E00E94E32942E261EC83E0DD
:104E80000C94E32980913302833009F460C030F43C
:104E9000813071F0823009F499C008958A3009F4A4
:104EA00085C08B3009F46BC0893009F0A7C020C0E1
:104EB00080913202813A09F0A1C08091E800877F99
:104EC0008093E8008091360290913702892B21F47B
:104ED00068E08AE192E003C060E080E090E070E08A
:104EE0000E941F298091E8008B778093E800089545
:104EF00080913202813209F081C080913602909116
:104F00003702029708F07AC08091E800877F80938B
:104F1000E8008091E80082FD05C080913102811196
:104F2000F8CF6CC02091F3008091F20090E0922BBA
:104F3000029729F48091F1008B7F813021F48091D8
:104F4000F100809322028091E8008B7753C080911A
:104F50003202813A09F052C08091360290913702B4
:104F6000892B09F04BC08091E800877F8093E8008F
:104F70008091E80080FFFCCF8091120136C08091C3
:104F800032028132D9F58091360290913702892B15
:104F9000A9F58091E800877F8093E8000E94182A95
:104FA00080913402809312010C9469158091320231
:104FB000813221F58091E800877F8093E8000E948C
:104FC000182A80913502809323020895809132023D
:104FD000813AA1F48091E800877F8093E800809176
:104FE000E80080FFFCCF809123028093F100809144
:104FF000E8008E778093E8000C94182A089584B70F
:10500000877F84BF0FB6F894A8958091600088616F
:1050100080936000109260000FBE80E88093610072
:10502000109261000E94C90F0E94692A0E94C62A3C
:105030008091E20084608093E20089E995E20E9419
:10504000CE1B78940E94542D0E94D10F88E091E0ED
:105050000E94270F8FEB9DE00E940B088091310288
:10506000853089F48BEB9DE00E940B080E94CB1CDD
:1050700080912F02882391F30E94FD1C882371F3F5
:105080000E94BE28EBCF0E940110E8CF0C94482864
:10509000292F332723303105C9F064F4213031053D
:1050A00081F02230310509F049C08BE590E028E11C
:1050B0003EE048C02132310521F12232310571F143
:1050C0003DC082E190E023E73EE03CC0992781307B
:1050D000910571F02CF4892B89F5E4E1FEE00DC017
:1050E0008230910541F0039749F5E4EEFDE005C0FB
:1050F000E4E0FEE002C0EAEEFDE0849190E09F0172
:1051000021C063307105D0F4660F771FFB01E85CA6
:10511000FE4F2081318189E090E014C06330710539
:1051200068F4FB01EE0FFF1FEE5CFE4F2081318122
:10513000FB01E15DFE4F808190E004C080E090E0E3
:1051400020E030E0FA013183208308950895CF9361
:10515000C82F0E94A628C0932402CF910895809161
:105160003102843011F081E0089582E00895809149
:105170002402811102C00C94AF28089580E189BDFA
:1051800082E189BD09B400FEFDCF8091D8008F7DFA
:105190008093D8008091E00082608093E00080914D
:1051A000E00081FDFCCF0895CF92DF92EF92FF9255
:1051B0000F931F93CF93DF93EC018B016A010E9441
:1051C000372A811133C0C114D10439F0F60180812E
:1051D0009181081B190BC80FD91FE12CF12C011567
:1051E000110519F18091E80085FD16C08091E80055
:1051F0008E778093E800C114D10449F0F6018081D4
:105200009181E80EF91EF182E08285E00FC00E94D4
:10521000372A882321F30AC089918093F100015035
:105220001109FFEFEF1AFF0ADACF80E0DF91CF918B
:105230001F910F91FF90EF90DF90CF9008952091F4
:105240003802309139022617370748F06115710589
:1052500039F42091E8002E772093E80001C0B901CD
:1052600040E061157105A9F120913102222309F472
:1052700043C0253009F442C02091E80023FD40C01E
:105280002091E80022FD32C02091E80020FFE9CF04
:105290004091F3002091F20030E0342BFC01CF016B
:1052A0006115710559F02830310540F481918093E2
:1052B000F100615071092F5F3F4FF1CF41E028307D
:1052C000310509F040E02091E8002E772093E800B6
:1052D000C8CF4111C9CF0AC080913102882361F043
:1052E000853061F08091E80083FD0AC08091E8007C
:1052F00082FFF2CF80E0089582E0089583E0089570
:1053000081E008952091380230913902261737073D
:1053100048F06115710539F42091E8002E7720934B
:10532000E80001C0B901FC0120E06115710591F1AF
:1053300080913102882309F440C0853009F43FC0D0
:105340008091E80083FD3DC08091E80082FD2FC080
:105350008091E80080FFE9CF2091F3008091F20076
:1053600090E0922B6115710559F08830910540F459
:1053700024912093F1003196615071090196F2CF8A
:1053800021E0089709F020E08091E8008E77809373
:10539000E800CBCF2111CCCF0AC080913102882305
:1053A00061F0853061F08091E80083FD0AC0809152
:1053B000E80082FFF2CF80E0089582E0089583E064
:1053C000089581E00895982F973058F59093E9005B
:1053D000981739F07091EC002091ED005091F00099
:1053E00003C0242F762F50E021FF19C03091EB002D
:1053F0003E7F3093EB003091ED003D7F3093ED0028
:105400003091EB0031603093EB007093EC0020930F
:10541000ED005093F0002091EE0027FF07C09F5F42
:10542000D3CF8F708093E90081E0089580E00895E4
:105430008091320287FF11C08091E80082FD05C093
:10544000809131028111F8CF11C08091E8008B77F3
:105450000BC080913102882349F08091E80080FFE1
:10546000F8CF8091E8008E778093E800089520912E
:10547000E4003091E50095E64091EC00842F8170C6
:1054800040FF22C08091E80080FD1CC08091310265
:10549000882391F0853091F08091EB0085FD10C05C
:1054A0004091E4005091E5004217530729F39A0117
:1054B000915011F784E0089582E0089583E0089503
:1054C00081E0089580E008954091E80042FFDECF3A
:1054D00008950E94D72A0E94DF2AE0EEF0E0808142
:1054E00081608083E8EDF0E080818F77808319BC54
:1054F000A7EDB0E08C918E7F8C9380818F7E80832E
:105500001092300208950F931F93CF93DF930E9460
:10551000D72A0E94DF2AC8EDD0E088818F77888360
:1055200088818068888388818F7D888319BC1092E8
:10553000310210922D0210922F0210922E0200EED4
:1055400010E0F80180818B7F80838881816088836F
:1055500042E060E080E00E94E329E1EEF0E080813B
:105560008E7F8083E2EEF0E08081816080838081A5
:1055700088608083F80180818E7F8083888180614C
:105580008883DF91CF911F910F910895E8EDF0E0AE
:1055900080818F7E8083E7EDF0E080818160808371
:1055A00084E082BF81E0809330020C94832AE8ED8E
:1055B000F0E080818E7F80831092E2000895109247
:1055C000DA001092E10008951F920F920FB60F9229
:1055D00011242F933F934F935F936F937F938F93F8
:1055E0009F93AF93BF93EF93FF938091E10082FF6E
:1055F0000BC08091E20082FF07C08091E1008B7FA9
:105600008093E1000E94F2268091DA0080FF1FC0A3
:105610008091D80080FF1BC08091DA008E7F80933C
:10562000DA008091D90080FF0DC080E189BD82E160
:1056300089BD09B400FEFDCF81E0809331020E9454
:10564000CB2605C019BC109231020E94DD26809144
:10565000E10080FF19C08091E20080FF15C08091B9
:10566000E2008E7F8093E2008091E200806180936F
:10567000E2008091D80080628093D80019BC85E058
:10568000809331020E94E8268091E10084FF30C0BF
:105690008091E20084FF2CC080E189BD82E189BD58
:1056A00009B400FEFDCF8091D8008F7D8093D80093
:1056B0008091E1008F7E8093E1008091E2008F7EF7
:1056C0008093E2008091E20081608093E20080910B
:1056D0002D02882311F084E007C08091E30087FD4C
:1056E00002C081E001C083E0809331020E94EC2679
:1056F0008091E10083FF29C08091E20083FF25C0F3
:105700008091E100877F8093E10082E08093310205
:1057100010922D028091E1008E7F8093E1008091B4
:10572000E2008E7F8093E2008091E20080618093AE
:10573000E20042E060E080E00E94E3298091F00016
:1057400088608093F0000E94E426FF91EF91BF9162
:10575000AF919F918F917F916F915F914F913F9109
:105760002F910F900FBE0F901F9018951F920F92C0
:105770000FB60F9211242F933F934F935F936F9324
:105780007F938F939F93AF93BF93CF93DF93EF93C9
:10579000FF93C091E900CF708091EC00D82FD170B9
:1057A00080FDD0E81092E9008091F000877F80931F
:1057B000F00078940E94FA2B1092E9008091F0009A
:1057C00088608093F000CD2BCF70C093E900FF91EB
:1057D000EF91DF91CF91BF91AF919F918F917F9189
:1057E0006F915F914F913F912F910F900FBE0F904E
:1057F0001F9018951F93CF93DF93CDB7DEB7AA976D
:105800000FB6F894DEBF0FBECDBFE2E3F2E088E052
:105810008E0F9091F10091938E13FBCF0E9442273F
:105820008091E80083FF28C1809132029091330279
:10583000492F50E04A30510508F01EC1FA01E556E3
:10584000FF4F0C948F2D803821F0823809F014C15D
:1058500008C080912E0290912F02992389F08260D6
:105860000FC0809136028F70873008F005C1809399
:10587000E9008091EB0085FB882780F91092E90010
:105880009091E800977F9093E8008093F100109248
:10589000F100D0C0282F2D7F09F0EEC0882319F029
:1058A000823061F0E9C080913402813009F0E4C0B7
:1058B000933009F080E080932F022EC08091340253
:1058C00081112AC0809136028F702FEF280F263069
:1058D00008F0D2C08093E9002091EB0020FF1CC0AB
:1058E000933021F48091EB00806214C09091EB0022
:1058F00090619093EB0021E030E0A90102C0440FD9
:10590000551F8A95E2F74093EA001092EA008091D1
:10591000EB0088608093EB001092E9008091E80032
:10592000877F8093E8000E94182AA6C08111A4C036
:10593000109134021F778091E3008078812B80934F
:10594000E3008091E800877F8093E8000E94182A96
:105950008091E80080FFFCCF8091E3008068809315
:10596000E300111102C082E001C083E080933102A4
:1059700083C08058823008F07FC0809134029091BB
:1059800035028C3D53E0950779F583E08A838AE2FE
:1059900089834FB7F894DE01139620E03EE051E290
:1059A000E32FF0E050935700E49120FF03C0E2950D
:1059B000EF703F5FEF708E2F90E0EA3010F0C796E7
:1059C00001C0C0968D939D932F5F243149F74FBF3F
:1059D0008091E800877F8093E8006AE270E0CE0162
:1059E00001960E941F2915C06091360270913702FE
:1059F000AE014F5F5F4F0E944628BC01892BE1F149
:105A00009091E800977F9093E80089819A810E94A5
:105A100082298091E8008B778093E8002DC0803840
:105A200059F58091E800877F8093E80080912D02EE
:105A30008093F1008091E8008E7773CF81111CC0B4
:105A4000909134029230C0F48091E800877F809377
:105A5000E80090932D020E94182A80912D02811156
:105A600006C08091E30087FD02C081E001C084E0B0
:105A7000809331020E9433278091E80083FF0AC09F
:105A80008091E800877F8093E8008091EB0080623E
:105A90008093EB00AA960FB6F894DEBF0FBECDBF81
:105AA000DF91CF911F910895CF9380913102882388
:105AB000A1F0C091E900CF709091EC00892F817026
:105AC00090FD80E8C82B1092E9008091E80083FDEA
:105AD0000E94FA2BCF70C093E900CF910895991BD3
