:100000000C94BD070C9404080C9404080C94040888
:100010000C9404080C9404080C9404080C94040830
:100020000C9404080C9404080C94EB2A0C94BD2B3B
:100030000C94241D0C9404080C9404080C940408DB
:100040000C9404080C9404080C9404080C94040800
:100050000C9404080C94981D0C9404080C94040847
:100060000C9404080C9404080C9404080C940408E0
:100070000C9404080C9404080C9404080C940408D0
:100080000C9404080C9404080C9404080C940408C0
:100090000C9404080C9404080C9404080C940408B0
:1000A0000C9404080C9404080C940408F009F20958
:1000B000FD09F409F609F809FA09FC09FF09010A22
:1000C000030A0E0A050A070A090A0B0A0D0A100A92
:1000D000F212F212241324136D138D13F114F11480
:1000E000CF13F11470147014E114F114F114EA1424
:1000F0007D147D147D147D147D147D147D147D1478
:100100007D147D147D147D147D147D147D147D1467
:100110008E149C14A314AA14B4148015801592157F
:1001200092158915921592159215801580158E15C8
:10013000921592158E152A2C512C432D512C432D9E
:100140009D2CC02C432D162D252D68747470733A88
:100150002F2F716D6B2E666D2F012800514D4B2096
:100160006973207468652062657374207468696EB1
:1001700067206576657221002A002E002D00270079
:1001800026002500240023002200210020001F005B
:100190001E00350029004A002B0014001A00080038
:1001A000150017001C0018000C00120013002F008F
:1001B000300031004C004B002800340033000F00A9
:1001C0000E000D000B000A000900070016000400D5
:1001D00039004D0046002C00E1001D001B00060008
:1001E0001900050011001000360037003800E50046
:1001F00052004E004F0051005000E4000151E60053
:100200002C00E200E300E0002C00000000000000F1
:100210000000000000000000000001004500440054
:1002200043004200410040003F003E003D003C00D2
:100230003B003A0001000100010001000100010043
:1002400001000100010001000100010001000100A6
:100250000100010001000100010001000100010096
:100260000100010001000100010001000100010086
:100270000100010001000100010001000100010076
:100280000100010001000100010001000100010066
:100290000100010001000100010001000100010056
:1002A0000100010001000100010001000000000048
:1002B00000000000000000000000000001004500F8
:1002C000440043004200410040003F003E003D002A
:1002D0003C003B003A000100010001000100010068
:1002E0000100010001000100010001000100010006
:1002F00001000100010001000100010001000100F6
:1003000001000100010001000100010001000100E5
:1003100001000100010001000100010001000100D5
:1003200001000100010001000100010001000100C5
:1003300001000100010001000100010001000100B5
:1003400001000100010001000100010001000000A6
:100350000000000000000000000000000000444514
:100360004255473A2064697361626C65642E0A00E5
:1003700044454255473A20656E61626C65642E0AB9
:100380000000000000000000002A2B2800000000F0
:100390000000000000000000000000002900000034
:1003A000002C1E3420212224342627252E362D37DA
:1003B00038271E1F202122232425263333362E37AB
:1003C000381F0405060708090A0B0C0D0E0F101143
:1003D00012131415161718191A1B1C1D2F31302350
:1003E0002D350405060708090A0B0C0D0E0F101118
:1003F00012131415161718191A1B1C1D2F3130351E
:100400004C000000000000000000000000000000A0
:1004100000000000000000000000000000000000DC
:1004200000000000000000000000000000000000CC
:1004300000000000000000000000000000000000BC
:1004400000000000000000000000000000000000AC
:10045000000000000000000000000000000000009C
:10046000000000000000000000000000000000008C
:10047000000000000000000000000000000000007C
:10048000000000000000000000000000000000006C
:10049000000000000000000000000000000000005C
:1004A0000000010101010101000101010100000042
:1004B0000000000000000000000000010001000139
:1004C000010101010101010101010101010101011C
:1004D000010101010101010101010101000000010F
:1004E000010000000000000000000000000000000B
:1004F00000000000000000000000000001010101F8
:10050000000A002530313662003A2000253032588A
:10051000000A722F632030313233343536373839A0
:100520004142434445460A000A0025303258200023
:100530006B6579626F6172645F7265706F72743A35
:1005400020000A0025303258006B6579626F6172B5
:10055000645F7365745F6C65643A2000290A002546
:1005600075002F002575005D2800256400200025FA
:100570006400200025640020002564007C002530F4
:100580003258006D6F7573656B6579205B62746EB0
:100590007C782079207620685D287265702F6163F1
:1005A0006C293A205B006D6B5F776865656C5F74E2
:1005B000696D655F746F5F6D6178203D2025640A09
:1005C000006D6B5F776865656C5F6D61785F7370F8
:1005D000656564203D2025640A006D6B5F74696D5C
:1005E000655F746F5F6D6178203D2025640A006D42
:1005F0006B5F6D61785F7370656564203D20256475
:100600000A006D6B5F696E74657276616C203D20C7
:1006100025640A006D6B5F64656C6179203D20255F
:10062000640A006D6B5F776865656C5F74696D6502
:100630005F746F5F6D6178203D2025640A006D6BEB
:100640005F776865656C5F6D61785F737065656421
:10065000203D2025640A006D6B5F74696D655F74D1
:100660006F5F6D6178203D2025640A006D6B5F6DC2
:1006700061785F7370656564203D2025640A006DB4
:100680006B5F696E74657276616C203D2025640A2B
:10069000006D6B5F64656C6179203D2025640A0004
:1006A0000A00257500363A20776865656C5F7469C5
:1006B0006D655F746F5F6D61783A20000A00257583
:1006C00000353A20776865656C5F6D61785F73709F
:1006D0006565643A20000A00257500343A20746983
:1006E0006D655F746F5F6D61783A20000A00257553
:1006F00000333A206D61785F73706565643A20005D
:100700000A00257500323A20696E74657276616C54
:10071000286D73293A20000A00257500313A2064BB
:10072000656C6179282A31306D73293A20000A09F5
:100730002D2056616C756573202D0A004D3E004DCD
:1007400025643E20003F0073657420646566617512
:100750006C740A00433E200077686572652064650A
:100760006C74613A20637572736F723D25642C203E
:10077000776865656C3D25640A5365652068747407
:10078000703A2F2F656E2E77696B697065646961A9
:100790002E6F72672F77696B692F4D6F7573655F69
:1007A0006B6579730A000A092D204D6F7573656BAF
:1007B0006579202D0A4553432F713A097175697483
:1007C0000A313A0964656C6179282A31306D7329E0
:1007D0000A323A09696E74657276616C286D732904
:1007E0000A333A096D61785F73706565640A343A5B
:1007F0000974696D655F746F5F6D61780A353A09D8
:10080000776865656C5F6D61785F73706565640AB4
:10081000363A09776865656C5F74696D655F746FFA
:100820005F6D61780A0A703A097072696E74207699
:10083000616C7565730A643A097365742064656652
:1008400061756C74730A75703A092B310A646F779D
:100850006E3A092D310A706775703A092B31300AEA
:100860007067646F776E3A092D31300A0A737065CC
:100870006564203D2064656C7461202A206D617878
:100880005F7370656564202A2028726570656174E5
:10089000202F2074696D655F746F5F6D6178290A20
:1008A000003F004D3E2000433E20004C25640A00DE
:1008B00074696D65725F72656164333228293A200C
:1008C0002530346C580A006B6579626F6172645F21
:1008D00069646C653A2025580A006B6579626F611E
:1008E00072645F70726F746F636F6C3A2025580A80
:1008F00000686F73745F6B6579626F6172645F6CBF
:1009000065647328293A2025580A000A092D2053C6
:100910007461747573202D0A004743433A20342EC6
:10092000392E32204156522D4C4942433A20322E24
:10093000302E30204156525F415243483A20617672
:1009400072350A004F5054494F4E533A204C554689
:1009500041204D4F5553454B455920455854524120
:100960004B455920434F4E534F4C4520434F4D4D1F
:10097000414E4420343039360A004255494C443AFD
:100980002022323032302D30372D32392D31303A6D
:1009900035383A353122202831303A35383A353435
:1009A000204A756C2032392032303230290A005604
:1009B00049443A2030784645454428545F746F795D
:1009C0007329205049443A20307830303030286B39
:1009D00065795F746F79735F373329205645523AD2
:1009E000203078303030310A00444553433A2041BA
:1009F00020637573746F6D206B6579626F617264CB
:100A00000A000A092D2056657273696F6E202D0A3F
:100A1000000A092D20436F6E736F6C65202D0A4507
:100A200053432F713A09717569740A6D3A096D6FF4
:100A30007573656B65790A000A092D204D61676938
:100A400063202D0A443A094465627567204D657339
:100A50007361676520546F67676C650A583A094D82
:100A60006174726978204465627567204D6F6465B2
:100A700020546F67676C65202D2053686F77206B5B
:100A800065797072657373657320696E206D61742A
:100A900072697820677269640A4B3A094B6579621A
:100AA0006F61726420446562756720546F67676C7C
:100AB00065202D2053686F77206B657970726573A0
:100AC00073207265706F72740A4D3A0944656275DD
:100AD00067204D6F75736520546F67676C650A56A4
:100AE0003A0956657273696F6E0A533A0953746115
:100AF0007475730A433A09416374697661746520B9
:100B0000436F6E736F6C65204D6F64650A46312DBF
:100B10004631303A0953776974636820746F204C0A
:100B20006179657220302D392028463130203D20F2
:100B30004C30290A302D393A09537769746368209B
:100B4000746F204C6179657220302D390A4752410B
:100B500056453A0953776974636820746F204C6175
:100B600079657220302028616C7465726E617465DD
:100B7000290A423A094A756D7020746F20426F6FDE
:100B8000746C6F616465720A4553433A094A756D26
:100B90007020746F20426F6F746C6F616465722097
:100BA00028616C7465726E617465290A453A095052
:100BB00072696E7420454550524F4D2053657474D0
:100BC000696E67730A4253504143453A09436C6565
:100BD000617220454550524F4D0A000A00257500AC
:100BE0002E6E6B726F3A20000A002575002E737707
:100BF00061705F6261636B736C6173685F62616394
:100C00006B73706163653A20000A002575002E73CE
:100C10007761705F67726176655F6573633A200024
:100C20000A002575002E6E6F5F6775693A20000A0D
:100C3000002575002E737761705F72616C745F724E
:100C40006775693A20000A002575002E7377617078
:100C50005F6C616C745F6C6775693A20000A0025EF
:100C600075002E636170736C6F636B5F746F5F638D
:100C70006F6E74726F6C3A20000A002575002E7337
:100C80007761705F636F6E74726F6C5F63617073B6
:100C90006C6F636B3A20000A0025303258006B6598
:100CA000796D61705F636F6E6669672E7261773A06
:100CB00020000A002575002E6D6F7573653A2000BF
:100CC0000A002575002E6B6579626F6172643A20A7
:100CD000000A002575002E6D61747269783A200053
:100CE0000A002575002E656E61626C653A20000A67
:100CF00000253032580064656275675F636F6E6609
:100D000069672E7261773A20000A002575006465D4
:100D10006661756C745F6C617965723A20003F00A2
:100D20000A6D6F7573653A206F66660A000A6D6F0B
:100D30007573653A206F6E0A000A6B6579626F61A0
:100D400072643A206F66660A000A6B6579626F61A9
:100D500072643A206F6E0A000A6D61747269783AA3
:100D6000206F66660A000A6D61747269783A206FB6
:100D70006E0A000A64656275673A206F66660A004B
:100D80000A64656275673A206F6E0A000A0A4A753E
:100D90006D70696E6720746F20626F6F746C6F6125
:100DA0006465722E2E2E2000433E2000436C656148
:100DB00072696E6720454550524F4D0A0065656364
:100DC0006F6E6669673A0A005B735D004B65796216
:100DD0006F6172642073746172742E0A005B575DD8
:100DE000005B535D005B525D005B445D005B435DF7
:100DF0000004033000000018036B00650079005FF9
:100E00000074006F00790073005F0037003300004A
:100E1000000E0354005F0074006F0079007300003F
:100E2000000403090409025B00030100A0FA09049D
:100E3000000001030101000921110100012240000D
:100E40000705810308000A090401000103000000EE
:100E50000921110100012285000705820320000AF3
:100E6000090402000203000000092111010001220F
:100E7000220007058303200001070503032000016A
:100E80001201100100000008EDFE00000100010247
:100E900003010631FF0974A1010975150026FF0041
:100EA0009520750881020976150026FF00952075AA
:100EB000089102C005010902A10185020901A100F2
:100EC00005091901290515002501950575018102FE
:100ED0009501750381010501093009311581257FCF
:100EE00095027508810609381581257F95017508D9
:100EF0008106050C0A38021581257F950175088148
:100F000006C0C005010980A1018503160100260362
:100F1000001A81002A8300751095018100C0050C1C
:100F20000901A1018504160100269C021A01002A6C
:100F30009C02751095018100C005010906A10105FB
:100F40000719E029E715002501950875018102952B
:100F5000017508810105081901290595057501919B
:100F6000029501750391010507190029FF15002657
:100F7000FF00950675088100C00011241FBECFEF49
:100F8000DAE0DEBFCDBF04B603FE27C080913A028F
:100F900090913B02A0913C02B0913D028730904B72
:100FA000A740B04BD1F410923A0210923B0210923B
:100FB0003C0210923D0214BE84B7877F84BF0FB6F7
:100FC000F894A895809160008861809360001092E9
:100FD00060000FBEE0E0F8E3099511E0A0E0B1E0A9
:100FE000E8EEFBE502C005900D92AE33B107D9F7EC
:100FF00022E0AEE3B1E001C01D92AA33B207E1F7EF
:101000000E9406280C94F22D0C940000FF93EF939D
:10101000E0913E01F0913F01309709F00995EF9181
:10102000FF910895FC018591803011F0EFDFFBCF37
:101030000895FF27E0E230E247FF0CC0419597FF9B
:1010400009C0EDE26095709580959095611D711DC8
:10105000811D911D27FF02C0219530E350E2AA2790
:10106000660F771F881F991FAA1FA41710F0A41BD3
:1010700063955A95A9F7AA3008F0A95FA05DAF93D0
:10108000F395611571058105910541F7ED3211F474
:10109000EF93F395F21718F43F93F395FBCF8F91ED
:1010A000B5DFFA95E1F70895E991F99185918030DE
:1010B00021F0853219F0AADFF9CF089520E0E894F5
:1010C00055915532C1F3503311F4689455915A3308
:1010D00048F4505390F3220F022E220F220F200DBE
:1010E000250FF4CF0EF4219589919991533619F378
:1010F000533729F1533559F1BC0188279927E894D2
:101100005C3621F48991999168945591543639F45B
:1011100046EF7EF077FF0DC08FEF9FEF0AC0553787
:101120004AE039F0583540E121F0523642E009F00A
:101130000895FF93EF937DDFEF91FF91B7CFFF937A
:10114000EF93FC0181918030B9F360DFFBCFFF9317
:10115000EF9368DFF1CFDF93CF93CDB7DEB725965E
:10116000A3DFCF91DF910895873F2CE5920721F00F
:10117000883F9C4541F00FC0FB018281882359F0D4
:101180008CE591E006C0FB018281882321F08AE48E
:1011900091E00E947D0981E00895089508950895E1
:1011A00081E008950C94B4081F93CF93DF9300D08F
:1011B00000D01F92CDB7DEB749835A8320918401B6
:1011C00089819A81211112C0662349F00E94A51AD3
:1011D000182F682F89819A810E944A1A03C00E94A1
:1011E000791A182F69817A81812F04C00E94A51A6B
:1011F00069817A810F900F900F900F900F90DF917F
:10120000CF911F910C949E0AFC0140815181628113
:10121000738184810C94D4081F93CF93DF93282F7C
:1012200030E0F901EF57FC4F1491F901EF57FB4FF4
:10123000E491C1E0E11101C0C0E0F901EF5FFB4FB3
:101240002491D1E0211101C0D0E0CC2319F081EE2E
:101250000E94FA10DD2319F086EE0E94FA10812F09
:101260000E949B12DD2319F086EE0E943312CC23DC
:1012700031F081EEDF91CF911F910C943312DF9109
:10128000CF911F9108950F931F93CF93DF93EC019C
:10129000062FFE018491882359F19E012F5F3F4F55
:1012A000813041F4E901F9011491812F0E94FA1073
:1012B000812F0DC0823031F4E901F90184910E943F
:1012C000FA100AC0833031F4E901F90184910E94D7
:1012D000331202C00E940C092196802F8823C9F284
:1012E000EFE9FFE03197F1F700C000008150F6CF41
:1012F000DF91CF911F910F91089560E00C94430905
:101300000E940A1C811102C00E94901C0C940F0DB7
:101310000C94110D0C94CF080C948A0908950E9426
:1013200070150E948E092FEF84E39CE021508040CD
:101330009040E1F700C0000087E797E7909301082D
:10134000809300080C94BE1D0F931F93CF93DF93DF
:101350008C010E940409EC01B8010E94D208882384
:10136000D9F0B801CE010E94ED0E8823A9F0C53155
:10137000FCE5DF0708F088C0C2308CE5D80770F4C0
:10138000C115ECE5DE0709F05BC0F801C281CC2392
:1013900009F4CAC00E948F09C0E0C6C0F80182816A
:1013A000882309F450C00E940A1C811102C00E94C7
:1013B000901C0E941D1C90E090932C0280932B02A5
:1013C000FE01E350FC45E231F10530F4EA5AFF4FEB
:1013D00080912B020C94962D80912B02816027C066
:1013E000826025C0846023C0806121C080621FC0EC
:1013F00080641DC080681BC08460886018C08E7FB8
:1014000016C08D7F14C08B7F12C08F7E10C08F7D61
:101410000EC08F7B0CC08F770AC08B7F877F07C081
:1014200087FB222720F991E0922790FB87F9809390
:101430002B0280912B020E94211C0E947015ACCFC0
:10144000C130DC4539F0C801DF91CF911F910F9178
:101450000C94D008F801C281CC2309F465C08091B6
:101460000902C82FC095C170C0FB80F980930902A2
:10147000CC2329F080E793E00E9412088DCF8EE5FF
:1014800093E00E94120850C0CC3D8CE5D80739F497
:10149000F801C281CC2309F447C080E00DC0CD3DE6
:1014A000ECE5DE0760F0CD3D8CE5D80791F5F8015D
:1014B000C281CC23C9F182E00E94AE286DCFC63133
:1014C000DC4509F60E94251B282FF80182814091F6
:1014D000000150910101882379F02A7A91E009F402
:1014E00090E090934001911102C069E201C065E370
:1014F000CA010E94C41C0AC080914001811102C02F
:1015000069E201C065E3CA010E94C61C0E94711B0A
:1015100043CFCE3DDC4509F096CFF801C281CC2304
:1015200019F00E94901C38CF8C2FDF91CF911F9122
:101530000F91089580E090E00895089599E0799FD3
:10154000F001112491E5899FE00DF11D1124E60FB2
:10155000F11DEE0FFF1FE858FE4F859194910895FD
:10156000880F991FFC01EF5FFA4F859194910895C0
:10157000CF93DF930E949E0A0E946F0CEC018115AD
:1015800020E59207F0F5811530E4930708F024C1B7
:10159000883E910500F5803E910508F09CC1883A8F
:1015A000910570F4853A910508F09FC0813091054E
:1015B00009F491C108F442C1049708F08CC13EC1FE
:1015C0008F3B910508F49CC0803C910508F436C11E
:1015D000805C9109F4C0811540E2940758F4C1156C
:1015E00081E0D80708F077C1C03FD10508F426C1D3
:1015F000D06571C1811520E3920708F0E4C09F70A7
:10160000DEC0811535E5930708F044C0811544E537
:10161000940708F0F8C0C11582E5D80708F5C11590
:1016200021E5D20708F0DBC08C2F837021E030E089
:1016300002C0220F331F8A95E2F73C68CE0174E0A6
:10164000969587957A95E1F78370382BCF70C6957C
:10165000C69580E2C89FE0011124C22BD32B3BC169
:101660002C2F26952695CE0183709927C115D34539
:1016700008F0BAC040E2249F90011124C1E0D0E0FC
:1016800002C0CC0FDD1F8A95E2F72C2B3D2BE90120
:10169000DC6821C1811549E59407A0F4C11588E5EE
:1016A000D80708F0B5C0C11526E5D20708F0C6C0B6
:1016B0008C2F0E94EC0C8F71C82FD0E0DC2FCC2730
:1016C000D06209C181153AE5930708F4A6C0905687
:1016D0008115904208F0B2C08D2F8F710E94EC0CE2
:1016E000DD27D0628F71D82BF6C0853A910509F4B9
:1016F000A8C0863A910509F0A7C0C2E8D0E4EBC0C3
:10170000883A910509F4A3C0893A910509F4A2C069
:101710008A3A910509F4A1C08B3A910509F4A0C059
:101720008C3A910509F49FC08B3B910509F49EC04A
:101730008C3B910509F49DC08D3A910509F49CC03C
:10174000803B910509F49BC08E3A910509F49AC03B
:101750008F3A910509F499C0813B910509F498C02D
:10176000823B910509F497C0833B910509F496C02B
:10177000843B910509F495C0853B910509F494C01B
:10178000863B910509F493C0873B910509F492C00B
:10179000883B910509F491C0893B910509F490C0FB
:1017A0008D3B910509F48FC08E3B910509F48EC0E5
:1017B0008A3B910509F48DC0C0E0D4E48CC00E943E
:1017C000B00AEC0188C09927D3FF03C0EC01D86CA4
:1017D00082C0EC01D06C7FC0DF70D06A7CC0DC2F8F
:1017E000CC27C16FD06A77C040E2249F90011124BA
:1017F000C1E0D0E002C0CC0FDD1F8A95E2F7C22B1A
:10180000D32BDA6868C0D82FCC27C46FD06A63C0E6
:10181000DC2FCC27C06FD06A5EC08F700E94EC0CAA
:1018200094E0D695C7959A95E1F7CF70D0E0DC2F7C
:10183000CC27D06A8F70806EC82B4DC0C0E0D0E03E
:101840004AC0C1E8D0E447C0C3E8D0E444C0C2EE17
:10185000D4E441C0C9EED4E43EC0CAEED4E43BC0F7
:10186000C5EBD4E438C0C6EBD4E435C0C3EBD4E454
:1018700032C0C4EBD4E42FC0C7EBD4E42CC0CCEC12
:10188000D4E429C0CDECD4E426C0C3E8D5E423C019
:10189000CAE8D5E420C0C2E9D5E41DC0C4E9D5E456
:1018A0001AC0C1E2D6E417C0C3E2D6E414C0C4E251
:1018B000D6E411C0C5E2D6E40EC0C6E2D6E40BC041
:1018C000C7E2D6E408C0CFE6D4E405C0C0E7D4E45C
:1018D00002C0CAE2D6E4CE01DF91CF9108958238EA
:1018E000910549F1B0F48133910509F458C048F4E9
:1018F0008932910509F44EC08A32910509F454C029
:1019000008958533910509F440C08933910599F014
:101910000895833E910529F138F4803E910591F0B8
:10192000823E9105A1F00895863E9105F9F0873E2B
:10193000910531F1089520912B0220FD3AC021FD3F
:1019400038C0089580912B0280FD35C032C080914F
:101950002B0282FF32C080912B0284FD30C083EEC7
:1019600039C080912B0282FD28C0F5CF80912B02D7
:1019700083FF27C080912B0284FD21C087EE2AC0FF
:1019800080912B0283FD1DC0F5CF80912B0285FD38
:101990001AC01BC080912B0285FD17C014C0809116
:1019A0002B0286FD14C015C080912B0286FD11C04C
:1019B0000EC080EE0FC089E30DC082EE0BC080E048
:1019C00009C086EE07C089E205C085E303C08AE24C
:1019D00001C081E390E0089590912B0292FF0DC029
:1019E000282F2871283019F4877F846006C0282F9B
:1019F0002471243011F48B7F886093FF0DC0282F51
:101A00002871283119F4877E846106C0282F24713B
:101A1000243111F48B7E886194FD877E08950C94A7
:101A2000CD080C94CE08E82FF0E0EE0FFF1FEF5B1F
:101A3000FE4F808191810895CF92DF92EF92FF92C5
:101A40000F931F93CF93DF9381E195E00E941208DB
:101A500081E4E82E81E0F82EC0E0D0E09CE0C92EC1
:101A600095E0D92E03E015E0DF93CF93DF92CF927C
:101A70000E94AB0889E095E00E941208F70181916D
:101A800091917F010E94F01B9F938F931F930F935F
:101A90000E94AB0881E095E00E94120821968DB764
:101AA0009EB708960FB6F8949EBF0FBE8DBFC93083
:101AB000D105D1F6DF91CF911F910F91FF90EF905B
:101AC000DF90CF900895ACE1B1E041E050E029E033
:101AD0002A0F8D91E82FE295EF70F0E031A18F7021
:101AE000BA0102C0660F771F8A95E2F7CB01962FE5
:101AF0009095932391A392A1892B82A32A13E9CFD6
:101B0000A3E1B1E041E050E029E02A0F8D91E82FF8
:101B1000E295EF70F0E031A18F70BA0102C0660F5C
:101B2000771F8A95E2F7CB01962F9095932391A387
:101B300092A1892B82A32A13E9CFE3E5F1E0A1E486
:101B4000B1E0119211921D921D9271E0E536F707F6
:101B5000C1F789E00E94450E0C9480095F926F9254
:101B60007F928F929F92AF92BF92CF92DF92EF922D
:101B7000FF920F931F93CF93DF930CE111E0A3E546
:101B8000B1E0612CEE24E394F12C5D018D909C90EA
:101B9000119711961C921E92E80189918E01E82FEF
:101BA000E295EF70F0E091A18F70A70101C0440FA2
:101BB0008A95EAF7892F842B81A382A1542E509411
:101BC000852182A3D0EADA95F1F783E1C82E81E07E
:101BD000D82E80E090E0E60179906E01272D2295C5
:101BE0002F7030E0E90168A12D913C91119770E0D0
:101BF000D72DDF7002C075956795DA95E2F760FD25
:101C000008C0B701082E02C0660F771F0A94E2F7DA
:101C100002C060E070E0262B372B11963C932E9388
:101C2000019689309105B9F681A1D52DD823D1A38C
:101C300082A1482B42A3129681E0F50120813181D7
:101C40008216930609F480E0682AF1E0A536BF0702
:101C500009F09BCF262D49E061E471E083E591E036
:101C60000E94460E0E948809862DDF91CF911F9118
:101C70000F91FF90EF90DF90CF90BF90AF909F902B
:101C80008F907F906F905F9008950895FF920F93CB
:101C90001F93CF93DF93F82E092F162FD72FC42F22
:101CA000222349F081E0809367010E94561D9093A2
:101CB000660180936501809167018823D9F0809146
:101CC0006501909166010E946E1D069798F0EF2DB8
:101CD000F02FA12FBD2F80E090E04C2F50E0841713
:101CE000950734F4219131912D933D930196F7CFCF
:101CF00010926701DF91CF911F910F91FF9008958E
:101D00000F931F93CF93DF93C62FD42F022FFC0185
:101D100082818823C9F060936A010E94561D9093C6
:101D200069018093680180E28C0F883008F050C010
:101D3000C77081E001C0880FCA95EAF7DF91CF91A3
:101D40001F910F910C94AE1210916A01161330C0BE
:101D500080916801909169010E946E1D883C9105F7
:101D600038F5C0E2CD0F1D17B9F080E2810F883041
:101D700040F4177081E001C0880F1A95EAF70E94BD
:101D8000B512C83048F481E09D2F977001C0880FCC
:101D90009A95EAF70E94AE12802F0E949B12C830DB
:101DA000B8F4D77081E001C0880FDA95EAF70AC06D
:101DB00080E28C0F883060F4C77081E001C0880F2A
:101DC000CA95EAF7DF91CF911F910F910C94B5124C
:101DD000DF91CF911F910F9108959C01CB01203F7E
:101DE0004CE53407F9F078F4283DFCE53F07B9F0FD
:101DF000293D4CE5340711F1273D3C4531F526E2FC
:101E000041EE61EE1EC0223FFCE53F0799F070F005
:101E1000233F3C45D1F427E245EE66EE12C027E2AF
:101E200045EE0EC026E241EE60EE0BC027E245EE25
:101E300064EE07C026E241EE62EE03C028E241E014
:101E400065EE0E94800E80E00895FC018281882367
:101E500019F010926A01089581E00895909370013D
:101E600080936F010895E0916F01F09170013097B8
:101E700021F00190F081E02D099480E00895EF9227
:101E8000FF920F931F93CF93DF93E0916F01F09137
:101E900070013097B1F18C010280F381E02D09953A
:101EA0008091090282FF2DC080FF04C080E395E08D
:101EB0000E941208E80118E08AE2E82E85E0F82E78
:101EC0008091090280FF0BC088811F928F93FF923F
:101ED000EF920E94AB080F900F900F900F9011504F
:101EE00021961111EDCF8091090280FF0AC088E28E
:101EF00095E0DF91CF911F910F91FF90EF900C949F
:101F00001208DF91CF911F910F91FF90EF900895EC
:101F1000E0916F01F0917001309739F022E0DC011F
:101F20002C930480F581E02D0994089520916D0192
:101F300030916E018217930771F090936E01809338
:101F40006D01E0916F01F0917001309721F00680F2
:101F5000F781E02D0994089520916B0130916C0177
:101F60008217930771F090936C0180936B01E0915D
:101F70006F01F0917001309721F00084F185E02D20
:101F80000994089585B7806885BF85B7806885BF47
:101F90000895089508950C94CA0F08950C94CD0FD8
:101FA0000E94C20F0E94C90F0C94CB0F81E00895CC
:101FB0000E944D1D0E94630D0E94CF1D0C94CE0FF8
:101FC000CF93C82F8091090282FF1EC080FF04C0FA
:101FD00089E495E00E9412088091090280FF0CC0FC
:101FE0001F92CF9384E495E09F938F930E94AB0858
:101FF0000F900F900F900F908091090280FF04C006
:1020000082E495E00E9412088C2FCF910C948C09E9
:102010004F925F927F928F929F92AF92BF92CF9298
:10202000DF92EF92FF920F931F93CF93DF93CDB781
:10203000DEB72A970FB6F894DEBF0FBECDBF0E9461
:10204000AE0D0E94D60F811111C08FEF89838A8354
:102050001B820E94561D8160782F9D838C8349814D
:102060005A816B818D810E94C61057C092E7C92E9C
:1020700091E0D92E00E010E0AA24A394B12C702E98
:10208000802F0E94130D4C01F601419051906F0179
:10209000482659264114510431F40F5F1F4F09306F
:1020A000110569F7D2CF8091090281FD0E941C0DB4
:1020B00020E030E07501022E02C0EE0CFF1C0A94F5
:1020C000E2F7C70184219521892B09F12E837F82B4
:1020D0008E209F2091E0892809F490E098870E9443
:1020E000561D8160782F9A8789874E815F81688528
:1020F0008A850E94C610000F111FF801EE58FE4F8E
:1021000080819181E826F926F182E08206C02F5F66
:102110003F4F2930310571F6C0CF0E94E41F109166
:1021200071010E94330F1817D9F00E94330F80936A
:1021300071012A960FB6F894DEBF0FBECDBFDF91B6
:10214000CF911F910F91FF90EF90DF90CF90BF90B4
:10215000AF909F908F907F905F904F900C94E00F86
:102160002A960FB6F894DEBF0FBECDBFDF91CF9198
:102170001F910F91FF90EF90DF90CF90BF90AF90A5
:102180009F908F907F905F904F900895CF93DF93B3
:10219000CDB7DEB72B970FB6F894DEBF0FBECDBF1D
:1021A0004F83588769877A878B87DE01119686E08F
:1021B000FD0111928A95E9F785E0FE0137960190BD
:1021C0000D928A95E1F749815A816B817C818D81DD
:1021D0009E810E941A182B960FB6F894DEBF0FBE90
:1021E000CDBFDF91CF910895FC01808191810E9444
:1021F000E61A0895CF93DF931F92CDB7DEB78823F9
:1022000009F42DC1682F8238C1F40E94330F81FD7B
:1022100026C169E380910001909101010E94C41CD4
:102220000E94711B2FEF81EE94E02150804090407E
:10223000E1F700C0000069E319C0833811F50E947E
:10224000330F80FD0CC163E5809100019091010185
:102250000E94C41C0E94711B2FEF81EE94E021505C
:1022600080409040E1F700C0000063E580910001EC
:10227000909101010E94C61C0F90DF91CF910C94A8
:10228000711B8438C1F40E94330F82FDE8C067E4FB
:1022900080910001909101010E94C41C0E94711B59
:1022A0002FEF81EE94E0215080409040E1F700C094
:1022B000000067E4DBCF8CEF860F813A70F4862F45
:1022C00069830E94512469818111C9C080910001F4
:1022D000909101010E94C41CCFCF80E2860F88300C
:1022E00048F4677081E001C0880F6A95EAF70E94A0
:1022F000281BC2CF8BE5860F833088F4653A29F01E
:10230000663A31F083E890E005C081E890E002C0D1
:1023100082E890E00F90DF91CF910C94960F88E5C2
:10232000860F873108F091C0683A09F445C0693AD0
:1023300009F445C06A3A09F445C06B3A09F445C04E
:102340006C3A09F445C06B3B09F445C06C3B09F499
:1023500045C06D3A09F445C0603B09F445C06E3A8A
:1023600009F445C06F3A09F445C0613B09F445C022
:10237000623B09F445C0633B09F445C0643B09F482
:1023800045C0653B09F445C0663B09F445C0673B61
:1023900009F445C0683B09F445C0693B09F445C0F0
:1023A0006D3B09F445C06E3B09F445C06A3B09F436
:1023B00045C080E090E044C082EE90E041C089EEEC
:1023C00090E03EC08AEE90E03BC085EB90E038C0E4
:1023D00086EB90E035C083EB90E032C084EB90E078
:1023E0002FC087EB90E02CC08CEC90E029C08DECE6
:1023F00090E026C083E891E023C08AE891E020C005
:1024000082E991E01DC084E991E01AC081E292E086
:1024100017C083E292E014C084E292E011C085E22A
:1024200092E00EC086E292E00BC087E292E008C024
:102430008FE690E005C080E790E002C08AE292E07B
:102440000F90DF91CF910C94AC0F603F40F0862F3E
:102450000E946A1E0F90DF91CF910C94571F0F902E
:10246000DF91CF910895882309F464C0823879F40C
:102470000E94330F81FF5EC069E38091000190915B
:1024800001010E94C41C0E94711B69E310C08338C3
:10249000B1F40E94330F80FF4DC063E580910001CD
:1024A000909101010E94C41C0E94711B63E5809100
:1024B0000001909101010E94C61C0C94711B84388C
:1024C00079F40E94330F82FF35C067E480910001E8
:1024D000909101010E94C41C0E94711B67E4E7CF28
:1024E0009CEF980F913A10F4682FE1CF90E2980F8B
:1024F000983050F4877091E001C0990F8A95EAF7FF
:10250000892F0E942E1BD9CF9BE5980F933020F482
:1025100080E090E00C94960F98E5980F973120F4A6
:1025200080E090E00C94AC0F803F20F00E94D21E1F
:102530000C94571F0895CF93C82F0E94FA10C933E7
:1025400049F42FEF87EE93E0215080409040E1F76F
:1025500000C000008C2FCF910C943312882321F0FF
:102560000E94281B0C94711B0895882321F00E945F
:102570002E1B0C94711B08954F925F926F927F9265
:10258000BF92CF92DF92EF92FF920F931F93CF9360
:10259000DF937C01062FC72FFC01158112951F7058
:1025A000D281D1110E94451B0E941E1B882379F005
:1025B000DD2369F080E2800F883048F082E00E94DD
:1025C000BC1B0E941E1B91E0B82EB92601C0B12C85
:1025D000CC2EC2948FE0C822D12CF601E859FF4FCF
:1025E0000C94962D8C2F807FCF70882311F0C2958C
:1025F000C07FDD2399F0CC2309F4CEC180E2800FA7
:10260000883010F0011104C08C2F0E94281B03C0D9
:102610008C2F0E94381B0E94711BBEC1802F0E940C
:102620003312CC2309F4DDC180E2800F883010F032
:10263000011104C08C2F0E942E1B03C08C2F0E94FE
:102640003E1B0E94711BCDC18C2F807FCF708032CA
:1026500011F0C295C07F002319F00130C9F022C0EB
:10266000DD2371F0112341F0113031F40E94581B29
:102670008C2B0E945E1BB5C10E94581B8C2B45C140
:10268000112319F0113009F4ACC10E94671B23C05B
:10269000DD2321F0163008F0A4C10EC0153008F07B
:1026A000A0C119C0DD2351F0112331F0F70185815C
:1026B00080FF72C18F7085838C2F27C1112359F041
:1026C000093309F07AC1FFEF27EE83E0F150204093
:1026D0008040E1F770C18C2F1EC18C2F86958695A6
:1026E000837090E0009719F0019761F07AC1DD23C3
:1026F00021F0802F9C2F937002C080E090E00E9418
:10270000960F7FC1DD2321F0802F9C2F937002C094
:1027100080E090E00E94AC0F74C1DD23F9F0053F2A
:1027200051F0063F71F0043FA9F480912502909189
:10273000260281600BC08091250290912602826062
:1027400005C0809125029091260284609093260214
:1027500080932502802F0E946A1E1EC0053F51F003
:10276000063F71F0043FA9F4809125029091260262
:102770008E7F0BC080912502909126028D7F05C02F
:1027800080912502909126028B7F90932602809360
:102790002502802F0E94D21E0E94571F32C18C2F0B
:1027A000837009F04BC0D11128C1202F22952695A6
:1027B0002770220F220F602F6F70862F90E0A0E00D
:1027C000B0E02C013D01022E04C0440C551C661CD7
:1027D000771C0A94D2F704FF10C08FE090E0A0E0CD
:1027E000B0E004C0880F991FAA1FBB1F2A95D2F71B
:1027F00080959095A095B09503C080E090E0DC01B5
:10280000C695C695C370D0E0BC01CD016429752979
:1028100086299729C230D10559F0C330D10559F026
:10282000219719F00E945F19E8C00E944D19E5C078
:102830000E947119E2C00E944B19DFC0DD2319F01C
:102840008C2F817001C08695882309F4D6C0202F73
:10285000229526952770220F220F602F6F70862FEA
:1028600090E0A0E0B0E02C013D01022E04C0440C39
:10287000551C661C771C0A94D2F704FF10C08FE029
:1028800090E0A0E0B0E004C0880F991FAA1FBB1F12
:102890002A95D2F780959095A095B09503C080E0D9
:1028A00090E0DC01C695C695C370D0E0BC01CD01B7
:1028B0006429752986299729C230D10559F0C3307A
:1028C000D10559F0219719F00E94251A96C00E944F
:1028D000131A93C00E94371A90C00E9486198DC0A7
:1028E000802F90E0FC01E05EF109E531F10508F090
:1028F0004FC0E858FF4F0C94962D0F708C2F8F719E
:10290000DD2331F00E94AC19802F0E94AE1269C005
:102910000E94CD19802F0E94B51263C0DD2341F0C3
:10292000153008F05EC08C2F8F710E94F21959C0CB
:10293000163008F056C0F7CFDD2339F08C2F8F7199
:102940000E94AC194EC0DD23C9F38C2F8F710E94F9
:10295000CD1947C0DD2329F08C2F8F710E94971964
:1029600040C00E9492193DC0DD2349F0CF718C2FE9
:102970000E94AC1963E08C2F0E94A71B32C081E03B
:102980000E94BC1B123068F182E00E94BC1B29C06F
:10299000DD2331F0112391F2802F0E94FA1021C023
:1029A000112399F2093349F49FEFE7EEF3E09150D8
:1029B000E040F040E1F700C00000802F0E94331299
:1029C00010C04C2F4F70602FC7010E949A0A0E94BE
:1029D000BE1817C04C2F4F70602FC7010E949D0A70
:1029E00010C028E0C216D10441F05CF09AE0C91A88
:1029F000D108E2E0CE16D10420F40E94330F0E94E9
:102A00008C09BB20F1F00E941A1B80FD1AC0F7014F
:102A100012820E94141B0E94AC19C7010E942F153C
:102A20000E94141BDF91CF911F910F91FF90EF90A7
:102A3000DF90CF90BF907F906F905F904F900C94FD
:102A4000CD19DF91CF911F910F91FF90EF90DF9003
:102A5000CF90BF907F906F905F904F9008950F93AD
:102A60001F93CF93DF93EC01888199812B813C8167
:102A7000232BB9F09F3F11F48F3F99F0CE010E94B4
:102A8000A409882371F0688179818A810E94F11AF2
:102A90008C010E94491A0E944A19B801CE010E9475
:102AA000BC12DF91CF911F910F9108950E94451B99
:102AB0000E94551B0E94711B0E947F200E94571F7D
:102AC00080E090E00E94960F80E090E00C94AC0FC4
:102AD00080910001909101010E94C81C0C94561530
:102AE0000E94351B0C946815E92FE295EF70F0E019
:102AF0003297EE30F105B0F4E357FF4F0C94962D6A
:102B0000803F91F018F4803E68F40EC0843F51F489
:102B10000BC0803E48F0813F29F406C093FB882714
:102B200080F9089580E0089581E008950E94E61AF2
:102B30000E9474150895CF93DF9300D000D01F92A8
:102B4000CDB7DEB70F900F900F900F900F90DF91E1
:102B5000CF910895CF93DF9300D000D000D0CDB7B0
:102B6000DEB726960FB6F894DEBF0FBECDBFDF915D
:102B7000CF9108951F93CF93DF93C091850116E005
:102B800080918601C81799F0D0E01C9FF0011D9F2D
:102B9000F00D1124E957FE4F40815181628173810C
:102BA000848195810E94AA152196C770E9CFDF9193
:102BB000CF911F9108954091B7015091B801609154
:102BC000B9017091BA018091BB019091BC010C9444
:102BD000AA158091BC0182958F7009F054C0809134
:102BE000B901882309F44FC080918501A091860125
:102BF0006091B7017091B8014091BA015091BB0149
:102C0000B6E08A1709F43FC090E041155105C1F1C3
:102C10007F3F11F46F3FA1F1B89FF001B99FF00D14
:102C20001124E957FE4F218172132AC020816213BB
:102C300027C02281211124C0238134812417350724
:102C400010F421503109241B350B283C3105C0F408
:102C50002091BC012F7020612093BC0126E0289FA9
:102C6000F001299FF00D1124E457FE4F80818F70F1
:102C70008061808387EB91E00E942F150C94BA1538
:102C800001968770BECF0895CF92DF92EF92FF92A8
:102C90000F931F93CF93DF93CDB7DEB762970FB635
:102CA000F894DEBF0FBECDBF8C0185E0F801DE01D8
:102CB0001D9601900D928A95E1F7D8014C911196DD
:102CC0005C91119712966C9112971396CD90DC90AF
:102CD00014973091B7017091B8018091BA01909129
:102CE000BB01009709F46BC17F3F19F43F3F09F422
:102CF00066C1E090B901EE2009F4C0C02091BC018A
:102D0000C816D90628F0F601E81BF90BCF0104C05C
:102D1000809590958C0D9D1DFF24F394883C910522
:102D200078F0F12C207F09F0C6C07C2DD98AC88AA2
:102D300089890E949B1587EB91E00E942F15B1C0F5
:102D4000822F807F09F046C0751314C0341312C05F
:102D5000611110C02F7020612093BC010E94DB150F
:102D600087EB91E00E942F158091BC01D801159648
:102D70008C932EC0CD2819F15F3F11F44F3FF9F02D
:102D8000F62E61111CC0809185012091860136E0EC
:102D9000821709F45AC090E0389FF001399FF00D76
:102DA0001124E957FE4F7181571306C070814713F4
:102DB00003C07281711103C001968770E9CFF62EAE
:102DC000662309F427C18091BC0181608093BC0116
:102DD000F12C20C1751308C0341306C0611104C062
:102DE0008091BC01D801C3C04D875E878D859E85CB
:102DF0006A8B0E9496156A898823E1F16623D1F1D6
:102E00002091BC01822F82958F7090E0029774F020
:102E10008091B7019091B80198878F831986DB86DE
:102E2000CA862C87CE0107960E942F1586E0F801EE
:102E3000A7EBB1E001900D928A95E1F70E94E915A8
:102E40000E94DB15FF24F394E5C04D875E878D85D6
:102E50009E850E94E61A292F22952F7030E022309D
:102E600031050CF0CBC09F7009F0C5C0805E883082
:102E700008F4D0C0C8010E942F15E4CFC816D906A7
:102E800008F453C0F601E81BF90BCF01883C91050B
:102E900008F450C0F12C7C2DD98AC88A89890E94F7
:102EA0009B15E7EBF1E086E0DF011D928A95E9F7DB
:102EB0000E94DB15AFC0751314C0341312C061112A
:102EC00010C08091BC01F8018583C8010E942F15B4
:102ED00086E0E7EBF1E0DF011D928A95E9F7FE2C31
:102EE00099C04D875E878D859E856A8B0E94961559
:102EF0006A89882309F4BECF662309F4BBCF2091E9
:102F0000BC01822F82958F7090E002970CF48ECFD7
:102F10008091B7019091B8019A8389831B82DD82E9
:102F2000CC822E83CE0101967FCF809590958C0D1B
:102F30009D1DACCFF62E662309F49CCF75132EC0D1
:102F400034132CC02091BC0120FD1FC0822F82951C
:102F50008F70D9F0D80115962C9315978F3049F0C2
:102F60008F5F982F9295907F822F8F70892B159667
:102F70008C93C8010E942F1586E0F801A7EBB1E001
:102F800001900D928A95E1F793CF86E0F801A7EBC7
:102F9000B1E001900D928A95E1F73CC04D875E87C4
:102FA0008D859E850E949615811140CF8091BC0130
:102FB00081608093BC01C8010E942F152BC066233D
:102FC00009F458CF4D875E878D859E850E949615A2
:102FD000F82E882309F44ECF86E0F801A7EBB1E084
:102FE00001900D928A95E1F787EB91E00E94F41031
:102FF0000E94E9155DCF811139CF0CC02430310515
:103000000CF038CF9F7009F431CFF8019581907F93
:1030100009F02CCF8F2D62960FB6F894DEBF0FBE4D
:10302000CDBFDF91CF911F910F91FF90EF90DF9077
:10303000CF9008951F93CF93DF93CDB7DEB72C9732
:103040000FB6F894DEBF0FBECDBF4F835887698798
:103050007A878B879C87CE0107960E944416882327
:1030600069F08F8198852A853B85232BF1F19F3F5D
:1030700009F063C08F3F09F060C037C086E0FE01F1
:103080003796DE01119601900D928A95E1F76F81D6
:103090007885EA85FB85309741F17F3F11F46F3FDA
:1030A00021F12091860130E0C901019687709927AE
:1030B0004091850150E08417950709F447C0698362
:1030C0007A83FD83EC8396E0929FD001939FB00DAD
:1030D0001124A957BE4FFE01319601900D929A9589
:1030E000E1F7809386010E94BA1516E08091850170
:1030F000909186018917C1F1189FC0011124895749
:103100009E4F0E944416882379F1E09185011E9F0D
:10311000F0011124E957FE4F408151816281738192
:10312000848195810E94AA158091850190E0019685
:103130008770992780938501D9CF4F8158856985FC
:103140007A858B859C850E94AA15CFCF0E94701529
:103150001092860110928501E7EBF1E086E0DF0135
:103160001D928A95E9F7C1CF2C960FB6F894DEBF71
:103170000FBECDBFDF91CF911F910895EF92FF92C7
:103180000F931F93CF93DF938C01892B09F46CC0AD
:10319000F12CEE24E394E8012196F8018491843720
:1031A00040F4843008F051C0813081F0823019F150
:1031B0005BC0853709F444C0A8F19CE7980F9037AD
:1031C00008F052C08F770E94331241C00E5F1F4F2C
:1031D000FE01C49180E28C0F883048F4C7708E2DB8
:1031E00001C0880FCA95EAF70E94481B14C08C2FB3
:1031F0000E94FA102DC00E5F1F4FFE01C49180E2A5
:103200008C0F883058F4C7708E2D01C0880FCA9576
:10321000EAF70E944E1B0E94711B1AC08C2F0E945D
:10322000331216C00E5F1F4FFE01C491CC2381F0F4
:103230008FE99FE00197F1F700C00000C150F6CF81
:103240000E5F1F4FFE01F49003C00E94FA108E0122
:103250008F2D882309F49FCFEFE9FFE03197F1F735
:1032600000C000008150F5CFDF91CF911F910F91E9
:10327000FF90EF90089508950C943B190E943C191B
:103280006093F8017093F9018093FA019093FB0128
:103290000C94561508950C943E190F931F930091AA
:1032A000F8011091F9012091FA013091FB01602B96
:1032B000712B822B932B1F910F910C943E190F931E
:1032C0001F930091F8011091F9012091FA013091BA
:1032D000FB0160237123822393231F910F910C9490
:1032E0003E190F931F930091F8011091F90120915D
:1032F000FA013091FB0160277127822793271F91E4
:103300000F910C943E1908950C9483190E9484190E
:103310006093F4017093F5018093F6019093F701A7
:103320000C94561560E070E0CB010C9486190F9355
:103330001F9341E050E060E070E08A019B0104C00F
:10334000000F111F221F331F8A95D2F7C901B80140
:103350001F910F910C9486190F931F9341E050E039
:1033600060E070E004C0440F551F661F771F8A9508
:10337000D2F78091F4019091F501A091F601B091FE
:10338000F7018A019B01082B192B2A2B3B2BC90122
:10339000B8011F910F910C9486190F931F9341E070
:1033A00050E060E070E004C0440F551F661F771FB7
:1033B0008A95D2F740955095609570958091F4016B
:1033C0009091F501A091F601B091F7018A019B015E
:1033D000082319232A233B23C901B8011F910F9108
:1033E0000C9486190F931F9341E050E060E070E069
:1033F00004C0440F551F661F771F8A95D2F780912E
:10340000F4019091F501A091F601B091F7018A01C4
:103410009B01082719272A273B27C901B8011F91BB
:103420000F910C9486190F931F930091F401109142
:10343000F5012091F6013091F701602B712B822B61
:10344000932B1F910F910C9486190F931F9300914A
:10345000F4011091F5012091F6013091F7016023FC
:103460007123822393231F910F910C9486190F933C
:103470001F930091F4011091F5012091F601309114
:10348000F70160277127822793271F910F910C94D2
:103490008619089529E0929F800D1124A82FA695E2
:1034A000A695A695877051E001C0550F8A95EAF759
:1034B00085E0A89FD001112420E030E070E0F90100
:1034C000EA0FFB1FE354FE4F4081CB01022E02C0E6
:1034D000969587950A94E2F78170992781958427BC
:1034E0008523842780832F5F3F4F2530310539F7AF
:1034F000089529E0929F800D1124682F66956695A6
:103500006695982F977085E0689FB001112440E080
:1035100050E080E0FA01E60FF71FE354FE4F2081F0
:1035200030E0092E02C0369527950A94E2F7217003
:103530003327042E01C0220F0A94EAF7822B4F5F33
:103540005F4F4530510531F70895BF92CF92DF921A
:10355000EF92FF920F931F93CF93DF938C01C09054
:10356000F801D090F901E090FA01F090FB01809110
:10357000F4019091F501A091F601B091F701C82AEC
:10358000D92AEA2AFB2ACFE1D0E0D701C6010C2EC6
:1035900004C0B695A795979587950A94D2F780FFB2
:1035A00007C0BC2EB8018C2F0E94B80A019719F4ED
:1035B000219758F7B12C8B2DDF91CF911F910F914F
:1035C000FF90EF90DF90CF90BF900895CF93DF935F
:1035D000EC010E94A51ABE010E94B80ADF91CF91AA
:1035E00008951F93CF93DF93EB019091840199236A
:1035F00021F0CB010E94E61A13C0882349F0CB01C9
:103600000E94A51A182F682FCE010E944A1A04C0E2
:10361000CB010E94791A182FBE01812F0E94B80A8F
:10362000DF91CF911F9108958091FC01859585953B
:10363000859508958091FC01877008959091FC0113
:10364000977081E009F480E0089580910802089560
:1036500090910802892B809308020895809590919B
:1036600008028923809308020895109208020895A1
:1036700090910702892B809307020895809590917D
:103680000702892380930702089510920702089584
:1036900090910602892B809306020895809590915F
:1036A0000602892380930602089510920602089567
:1036B0008091FD01089508950C945B1B9091FD018C
:1036C000981721F08093FD010C945C1B0895809164
:1036D000FD01882329F01092FD0180E00C945C1B11
:1036E0000895E0910001F09101018091080280832A
:1036F000E0910001F0910101908180910702892BF6
:103700008083E0910001F091010190818091060297
:10371000892B80838091FD01882381F0E091000155
:10372000F09101019081892B80838091000190911B
:1037300001010E94921C81110E94671B809100016F
:10374000909101010C943F0F08950C94A41B98E0F4
:10375000899F90011124262B2093FC010E94AC1913
:103760008091FC018595859585950C94A51B1092FB
:10377000FC0180E00C94A51B2091FC018095822324
:103780008093FC01982F977079F430E0482F082E31
:10379000000C550B2417350739F0859585958595CF
:1037A0000E94CD190C94B71B089590933F0180930C
:1037B0003E0108958295982F9C7C392F3695369539
:1037C000282F237344E0249FC0011124932F982BAA
:1037D000292F2A7A2695892F8575880F822B08959F
:1037E0001F93CF93DF931F92CDB7DEB799830E94CB
:1037F000DA1B182F9981892F0E94DA1B212F30E0C4
:10380000322F2227A901482BCA010F90DF91CF91B7
:103810001F91089580E090E00E94B82D21E08D3E38
:103820009E4F09F020E0822F089582E090E00C94F2
:10383000B02D83E090E00C94B02D84E090E00C94E7
:10384000B02D682F84E090E00C94BE2DAB01BC013C
:103850008FE090E00C94D02DAB01BC0183E190E0AF
:103860000C94D02D60E070E0CB010C942C1C60E037
:1038700070E0CB010E94261C0C94321C6DEE7EEF92
:1038800080E090E00E94DC2D60E082E090E00E9409
:10389000BE2D60E083E090E00E94BE2D1092F80102
:1038A0001092F9011092FA011092FB0160E084E09D
:1038B00090E00E94BE2D60E085E090E00E94BE2D69
:1038C00060E086E090E00E94BE2D6FEF87E090E020
:1038D0000E94BE2D40E050E0BA0188E090E00E94D6
:1038E000D02D60E08DE090E00E94BE2D40E050E0E1
:1038F000BA0188E190E00E94D02D60E087E190E07D
:103900000E94BE2D40E050E0BA018CE190E00E94A0
:10391000D02D60E080E290E00E94BE2D0C94371C18
:103920000C943E1CFC01329697E080E0915029F007
:1039300021912223D9F38F5FF9CF08959C01FC01D7
:1039400032969FEF80E04191461789F09F3F19F42E
:10395000411101C0982F8F5F8630A9F79F3F39F042
:10396000F901E90FF11D97FDFA9562830895089515
:10397000FC01329608962081261301C010823196F0
:10398000E817F907C1F708950C949E1C0C94B81C15
:10399000029626E0FC0111922A95E9F70895089510
:1039A0000C94CF1C0E94D01C80913102843049F1CC
:1039B00010920A0220E488E190E00FB6F894A895EE
:1039C000809360000FBE2093600080E00E948C090D
:1039D0000E94D01C83B7817F846083BF83B78160DE
:1039E00083BF7894889583B78E7F83BF0FB6F89492
:1039F000A8958091600088618093600010926000BB
:103A00000FBE089508950895CF930E94021D0E944D
:103A1000AE0D0E94031DC0E08C2F0E94130D892B58
:103A200029F4CF5FC930C1F780E001C081E0CF91B8
:103A3000089508950C94191D0E9470150E94330F6B
:103A40000E948C090C941A1D1F920F920FB60F92B0
:103A500011248F939F93AF93BF9380910A0281119A
:103A600013C08091270290912802A0912902B09161
:103A70002A024196A11DB11D80932702909328022E
:103A8000A0932902B0932A02BF91AF919F918F9189
:103A90000F900FBE0F901F90189582E084BD93E0A9
:103AA00095BD9AEF97BD80936E0008952FB7F89457
:103AB0008091270290912802A0912902B0912A02B8
:103AC0002FBF08952FB7F8946091270270912802B4
:103AD0008091290290912A022FBF0895CF92DF9200
:103AE000EF92FF920F931F932FB7F8944091270204
:103AF000509128026091290270912A022FBF6A0119
:103B00007B01EE24FF248C0120E030E0C016D106BA
:103B1000E206F30610F4415051099A01281B390BB3
:103B2000C9011F910F91FF90EF90DF90CF90089502
:103B300078941F920F920FB60F9211248F939F9338
:103B4000AF93BF938091270290912802A091290200
:103B5000B0912A020196A11DB11D80932702909376
:103B60002802A0932902B0932A02BF91AF919F919E
:103B70008F910F900FBE0F901F90189587E797E7D2
:103B800090930108809300089AE088E10FB6F894BA
:103B9000A895809360000FBE90936000FFCF0E94B5
:103BA0000A1C811102C00E94901C0E94151C809367
:103BB00009020E941D1C90E090932C0280932B021E
:103BC0000E94191C682F70E080E090E00C944B1963
:103BD00080910E0280FF0BC06091050185E0689F17
:103BE000B001112475956795759567952BC081FF78
:103BF00009C06091050185E0689FB00111247595A9
:103C0000679520C082FF07C06091050185E0689F2D
:103C1000B001112417C090910D029923D1F0609149
:103C20000401961788F72091050185E0289F9001EF
:103C30001124929FA001939F500D112470E0CA019E
:103C40000E94822D6038710540F46115710539F0CC
:103C500002C065E070E0862F08958FE7089581E047
:103C6000089580910E0280FF08C06091030170E00A
:103C7000759567957595679521C081FF06C0609120
:103C8000030170E07595679519C082FF04C06091CB
:103C9000030170E010C090910D029923C1F0609172
:103CA00002019617A0F780910301899FC00111249A
:103CB00070E00E94822D6038710528F4611571054D
:103CC00021F0862F08958FE7089581E0089561E03F
:103CD00070E0F4CF803F21F40E94E81D819504C07C
:103CE000813F29F40E94E81D809312020895823FCB
:103CF00021F40E94E81D819504C0833F29F40E94AD
:103D0000E81D809311020895893F19F40E94311E25
:103D100005C08A3F31F40E94311E819580931302C1
:103D200008958B3F21F40E94311E819504C08C3F81
:103D300029F40E94311E809314020895843F21F4D7
:103D400080911002816017C0853F21F4809110029C
:103D5000826011C0863F21F48091100284600BC004
:103D6000873F21F480911002886005C0883F31F4BC
:103D70008091100280618093100208958D3F21F49C
:103D800080910E0281600BC08E3F21F480910E0263
:103D9000826005C08F3F29F480910E028460809379
:103DA0000E020895803F39F48091120287FF6CC0A3
:103DB0001092120269C0813F29F4809112021816F4
:103DC000BCF362C090911102823F29F497FF5CC05E
:103DD0001092110259C0833F19F41916CCF354C044
:103DE000893F41F48091130218160CF04DC01092D7
:103DF00013024AC08A3F29F48091130287FF44C00E
:103E0000F6CF8B3F39F48091140287FF3DC01092AA
:103E100014023AC08C3F29F4809114021816BCF3A6
:103E200033C0843F21F4809110028E7F17C0853FFC
:103E300021F4809110028D7F11C0863F21F4809182
:103E400010028B7F0BC0873F21F480911002877F87
:103E500005C0883F31F4809110028F7E809310025C
:103E600013C08D3F21F480910E028E7F0BC08E3FD8
:103E700021F480910E028D7F05C08F3F29F480913F
:103E80000E028B7F80930E028091110281110EC071
:103E90008091120281110AC080911302811106C023
:103EA00080911402811102C010920D020895809138
:103EB000090283FF7EC083E895E00E94120880918A
:103EC00010021F928F938EE795E09F938F930E942D
:103ED000AB088CE795E00E94120880911102282F10
:103EE000082E000C330B3F938F9389E795E09F9347
:103EF0008F930E94AB0887E795E00E94120880919B
:103F00001202282F082E000C330B3F938F9384E767
:103F100095E09F938F930E94AB0882E795E00E9403
:103F2000120880911302282F082E000C330B3F93A8
:103F30008F938FE695E09F938F930E94AB088DE659
:103F400095E00E94120880911402282F082E000C80
:103F5000330B3F938F938AE695E09F938F930E9454
:103F6000AB0887E695E00E94120880910D021F922F
:103F70008F9384E695E09F938F930E94AB0882E62F
:103F800095E00E94120880910E021F928F938FE598
:103F900095E09F938F930E94AB088CE595E00E947B
:103FA00012088DB79EB74C960FB6F8949EBF0FBE01
:103FB0008DBF8FE092E00E94880F0E94561D909363
:103FC0000C0280930B0208951F93CF93DF9380918F
:103FD0000B0290910C020E946E1DAC0190910D029B
:103FE000992321F02091060130E006C020910701BD
:103FF0008AE0289F900111244217530708F47BC0E0
:1040000080911102C0911202D091130210911402FA
:10401000811107C0C1116BC0D11169C0111167C0F6
:104020006AC09F3F19F09F5F90930D02181624F409
:104030000E94E81D809311028091110287FF05C044
:104040000E94E81D8195809311021C1624F40E94A1
:10405000E81D809312028091120287FF05C00E9422
:10406000E81D819580931202309111023323E1F013
:10407000209112022223C1F045EB3403C001112428
:10408000892F990F990B009709F481E08093110211
:1040900035EB2303C0011124892F990F990B009749
:1040A00009F481E0809312021D1624F40E94311E4F
:1040B000809313028091130287FF05C00E94311E76
:1040C000819580931302111624F40E94311E80936F
:1040D00014028091140287FF05C00E94311E819551
:1040E00080931402DF91CF911F910C94571F9F3F33
:1040F00009F099CFA1CFDF91CF911F910895EFE003
:10410000F2E086E0DF011D928A95E9F710920D0238
:1041100010920E02089586EA97E00E9412081F92FC
:1041200081E08F931F9285E08F9388E597E09F93BE
:104130008F930E94AB080F900F900F900F900F90ED
:104140000F9008958330E9F128F4813061F08230D6
:1041500009F10895853009F462C008F449C0863039
:1041600009F474C0089580910701262F30E0280FCC
:10417000311D2F3F310524F4680F6093070103C000
:104180008FEF80930701809107011F928F9381E940
:1041900096E072C080910601262F30E0280F311D75
:1041A0002F3F310524F4680F6093060103C08FEFA1
:1041B00080930601809106011F928F938FE796E00E
:1041C0005BC080910501262F30E0280F311D2F3F65
:1041D000310524F4680F6093050103C08FEF8093CD
:1041E0000501809105011F928F938CE696E044C0F3
:1041F00080910401262F30E0280F311D2F3F31051B
:1042000024F4680F6093040103C08FEF80930401CE
:10421000809104011F928F9387E596E02DC08091D5
:104220000301262F30E0280F311D2F3F310524F4E4
:10423000680F6093030103C08FEF809303018091A7
:1042400003011F928F938EE396E016C080910201C6
:10425000262F30E0280F311D2F3F310524F4680F41
:104260006093020103C08FEF8093020180910201ED
:104270001F928F9383E296E09F938F930E94AB08E7
:104280000F900F900F900F900895833081F128F4D4
:10429000813059F08230D1F00895853009F449C059
:1042A000B8F1863009F456C0089580910701681767
:1042B00020F4861B8093070102C0109207018091B1
:1042C00007011F928F9384E196E054C0809106010C
:1042D000681720F4861B8093060102C01092060125
:1042E000809106011F928F9382E096E043C08091F7
:1042F0000501681720F4861B8093050102C0109207
:104300000501809105011F928F938FEE95E032C0D9
:1043100080910401681720F4861B8093040102C079
:1043200010920401809104011F928F938AED95E011
:1043300021C080910301681720F4861B809303013C
:1043400002C010920301809103011F928F9381ECB0
:1043500095E010C080910201681720F4861B8093BD
:10436000020102C010920201809102011F928F93FC
:1043700086EA95E09F938F930E94AB080F900F9071
:104380000F900F900895CF93C82F1F928F938BEAB1
:1043900098E09F938F930E94AB0881E090E0A0E0AB
:1043A000B0E0BC01CD0104C0660F771F881F991FC4
:1043B000CA95D2F70E944B190F900F900F900F9053
:1043C000CF910C947015CF938B3109F4D1C108F0C3
:1043D00067C18B3009F48AC108F03DC1863009F409
:1043E00088C120F4853009F496C144C2873009F4AD
:1043F000A4C1883009F03EC28DEB9DE00E941208F6
:104400008EE09DE00E9412080E94191C1F928F935B
:104410008BE09DE09F938F930E94AB0889E09DE025
:104420000E9412080E94151CC82F86EF9CE00E9473
:1044300012081F92CF9381EF9CE09F938F930E946D
:10444000AB088FEE9CE00E94120885EE9CE00E9473
:1044500012088C2F81701F928F9382EE9CE09F93A5
:104460008F930E94AB0880EE9CE00E94120886EDBC
:104470009CE00E941208C1FB882780F91F928F934D
:1044800083ED9CE09F938F930E94AB0881ED9CE0AD
:104490000E94120885EC9CE00E941208C2FB88274B
:1044A00080F91F928F9382EC9CE09F938F930E94E0
:1044B000AB0880EC9CE00E94120887EB9CE00E9415
:1044C0001208C3FBCC27C0F91F92CF9384EB9CE06A
:1044D0009F938F930E94AB0882EB9CE00E9412088E
:1044E0000E941D1CC82F8EE99CE00E9412081F929A
:1044F000CF9389E99CE09F938F930E94AB0887E953
:104500009CE00E9412088EE79CE00E9412088C2F0B
:1045100081701F928F938BE79CE09F938F930E94F3
:10452000AB088DB79EB780960FB6F8949EBF0FBEAE
:104530008DBF89E79CE00E94120882E69CE00E9401
:104540001208C1FB882780F91F928F938FE59CE0AA
:104550009F938F930E94AB088DE59CE00E94120808
:104560008BE49CE00E941208C2FB882780F91F920E
:104570008F9388E49CE09F938F930E94AB0886E41E
:104580009CE00E94120884E39CE00E941208C3FB96
:10459000882780F91F928F9381E39CE09F938F93EC
:1045A0000E94AB088FE29CE00E94120885E29CE02A
:1045B0000E941208C4FB882780F91F928F9382E221
:1045C0009CE09F938F930E94AB0880E29CE00E9446
:1045D00012088EE09CE00E941208C5FB882780F933
:1045E0001F928F938BE09CE09F938F930E94AB0868
:1045F00089E09CE00E9412088DEE9BE00E94120868
:10460000C6FB882780F91F928F938AEE9BE09F93C9
:104610008F930E94AB0888EE9BE00E94120880EE08
:104620009BE00E941208C7FBCC27C0F91F92CF93D2
:104630008DED9BE09F938F930E94AB088BED9BE0E9
:104640000E9412088DB79EB74C960FB6F8949EBF85
:104650000FBE8DBF49C0803109F4B4C020F48E3044
:1046600009F49AC007C1863109F4C7C0893109F03D
:1046700001C182E09AE00E94120889EE99E00E944E
:1046800012088FEA99E00E9412088AE799E00E94D6
:10469000120884E499E00E94120889E199E08FC031
:1046A0008A32E1F060F4873209F4E0C028F48E31F8
:1046B00008F4E0C08D51DBC0893269F1DBC083347E
:1046C00048F48A3308F0D0C0853309F4CFC088336A
:1046D00069F0D0C0833409F4C9C0CCC08CEA9DE035
:1046E0000E9412080E94901CC1E0C9C088E39AE0B1
:1046F00066C080910902817F8E7F8093090281E1EB
:104700009AE00E94120888EA9DE00E94120881E067
:1047100080931602E9CF0E9470158CE89DE00E94FC
:1047200012089FEF23ED80E3915020408040E1F795
:1047300000C000000E94BE1DD7CF80910902C82F83
:10474000C095C170C0FB80F980930902CC2329F089
:1047500080E89DE00E94120892C083E79DE00E94DD
:10476000120880910902897F877F80930902BCCF5C
:104770009091090291FBCC27C0F981E0C827892FCD
:10478000C0FB81F980930902CC2319F086E69DE0F5
:1047900029C088E59DE013C09091090292FBCC27C7
:1047A000C0F981E0C827892FC0FB82F980930902F4
:1047B000CC2319F089E49DE015C089E39DE00E94B7
:1047C000120892CF9091090293FBCC27C0F981E0A7
:1047D000C827892FC0FB83F980930902CC2351F0AD
:1047E0008DE29DE00E941208809109028160809311
:1047F000090245C080E29DE0E2CF8BE099E00E9493
:1048000012080E94330F1F928F9381EF98E09F93BD
:104810008F930E94AB08809112011F928F938AEDB3
:1048200098E09F938F930E94AB08809123021F9280
:104830008F9387EC98E09F938F930E94AB080E9420
:10484000621D9F938F937F936F9380EB98E09F936C
:104850008F930E94AB088DB79EB742960FB6F8941F
:104860009EBF0FBE8DBF40CF895301C080E00E9424
:10487000C3213ACF8EE19DE00E941208C0E08C2F48
:10488000CF91089580E0089580E008958E518A3098
:1048900030F4E82FF0E0EB5DFE4F8081089580E07A
:1048A0000895CF93C82F80911602813059F020F0DF
:1048B000823009F445C039C10E94251B823209F0BB
:1048C00036C104C00E94251B823261F48C2F0E94E5
:1048D0004224811104C08C2F0E94E3212FC081E06B
:1048E00090E02CC08C2F0E944424811126C0C4313A
:1048F000E1F070F4CB3081F0C031D1F40E948B2014
:1049000083EA98E00E94120882E08093160215C0A4
:10491000C93259F0C83361F481E19AE00E9412086B
:1049200087EA98E00E94120808C01092160201C19E
:1049300081EA98E00E941208FCC081E08170FBC00F
:10494000C43228F5CE3108F0C1C0CB30A1F1D0F48B
:10495000C73009F0D0C08EE18093070182E38093D5
:1049600006018AE08093050184E18093040188E0D8
:104970008093030188E28093020187E497E00E941C
:104980001208BCC0C33149F1C431C1F0B4C0CB344A
:1049900009F4A6C028F4C93289F0C83361F0ABC06D
:1049A000C13509F49BC0C23509F496C0CE3409F074
:1049B000A2C06AE09BC00E948B20A0C0809115021B
:1049C000882319F01092150299C084E597E00E949F
:1049D000120881E080931602AEC08EE297E00E943A
:1049E00012088CE197E00E941208809107011F9243
:1049F0008F9389E197E09F938F930E94AB0887E1A3
:104A000097E00E94120885E097E00E9412088091CA
:104A100006011F928F9382E097E09F938F930E94ED
:104A2000AB0880E097E00E94120881EF96E00E94B8
:104A30001208809105011F928F938EEE96E09F934E
:104A40008F930E94AB088CEE96E00E9412088BEDCB
:104A500096E00E941208809104011F928F9388EDC6
:104A600096E09F938F930E94AB0886ED96E00E949C
:104A7000120881EC96E00E941208809103011F92B7
:104A80008F938EEB96E09F938F930E94AB088CEBF5
:104A900096E00E94120885EA96E00E941208809132
:104AA00002011F928F9382EA96E09F938F930E9458
:104AB000AB0880EA96E00E9412088DB79EB7489630
:104AC0000FB6F8949EBF0FBE8DBF18C08C2F0E94EA
:104AD00046248093150212C061E003C061E006C065
:104AE0006AE0809115020E94A22008C08091150200
:104AF0000E94452103C085E497E013C08091150210
:104B0000882369F01F928F938FE397E09F938F9391
:104B10000E94AB080F900F900F900F9004C08CE391
:104B200097E00E94120881E006C01092160280E011
:104B300002C080E003CFCF910895809122020895B2
:104B40009FB7F894109219029FBF90913102943050
:104B500009F057C09091E9009F703091EC00232F2D
:104B6000217030FD20E8922B23E02093E900209172
:104B7000EB0020FF43C02091EE0027FF3FC02091B3
:104B80001702222321F02091E80025FF37C0109260
:104B9000170226E03091E80035FD15C03091310252
:104BA000343061F53091EB0035FD28C0215021F4FF
:104BB00081E08093170222C0EFE9FFE03197F1F71F
:104BC00000C00000E7CF8093F1008091E80085FDF0
:104BD0000AC08091E80080FFFCCF8091E8008E77CA
:104BE0008093E80006C08FB7F89421E02093190263
:104BF0008FBF9F709093E90080E008959F7090931D
:104C0000E9008FEF08950F931F93CF93DF9300D0A8
:104C10001F92CDB7DEB78C010E94BE28823011F002
:104C2000843021F584E089831B830A8382E08093AA
:104C3000E9008FEF9091E800815095FD06C095ED59
:104C40009A95F1F700008111F5CF8091E80085FF7A
:104C50000DC040E050E063E070E0CE0101960E949C
:104C6000DB288091E8008E778093E8000F900F900A
:104C70000F90DF91CF911F910F910895CF93DF9304
:104C800000D01F92CDB7DEB720913102243031F52C
:104C900023E02983805891099B838A8382E0809353
:104CA000E9008FEF9091E800815095FD06C095EDE9
:104CB0009A95F1F700008111F5CF8091E80085FF0A
:104CC0000DC040E050E063E070E0CE0101960E942C
:104CD000DB288091E8008E778093E8000F900F909A
:104CE0000F90DF91CF910895CF93DF93EC010E9455
:104CF000BE28823011F08430F9F482E08093E9001C
:104D00009FEF8091E800915085FD06C085ED8A9562
:104D1000F1F700009111F5CF8091E80085FF0CC0FC
:104D200040E050E066E070E0CE010E94DB28809118
:104D3000E8008E778093E800DF91CF910895CF93BC
:104D4000DF93EC010E94BE28823011F0843039F5E7
:104D500081E08093E9008FEF9091E800815095FD0C
:104D600006C095ED9A95F1F700008111F5CF80917D
:104D7000E80085FF14C040E050E068E070E0CE013C
:104D80000E94DB288091E8008E778093E80088E01D
:104D9000FE01AAE1B2E001900D928A95E1F7DF9160
:104DA000CF9108958DEE9DE00E941208809130020F
:104DB000811109C00E94702A0E94CD2A8091E200D0
:104DC00084608093E200089589EE9DE00E941208BD
:104DD00010923002089585EE9DE00C94120881EE49
:104DE0009DE00C9412088DED9DE00E9412080C9439
:104DF0001C1D209118022F5F822F62E30E94762DE6
:104E0000992319F0209318020895109218028091A6
:104E10001902882371F180913102843041F580912B
:104E2000E9008F702091EC00922F917020FD90E8A6
:104E3000892B93E09093E9009091EB0090FF14C0D0
:104E40009091EE0097FF10C09091E80095FF03C08D
:104E50001092F100F9CF9091E80090FF05C0909179
:104E6000E8009E779093E8008F708093E90010929D
:104E70001902089542E061EC81E00E94EA2942E2D1
:104E800061EC82E00E94EA2942E261EC83E00C944A
:104E9000EA2980913302833009F460C030F4813014
:104EA00071F0823009F499C008958A3009F485C000
:104EB0008B3009F46BC0893009F0A7C020C0809105
:104EC0003202813A09F0A1C08091E800877F809387
:104ED000E8008091360290913702892B21F468E036
:104EE0008AE192E003C060E080E090E070E00E9420
:104EF00026298091E8008B778093E80008958091BF
:104F00003202813209F081C08091360290913702DD
:104F1000029708F07AC08091E800877F8093E800CC
:104F20008091E80082FD05C0809131028111F8CFA7
:104F30006CC02091F3008091F20090E0922B0297D8
:104F400029F48091F1008B7F813021F48091F10070
:104F5000809322028091E8008B7753C080913202C7
:104F6000813A09F052C08091360290913702892B24
:104F700009F04BC08091E800877F8093E800809122
:104F8000E80080FFFCCF8091120136C08091320290
:104F90008132D9F58091360290913702892BA9F59B
:104FA0008091E800877F8093E8000E941F2A80910B
:104FB0003402809312010C94701580913202813278
:104FC00021F58091E800877F8093E8000E941F2AE6
:104FD0008091350280932302089580913202813AB4
:104FE000A1F48091E800877F8093E8008091E80039
:104FF00080FFFCCF809123028093F1008091E80034
:105000008E778093E8000C941F2A089584B7877FD9
:1050100084BF0FB6F894A895809160008861809352
:105020006000109260000FBE80E8809361001092D3
:1050300061000E94D00F0E94702A0E94CD2A8091A8
:10504000E20084608093E20080EA95E20E94D51B32
:1050500078940E945B2D0E94D80F88E091E00E9416
:105060002E0F8CEC9DE00E94120880913102853059
:1050700089F488EC9DE00E9412080E94D21C809165
:105080002F02882391F30E94041D882371F30E944C
:10509000C528EBCF0E940810E8CF0C944F28292F89
:1050A000332723303105C9F064F42130310581F014
:1050B0002230310509F049C08BE590E025E23EE061
:1050C00048C02132310521F12232310571F13DC054
:1050D00082E190E020E83EE03CC0992781309105D4
:1050E00071F02CF4892B89F5E1E2FEE00DC08230ED
:1050F000910541F0039749F5E1EFFDE005C0E1E1DD
:10510000FEE002C0E7EFFDE0849190E09F0121C046
:1051100063307105D0F4660F771FFB01E85CFE4F2A
:105120002081318189E090E014C06330710568F41A
:10513000FB01EE0FFF1FEE5CFE4F20813181FB0172
:10514000E15DFE4F808190E004C080E090E020E0CF
:1051500030E0FA013183208308950895CF93C82F5A
:105160000E94AD28C0932402CF910895809131020E
:10517000843011F081E0089582E008958091240246
:10518000811102C00C94B628089580E189BD82E1A6
:1051900089BD09B400FEFDCF8091D8008F7D80933A
:1051A000D8008091E00082608093E0008091E00070
:1051B00081FDFCCF0895CF92DF92EF92FF920F9383
:1051C0001F93CF93DF93EC018B016A010E943E2A6B
:1051D000811133C0C114D10439F0F601808191816D
:1051E000081B190BC80FD91FE12CF12C0115110553
:1051F00019F18091E80085FD16C08091E8008E7756
:105200008093E800C114D10449F0F60180819181B6
:10521000E80EF91EF182E08285E00FC00E943E2A6E
:10522000882321F30AC089918093F100015011096C
:10523000FFEFEF1AFF0ADACF80E0DF91CF911F91E5
:105240000F91FF90EF90DF90CF900895209138025A
:10525000309139022617370748F06115710539F486
:105260002091E8002E772093E80001C0B90140E0CA
:1052700061157105A9F120913102222309F443C07F
:10528000253009F442C02091E80023FD40C0209160
:10529000E80022FD32C02091E80020FFE9CF4091D4
:1052A000F3002091F20030E0342BFC01CF016115B6
:1052B000710559F02830310540F481918093F10057
:1052C000615071092F5F3F4FF1CF41E02830310528
:1052D00009F040E02091E8002E772093E800C8CF45
:1052E0004111C9CF0AC080913102882361F0853015
:1052F00061F08091E80083FD0AC08091E80082FFA0
:10530000F2CF80E0089582E0089583E0089581E07F
:10531000089520913802309139022617370748F056
:105320006115710539F42091E8002E772093E8008B
:1053300001C0B901FC0120E06115710591F1809176
:105340003102882309F440C0853009F43FC08091C0
:10535000E80083FD3DC08091E80082FD2FC0809170
:10536000E80080FFE9CF2091F3008091F20090E007
:10537000922B6115710559F08830910540F4249104
:105380002093F1003196615071090196F2CF21E02E
:10539000089709F020E08091E8008E778093E8007C
:1053A000CBCF2111CCCF0AC080913102882361F08C
:1053B000853061F08091E80083FD0AC08091E800AB
:1053C00082FFF2CF80E0089582E0089583E008959F
:1053D00081E00895982F973058F59093E900981739
:1053E00039F07091EC002091ED005091F00003C075
:1053F000242F762F50E021FF19C03091EB003E7F23
:105400003093EB003091ED003D7F3093ED00309113
:10541000EB0031603093EB007093EC002093ED00D3
:105420005093F0002091EE0027FF07C09F5FD3CF7D
:105430008F708093E90081E0089580E00895809165
:10544000320287FF11C08091E80082FD05C0809183
:1054500031028111F8CF11C08091E8008B770BC029
:1054600080913102882349F08091E80080FFF8CFD5
:105470008091E8008E778093E80008952091E40001
:105480003091E50095E64091EC00842F817040FF5B
:1054900022C08091E80080FD1CC0809131028823E9
:1054A00091F0853091F08091EB0085FD10C0409126
:1054B000E4005091E5004217530729F39A019150F7
:1054C00011F784E0089582E0089583E0089581E073
:1054D000089580E008954091E80042FFDECF0895EE
:1054E0000E94DE2A0E94E62AE0EEF0E080818160E0
:1054F0008083E8EDF0E080818F77808319BCA7ED91
:10550000B0E08C918E7F8C9380818F7E808310920F
:10551000300208950F931F93CF93DF930E94DE2AEA
:105520000E94E62AC8EDD0E088818F778883888141
:105530008068888388818F7D888319BC10923102AE
:1055400010922D0210922F0210922E0200EE10E007
:10555000F80180818B7F808388818160888342E02D
:1055600060E080E00E94EA29E1EEF0E080818E7F39
:105570008083E2EEF0E080818160808380818860BA
:105580008083F80180818E7F808388818061888319
:10559000DF91CF911F910F910895E8EDF0E08081A8
:1055A0008F7E8083E7EDF0E080818160808384E0FE
:1055B00082BF81E0809330020C948A2AE8EDF0E00B
:1055C00080818E7F80831092E20008951092DA002D
:1055D0001092E10008951F920F920FB60F921124BE
:1055E0002F933F934F935F936F937F938F939F93EB
:1055F000AF93BF93EF93FF938091E10082FF0BC0C5
:105600008091E20082FF07C08091E1008B7F809350
:10561000E1000E94F9268091DA0080FF1FC080918E
:10562000D80080FF1BC08091DA008E7F8093DA0063
:105630008091D90080FF0DC080E189BD82E189BDE4
:1056400009B400FEFDCF81E0809331020E94D22692
:1056500005C019BC109231020E94E4268091E1003D
:1056600080FF19C08091E20080FF15C08091E200A8
:105670008E7F8093E2008091E20080618093E2005F
:105680008091D80080628093D80019BC85E0809317
:1056900031020E94EF268091E10084FF30C08091AA
:1056A000E20084FF2CC080E189BD82E189BD09B49C
:1056B00000FEFDCF8091D8008F7D8093D80080912F
:1056C000E1008F7E8093E1008091E2008F7E8093E5
:1056D000E2008091E20081608093E20080912D02DF
:1056E000882311F084E007C08091E30087FD02C0A9
:1056F00081E001C083E0809331020E94F326809113
:10570000E10083FF29C08091E20083FF25C08091E2
:10571000E100877F8093E10082E080933102109264
:105720002D028091E1008E7F8093E1008091E20064
:105730008E7F8093E2008091E20080618093E2009E
:1057400042E060E080E00E94EA298091F0008860F9
:105750008093F0000E94EB26FF91EF91BF91AF91F3
:105760009F918F917F916F915F914F913F912F9179
:105770000F900FBE0F901F9018951F920F920FB6AB
:105780000F9211242F933F934F935F936F937F93C7
:105790008F939F93AF93BF93CF93DF93EF93FF9339
:1057A000C091E900CF708091EC00D82FD17080FDBE
:1057B000D0E81092E9008091F000877F8093F0009C
:1057C00078940E94012C1092E9008091F00088608A
:1057D0008093F000CD2BCF70C093E900FF91EF9143
:1057E000DF91CF91BF91AF919F918F917F916F91F9
:1057F0005F914F913F912F910F900FBE0F901F908F
:1058000018951F93CF93DF93CDB7DEB7AA970FB646
:10581000F894DEBF0FBECDBFE2E3F2E088E08E0F6A
:105820009091F10091938E13FBCF0E9449278091B4
:10583000E80083FF28C18091320290913302492F02
:1058400050E04A30510508F01EC1FA01E556FF4FFD
:105850000C94962D803821F0823809F014C108C0CC
:1058600080912E0290912F02992389F082600FC0BF
:10587000809136028F70873008F005C18093E9006F
:105880008091EB0085FB882780F91092E9009091C8
:10589000E800977F9093E8008093F1001092F10068
:1058A000D0C0282F2D7F09F0EEC0882319F0823058
:1058B00061F0E9C080913402813009F0E4C0933096
:1058C00009F080E080932F022EC080913402811174
:1058D0002AC0809136028F702FEF280F263008F0F3
:1058E000D2C08093E9002091EB0020FF1CC09330D0
:1058F00021F48091EB00806214C09091EB009061E4
:105900009093EB0021E030E0A90102C0440F551F45
:105910008A95E2F74093EA001092EA008091EB004A
:1059200088608093EB001092E9008091E800877F07
:105930008093E8000E941F2AA6C08111A4C0109184
:1059400034021F778091E3008078812B8093E300FD
:105950008091E800877F8093E8000E941F2A809151
:10596000E80080FFFCCF8091E30080688093E30033
:10597000111102C082E001C083E08093310283C034
:105980008058823008F07FC08091340290913502B7
:105990008C3D53E0950779F583E08A838AE2898319
:1059A0004FB7F894DE01139620E03EE051E2E32F7A
:1059B000F0E050935700E49120FF03C0E295EF70B0
:1059C0003F5FEF708E2F90E0EA3010F0C79601C075
:1059D000C0968D939D932F5F243149F74FBF8091DF
:1059E000E800877F8093E8006AE270E0CE010196CC
:1059F0000E94262915C06091360270913702AE01CF
:105A00004F5F5F4F0E944D28BC01892BE1F19091BF
:105A1000E800977F9093E80089819A810E94892904
:105A20008091E8008B778093E8002DC0803859F58D
:105A30008091E800877F8093E80080912D02809319
:105A4000F1008091E8008E7773CF81111CC0909196
:105A500034029230C0F48091E800877F8093E800A0
:105A600090932D020E941F2A80912D02811106C061
:105A70008091E30087FD02C081E001C084E0809353
:105A800031020E943A278091E80083FF0AC080918A
:105A9000E800877F8093E8008091EB00806280932C
:105AA000EB00AA960FB6F894DEBF0FBECDBFDF9114
:105AB000CF911F910895CF93809131028823A1F057
:105AC000C091E900CF709091EC00892F817090FD1A
:105AD00080E8C82B1092E9008091E80083FD0E94C5
