:100000000C9467070C94AE070C94AE070C94AE07E3
:100010000C94AE070C94AE070C94AE070C94AE078C
:100020000C94AE070C94AE070C94812E0C94552FB3
:100030000C9401250C94AE070C94AE070C94AE07FB
:100040000C94AE070C94AE070C94AE070C94AE075C
:100050000C94AE070C9458250C94AE070C94AE0784
:100060000C94AE070C94AE070C94AE070C94AE073C
:100070000C94AE070C94AE070C94AE070C94AE072C
:100080000C94AE070C94AE070C94AE070C94AE071C
:100090000C94AE070C94AE070C94AE070C94AE070C
:1000A0000C94AE070C94AE070C94AE076874747091
:1000B000733A2F2F716D6B2E666D2F010128005141
:1000C0004D4B2069732074686520626573742074D9
:1000D00068696E67206576657221002A002E002D02
:1000E00000270026002500240023002200210020F4
:1000F000001F001E00350029004A002B0014001AC2
:10010000000800150017001C0018000C0012001356
:10011000002F00300031004C004B00280034003329
:10012000000F000E000D000B000A0009000700166A
:1001300000040039004D0046002C00E1001D001BAA
:1001400000060019000500110010003600370038C5
:1001500000E50052004E004F0051005000E4000145
:1001600051E6002C00E200E300E0002C000000005B
:100170000000000000000000000000000001004539
:1001800000440043004200410040003F003E003D6B
:10019000003C003B003A00010001000100010001A9
:1001A0000001000100010001000100010001000147
:1001B0000001000100010001000100010001000137
:1001C0000001000100010001000100010001000127
:1001D0000001000100010001000100010001000117
:1001E0000001000100010001000100010001000107
:1001F00000010001000100010001000100010001F7
:1002000000010001000100010001000100010000E7
:1002100000000000000000000000000000000001DD
:10022000004500440043004200410040003F003EC2
:10023000003D003C003B003A0001000100010001CC
:1002400000010001000100010001000100010001A6
:100250000001000100010001000100010001000196
:100260000001000100010001000100010001000186
:100270000001000100010001000100010001000176
:100280000001000100010001000100010001000166
:100290000001000100010001000100010001000156
:1002A0000001000100010001000100010001000146
:1002B000000000000000000000000000000000003E
:1002C0000001004500440043004200410040003F5F
:1002D000003E003D003C003B003A000100010001EF
:1002E0000001000100010001000100010001000106
:1002F00000010001000100010001000100010001F6
:1003000000010001000100010001000100010001E5
:1003100000010001000100010001000100010001D5
:1003200000010001000100010001000100010001C5
:1003300000010001000100010001000100010001B5
:100340000001000100E700010001000100010001BF
:10035000000100000000000000000000000000009C
:1003600000000044454255473A2064697361626C5D
:1003700065642E0A0044454255473A20656E616225
:100380006C65642E0A0000000000000000002A2BAB
:100390002800000000000000000000000000000035
:1003A0000029000000002C1E34202122243426279E
:1003B000252E362D3738271E1F20212223242526BF
:1003C0003333362E37381F0405060708090A0B0C8D
:1003D0000D0E0F101112131415161718191A1B1CD5
:1003E0001D2F3130232D350405060708090A0B0C93
:1003F0000D0E0F101112131415161718191A1B1CB5
:100400001D2F3130354C00000000000000000000BE
:10041000000000000000000000007E0F00D4FFFF7D
:10042000FFC7000000780A002530313662003A200C
:100430000025303258000A722F63203031323334B5
:1004400035363738394142434445460A006D6B5FC3
:10045000776865656C5F74696D655F746F5F6D610A
:1004600078203D2025640A006D6B5F776865656CB8
:100470005F6D61785F7370656564203D2025640A57
:10048000006D6B5F74696D655F746F5F6D6178207F
:100490003D2025640A006D6B5F6D61785F73706548
:1004A0006564203D2025640A006D6B5F696E74658C
:1004B0007276616C203D2025640A006D6B5F646577
:1004C0006C6179203D2025640A006D6B5F7768655B
:1004D000656C5F74696D655F746F5F6D6178203DF9
:1004E0002025640A006D6B5F776865656C5F6D61E0
:1004F000785F7370656564203D2025640A006D6B2C
:100500005F74696D655F746F5F6D6178203D202554
:10051000640A006D6B5F6D61785F73706565642060
:100520003D2025640A006D6B5F696E7465727661AB
:100530006C203D2025640A006D6B5F64656C6179F9
:10054000203D2025640A000A00257500363A2077F0
:100550006865656C5F74696D655F746F5F6D617808
:100560003A20000A00257500353A20776865656CE9
:100570005F6D61785F73706565643A20000A0025DD
:100580007500343A2074696D655F746F5F6D6178D2
:100590003A20000A00257500333A206D61785F73B8
:1005A000706565643A20000A00257500323A2069BA
:1005B0006E74657276616C286D73293A20000A00AA
:1005C000257500313A2064656C6179282A31306DD7
:1005D00073293A20000A092D2056616C7565732035
:1005E0002D0A004D3E004D25643E20003F007365FE
:1005F000742064656661756C740A00433E20007760
:10060000686572652064656C74613A206375727305
:100610006F723D25642C20776865656C3D25640A02
:1006200053656520687474703A2F2F656E2E776954
:100630006B6970656469612E6F72672F77696B698A
:100640002F4D6F7573655F6B6579730A000A092D0D
:10065000204D6F7573656B6579202D0A4553432FC7
:10066000713A09717569740A313A0964656C617986
:10067000282A31306D73290A323A09696E7465721D
:1006800076616C286D73290A333A096D61785F735E
:10069000706565640A343A0974696D655F746F5FEB
:1006A0006D61780A353A09776865656C5F6D6178C8
:1006B0005F73706565640A363A09776865656C5FD3
:1006C00074696D655F746F5F6D61780A0A703A09CD
:1006D0007072696E742076616C7565730A643A098C
:1006E0007365742064656661756C74730A75703A1D
:1006F000092B310A646F776E3A092D310A706775DC
:10070000703A092B31300A7067646F776E3A092DA1
:1007100031300A0A7370656564203D2064656C742D
:1007200061202A206D61785F7370656564202A20DE
:1007300028726570656174202F2074696D655F741F
:100740006F5F6D6178290A003F004D3E2000433EF7
:1007500020004C25640A0074696D65725F726561E2
:1007600064333228293A202530346C580A006B65EE
:1007700079626F6172645F69646C653A2025580A1A
:10078000006B6579626F6172645F70726F746F6322
:100790006F6C3A2025580A00686F73745F6B657937
:1007A000626F6172645F6C65647328293A20255812
:1007B0000A000A092D20537461747573202D0A00F4
:1007C0004743433A20382E332E30204156522D4C89
:1007D0004942433A20322E302E30204156525F415A
:1007E0005243483A20617672350A004F5054494FBF
:1007F0004E533A204C554641204D4F5553454B459D
:10080000592045585452414B455920434F4E534F60
:100810004C4520434F4D4D414E4420343039360A2B
:10082000004255494C443A2020284D617220203422
:100830002032303231290A005649443A2030783586
:1008400034353428545F746F797329205049443A01
:1008500020307830303032286B65795F746F79736F
:100860005F373329205645523A20307830303031C6
:100870000A000A092D2056657273696F6E202D0AD1
:10088000000A092D20436F6E736F6C65202D0A4599
:1008900053432F713A09717569740A6D3A096D6F86
:1008A0007573656B65790A000A092D204D616769CA
:1008B00063202D0A443A094465627567204D6573CB
:1008C0007361676520546F67676C650A583A094D14
:1008D0006174726978204465627567204D6F646544
:1008E00020546F67676C65202D2053686F77206BED
:1008F00065797072657373657320696E206D6174BC
:1009000072697820677269640A4B3A094B657962AB
:100910006F61726420446562756720546F67676C0D
:1009200065202D2053686F77206B65797072657331
:1009300073207265706F72740A4D3A09446562756E
:1009400067204D6F75736520546F67676C650A5635
:100950003A0956657273696F6E0A533A09537461A6
:100960007475730A433A094163746976617465204A
:10097000436F6E736F6C65204D6F64650A46312D51
:100980004631303A0953776974636820746F204C9C
:100990006179657220302D392028463130203D2084
:1009A0004C30290A302D393A09537769746368202D
:1009B000746F204C6179657220302D390A4752419D
:1009C00056453A0953776974636820746F204C6107
:1009D00079657220302028616C7465726E6174656F
:1009E000290A423A094A756D7020746F20426F6F70
:1009F000746C6F616465720A4553433A094A756DB8
:100A00007020746F20426F6F746C6F616465722028
:100A100028616C7465726E617465290A453A0950E3
:100A200072696E7420454550524F4D205365747461
:100A3000696E67730A4253504143453A09436C65F6
:100A4000617220454550524F4D0A000A002575003D
:100A50002E6E6B726F3A20000A002575002E737798
:100A600061705F6261636B736C6173685F62616325
:100A70006B73706163653A20000A002575002E7360
:100A80007761705F67726176655F6573633A2000B6
:100A90000A002575002E6E6F5F6775693A20000A9F
:100AA000002575002E737761705F72616C745F72E0
:100AB0006775693A20000A002575002E737761700A
:100AC0005F6C616C745F6C6775693A20000A002581
:100AD00075002E737761705F7263746C5F726775F7
:100AE000693A20000A002575002E737761705F6CEB
:100AF00063746C5F6C6775693A20000A00257500A5
:100B00002E636170736C6F636B5F746F5F636F6E86
:100B100074726F6C3A20000A002575002E7377619D
:100B2000705F636F6E74726F6C5F636170736C6F14
:100B3000636B3A20000A0025303258006B65796DEE
:100B400061705F636F6E6669672E7261773A20002D
:100B50000A002575002E6D6F7573653A20000A0036
:100B60002575002E6B6579626F6172643A20000A08
:100B7000002575002E6D61747269783A20000A00B4
:100B80002575002E656E61626C653A20000A0025AD
:100B90003032580064656275675F636F6E666967BF
:100BA0002E7261773A20000A00257500646566613F
:100BB000756C745F6C617965723A20003F000A6D54
:100BC0006F7573653A206F66660A000A6D6F7573FC
:100BD000653A206F6E0A000A6B6579626F61726414
:100BE0003A206F66660A000A6B6579626F6172640B
:100BF0003A206F6E0A000A6D61747269783A206F4C
:100C000066660A000A6D61747269783A206F6E0A2E
:100C1000000A64656275673A206F66660A000A64B6
:100C2000656275673A206F6E0A000A0A4A756D7030
:100C3000696E6720746F20626F6F746C6F6164659A
:100C4000722E2E2E2000433E2000436C6561726997
:100C50006E6720454550524F4D0A006565636F6EC3
:100C60006669673A0A000A002530325820006B6531
:100C700079626F6172645F7265706F72743A20009E
:100C80000A0025303258006B6579626F6172645FCB
:100C90007365745F6C65643A2000290A002575004D
:100CA0002F002575005D28002564002000256400C4
:100CB000200025640020002564007C002530325887
:100CC000006D6F7573656B6579205B62746E7C78FF
:100CD0002079207620685D287265702F61636C2909
:100CE0003A205B005B735D004B6579626F617264F3
:100CF0002073746172742E0A005B575D005B535D54
:100D0000005B525D005B445D005B435D0018036B5C
:100D100000650079005F0074006F00790073005F68
:100D2000003700330000000E0354005F0074006FB2
:100D3000007900730000000403090409027B000429
:100D40000100A0FA090400000103010100092111BA
:100D50000100012240000705810308000A0904017F
:100D600000020300000009211101000122220007F6
:100D70000582032000010705030320000109040286
:100D80000001030000000921110100012281000778
:100D900005840320000A090403000203000000097F
:100DA000211101000122220007058503200001070F
:100DB0000505032000011201100100000008545431
:100DC00002000100010200010631FF0974A10109BE
:100DD00075150026FF00952075088102097615001B
:100DE00026FF00952075089102C00660FF0961A1E9
:100DF000010962150026FF0095207508810209632C
:100E0000150026FF00952075089102C00501090212
:100E1000A10185020901A100050919012905150093
:100E20002501950575018102950175038101050173
:100E3000093009311581257F950275088106093829
:100E40001581257F950175088106050C0A38021564
:100E500081257F950175088106C0C005010980A123
:100E600001850319012AB700150126B70095017500
:100E7000108100C0050C0901A101850419012AA0F7
:100E800002150126A002950175108100C005010917
:100E900006A101050719E029E71500250195087548
:100EA0000181029501750881010507190029FF15C7
:100EB0000026FF009506750881000508190129051F
:100EC000950575019102950175039101C0001124EA
:100ED0001FBECFEFDAE0DEBFCDBF04B603FE27C0F2
:100EE0008091A4029091A502A091A602B091A702C0
:100EF0008730904BA740B04BD1F41092A4021092CF
:100F0000A5021092A6021092A70214BE84B7877F92
:100F100084BF0FB6F894A895809160008861809393
:100F20006000109260000FBEE0E0F8E3099511E068
:100F3000A0E0B1E0ECE8F3E602C005900D92A83A1B
:100F4000B107D9F722E0A8EAB1E001C01D92A43AA6
:100F5000B207E1F70E943B2B0C9489310C940000FE
:100F6000FF93EF93E091A801F091A901309709F068
:100F70000995EF91FF910895FC018591803011F062
:100F8000EFDFFBCF0895FF27E0E230E247FF0CC020
:100F9000419597FF09C0EDE2609570958095909519
:100FA000611D711D811D911D27FF02C0219530E338
:100FB00050E2AA27660F771F881F991FAA1FA41740
:100FC00010F0A41B63955A95A9F7AA3008F0A95F01
:100FD000A05DAF93F395611571058105910541F70A
:100FE000ED3211F4EF93F395F21718F43F93F39564
:100FF000FBCF8F91B5DFFA95E1F70895E991F9916B
:101000008591803021F0853219F0AADFF9CF08955B
:1010100020E0E89455915532C1F3503311F46894AF
:1010200055915A3348F4505390F3220F022E220F59
:10103000220F200D250FF4CF0EF42195899199915F
:10104000533619F3533729F1533559F1BC01882729
:101050009927E8945C3621F4899199916894559187
:10106000543639F446EF7EF077FF0DC08FEF9FEFD7
:101070000AC055374AE039F0583540E121F0523680
:1010800042E009F00895FF93EF937DDFEF91FF9128
:10109000B7CFFF93EF93FC0181918030B9F360DF0C
:1010A000FBCFFF93EF9368DFF1CFDF93CF93CDB703
:1010B000DEB72596A3DFCF91DF91089589322DE524
:1010C000920729F08A329D4559F081E00895FB018D
:1010D00082818823D1F38FEB90E00E94E909F5CF5C
:1010E000FB018281882389F38CEA90E0F6CF089592
:1010F0000895089581E008950C945E0808950C9475
:101100007E081F93CF93DF9300D000D00F92CDB70E
:10111000DEB749835A836B833091CC0189819A81F0
:1011200031111DC06623B9F02223A9F00E945F226D
:10113000182F682F89819A810E940B2269817A81F8
:10114000812F0F900F900F900F900F90DF91CF9104
:101150001F910C945B150E943722182FEFCF0E942D
:101160005F2269817A81EDCFFC01262F4081518178
:101170006281738184810C948108CF93DF93EC01A9
:1011800060E00E94B408BE01DF91CF910C947F080B
:10119000FF920F931F93CF93DF93E82FF0E0EA576E
:1011A000FC4FF490C82FC695C695C695D0E0FE01B9
:1011B000EA5EFB4F0491877010E0082E02C015957F
:1011C00007950A94E2F701701127CA5FDB4FFE0111
:1011D000C491D0E002C0D595C7958A95E2F7C17059
:1011E000DD270115110519F081EE0E94F9192097EC
:1011F00019F086EE0E94F9198F2D0E94E61ACD2B68
:1012000019F086EE0E94901A012B41F081EEDF91D9
:10121000CF911F910F91FF900C94901ADF91CF9175
:101220001F910F91FF900895EF92FF920F931F93DC
:10123000CF93DF93EC01162F0AE08881882309F40D
:1012400054C0813009F04EC08981813099F47E010B
:1012500022E0E20EF11C8A810E94E61AE701219643
:10126000812F815050F3EFE9FFE03197F1F700C093
:101270000000F7CF823041F47E0182E0E80EF11CDD
:101280008A810E94F919EACF833041F47E01E2E0BD
:10129000EE0EF11C8A810E94901AE0CF843011F08A
:1012A0002196DDCF2A81229690E080E0AE014F5F4B
:1012B0005F4F2053330B2A30310548F0019778F205
:1012C000EFE9FFE03197F1F700C00000F7CF089F8A
:1012D000B001099F700D1124C901860F971F298144
:1012E000EA01E4CF0E94C808BACFDF91CF911F91E5
:1012F0000F91FF90EF90089560E00C941409EF9225
:10130000FF920F931F93CF93DF938C01F62E8AE009
:10131000E82EF8018491882309F454C0813009F043
:101320004DC0E8012196FE018491813091F421960F
:10133000FE0184910E94E61A8E010F5F1F4F8F2DD0
:10134000815038F3EFE9FFE03197F1F700C000007A
:10135000F7CF823039F4E8012296FE0184910E9491
:10136000F919EACF833039F4E8012296FE0184911D
:101370000E94901AE1CF8430F9F6E8012296FE012E
:10138000249190E080E0FE0131962053330B2A3007
:10139000310548F0019780F2EFE9FFE03197F1F76E
:1013A00000C00000F7CFE89EA001E99E500D112477
:1013B000C901840F951F2491EF01E5CF0E94C80851
:1013C000E801BACFDF91CF911F910F91FF90EF907D
:1013D000089560E00C947F098F929F92AF92BF9224
:1013E000CF92DF92EF92FF920F931F936B017C01DC
:1013F00081E090E0A0E0B0E04C015D0104C0880C09
:10140000991CAA1CBB1C4A95D2F7B501A4014C013A
:101410005D0104C0880C991CAA1CBB1C2A95D2F73C
:10142000482959296A297B2904C0880F991FAA1FB6
:10143000BB1F0A95D2F78A019B010C211D212E2189
:101440003F21041715072607370789F48C299D29A2
:10145000AE29BF29BC01CD011F910F91FF90EF90E4
:10146000DF90CF90BF90AF909F908F900895809520
:101470009095A095B0958C219D21AE21BF21EACFFA
:101480000F93382F262F60913C0270913D0280917E
:101490003E0290913F02042F432F0E94EC090F91CE
:1014A0000C9449210E948F250E94AE23811102C015
:1014B0000E9452240C94F40C0C94F60C08950E9493
:1014C000751D0E945E0A2FEF84E39CE0215080404E
:1014D0009040E1F700C000000C947C250F931F930F
:1014E000CF93DF93EC0161E00E94B4088C01BE0150
:1014F0000E94A313882341F1BE01C8010E947C0809
:10150000882311F1BE01C8010E9492168823E1F0E0
:10151000BE01C8010E94E4168823B1F0BE01C801D3
:101520000E940718882381F08A81882341F10130C5
:101530008CE5180779F00F3D8CE51807E9F00115E7
:101540001C45E9F40E945F0A80E0DF91CF911F9172
:101550000F91089590915102892F8E7F90FF8160A5
:101560008093510280FF05C085E793E00E94BC078D
:10157000EBCF83E693E0FACF0E945224E5CFCE0171
:10158000DF91CF911F910F910C947A08829590E092
:101590009C01220F331F220F331F2C7C95958795BA
:1015A000959587958373282B30E0C901880F991F83
:1015B0008A7A359527952575822B0895CF93DF93E9
:1015C000D92F0E94C60AC82F8D2F0E94C60A9C2FB1
:1015D000DF91CF9108950C94790881E008950C94DF
:1015E000ED0ACF93C82F0E94EB0A8C2FCF910C9459
:1015F000EF0A90E080E008950895FC01EE0FFF1FD0
:10160000EA5DFB4F859194910895CF93DF930E94FB
:101610005B150E941A0CEC01811520E5920708F079
:1016200042C0811530E4930708F0BDC0883E9105A3
:1016300028F5803E910508F09DC0883A910588F410
:10164000853A910508F08FC08130910509F492C068
:10165000009709F48FC0049708F08CC0D0E0C0E078
:1016600089C08F3B910508F489C0805C9109C03C1A
:10167000D105A0F30E94FD0AEC017CC081159042C7
:1016800050F4C11581E0D80708F074C0C03FD105FF
:1016900028F3D0656FC0C11590E3D90708F079C071
:1016A000CE019F70E7CF811525E5920758F581158A
:1016B00034E5930708F0A6C0811542E5940750F47D
:1016C000C11581E5D80708F471C0DC2FCC27C16FA4
:1016D000D06A50C0982F969596959E012370332717
:1016E000C115D34508F07FC0C1E0D0E002C0CC0FE7
:1016F000DD1F2A95E2F720E2929FC0011124C82B3A
:10170000D92B6FC0C11589E5D807A8F4C11598E594
:10171000D90708F07CC0C11526E5D20708F09ECF96
:101720008C2F0E94B10CC82FD0E0DC2FCC27CC2707
:10173000DF71D0621FC0C1153AE5D30708F46CC051
:10174000CE0190568115904208F088CF8D2F8F7171
:101750000E94B10C90E0982F882788279F719C01E8
:101760002C2BE901E6CFC55AD0E0CD5BDE4FC88116
:10177000D0E0D064CE01DF91CF910895C85AD0E077
:10178000CC0FDD1FCB5EDE4F0990D881C02DD46415
:10179000F1CFCE019927D3FF03C0EC01D86CEACF7B
:1017A000EC01D06CE7CFDF70D06AE4CFCE01E4E08B
:1017B00096958795EA95E1F783702C2F26952695C7
:1017C000237090E2299F90011124382B8C2F837075
:1017D000C1E0D0E002C0CC0FDD1F8A95E2F7C22B3A
:1017E000D32BDC68C7CFC1E0D0E002C0CC0FDD1F37
:1017F0002A95E2F730E2939FC0011124C82BD92B20
:10180000DA68B8CFD82FCC27C46FD06AB3CFDC2F1B
:10181000CC27C06FD06AAECF8C2F8F700E94B10CD6
:1018200034E0D695C7953A95E1F7CF709C2FEC013F
:10183000D069A0CF82389105B1F1B0F48133910520
:1018400009F475C048F48932910509F469C08A32F7
:10185000910509F473C008958533910509F459C0C1
:101860008933910501F10895833E9105A9F138F47A
:10187000803E9105F9F0823E910549F10895863E3A
:101880009105A9F1873E9105C9F1843E910519F5AD
:101890002091960221FF1FC08091950284FD14C003
:1018A00087EE90E00895209195022370A1F080EEDC
:1018B00090E008952091950220FD47C03091960256
:1018C00030FF09C024FF44C090E080E004C02091B4
:1018D000950222FDF7CF08952091950222FD3BC08D
:1018E0003091960230FDE3CF24FFF5CFEDCF20916C
:1018F000950223FFF0CF24FDE7CFD2CF20919502B0
:1019000023FD2CC03091960231FFEECF84EE90E0A3
:1019100008952091950225FFDECF89E290E0089599
:101920002091950225FFD7CF85E390E0089520917F
:10193000950226FFD0CF8AE290E00895209195028B
:1019400026FFC9CF81E390E0089589E390E00895F0
:1019500083EE90E0089582EE90E0089586EE90E0A8
:1019600008959091950292FF06C0282F2871283083
:10197000F9F4877F846093FF06C0282F28712831EF
:10198000F1F4877E84612091960220FF06C0382FF3
:1019900038713830D9F4877F816021FF06C0282F45
:1019A00028712831D1F4877E816194FD877E089566
:1019B000282F24712430F9F68B7F8860DCCF282F04
:1019C0002471243101F78B7E8861DDCF382F31718E
:1019D000313019F78E7F8860E0CF282F21712131B7
:1019E00021F78E7E8861E1CF0C9477080C947808FB
:1019F000E82FF0E0EE0FFF1FE158FD4F808191814D
:101A00000895CF92DF92EF92FF920F931F93CF939F
:101A1000DF9386E394E00E94BC078FE7E82E82E024
:101A2000F82ED0E0C0E091E3C92E94E0D92E08E270
:101A300014E0DF93CF93DF92CF920E9455088EE29D
:101A400094E00E94BC07F701819191917F010E946F
:101A5000DE0A9F938F931F930F930E94550886E28F
:101A600094E00E94BC0721968DB79EB708960FB6EA
:101A7000F8949EBF0FBE8DBFC930D105D1F6DF915E
:101A8000CF911F910F91FF90EF90DF90CF9008952D
:101A900080EA8A95F1F70895F894E82FE295EF70BF
:101AA000F0E031A1282F2F7081E090E001C0880F75
:101AB0002A95EAF7982F9095932391A392A1892BC9
:101AC00082A378940895CF93DF93CFE4D1E08991F6
:101AD0000E944C0D81E0C835D807C9F7C6E4D1E0B3
:101AE00089910E944C0D81E0CF34D807C9F7EDE60B
:101AF000F2E0AFE7B2E0119211921D921D9282E0E6
:101B0000EF37F807C1F789E00E94080EDF91CF9107
:101B10000C94520AAF92BF92DF92EF92FF920F9312
:101B20001F93CF93DF93CFE4D1E00DE612E0D12CE9
:101B3000EE24E394F12C8991F894E82FE295EF706C
:101B4000F0E021A18F70A70102C0440F551F8A95B4
:101B5000E2F7CA01922F982B91A392A18095892335
:101B600082A378940E94480DE6E4F1E030E020E0A2
:101B7000B12CA12C4191A42FA295AF70B0E090960A
:101B80008C9190E04F7002C0959587954A95E2F749
:101B900080FD39C0C701022E02C0880F991F0A9428
:101BA000E2F7A82AB92A2F5F3F4F2930310511F7F4
:101BB000FE01319780810E944C0DF8018081918156
:101BC000A816B90619F1B182A08281E0D82A0E5F69
:101BD0001F4FF1E0C835DF0709F0ADCF2D2D49E0EB
:101BE0006FE772E08DE692E00E94090E0E945C0AA7
:101BF0008D2DDF91CF911F910F91FF90EF90DF908E
:101C0000BF90AF90089590E080E0CBCF80E0DECF32
:101C10000895FF920F931F93CF93DF93F82E092F10
:101C2000162FD72FC42F222349F081E08093AC01D7
:101C30000E9431259093AB018093AA018091AC0161
:101C40008823A1F08091AA019091AB010E944925BF
:101C5000069760F0EF2DF02FA12FBD2F90E080E0D0
:101C6000D0E08C179D0744F01092AC01DF91CF912A
:101C70001F910F91FF900895219131912D933D93E4
:101C80000196EFCF8DE496E00E94BC071F9281E0A1
:101C90008F931F9285E08F938FEF95E09F938F93A3
:101CA0000E9455080F900F900F900F900F900F907B
:101CB0000895833009F445C028F4813061F0823002
:101CC00049F10895853009F46AC008F451C086309E
:101CD00009F47CC0089580910901482F460F5527CB
:101CE000551F4F3F510594F4680F6093090180918F
:101CF00009011F928F9388E395E09F938F930E9431
:101D000055080F900F900F900F9008958FEF8093CC
:101D10000901EDCF80910801482F460F5527551F27
:101D20004F3F510554F4680F6093080180910801FA
:101D30001F928F9386E295E0E0CF8FEF80930801AA
:101D4000F5CF80910701482F460F5527551F4F3F6C
:101D5000510554F4680F60930701809107011F92A9
:101D60008F9383E195E0C9CF8FEF80930701F5CF83
:101D700080910601482F460F5527551F4F3F5105AB
:101D800054F4680F60930601809106011F928F93AF
:101D90008EEF94E0B2CF8FEF80930601F5CF809164
:101DA0000301482F460F5527551F4F3F510554F447
:101DB000680F60930301809103011F928F9385EE5A
:101DC00094E09BCF8FEF80930301F5CF80910201C8
:101DD000482F460F5527551F4F3F510554F4680FA4
:101DE00060930201809102011F928F938AEC94E02C
:101DF00084CF8FEF80930201F5CF8330C9F128F4AF
:101E0000813061F0823019F10895853009F452C0B3
:101E100008F43FC0863009F45EC00895809109013E
:101E2000681790F4861B80930901809109011F9225
:101E30008F938BEB94E09F938F930E9455080F90A4
:101E40000F900F900F90089510920901EECF80919E
:101E50000801681750F4861B8093080180910801DF
:101E60001F928F9389EA94E0E6CF10920801F6CF93
:101E700080910701681750F4861B809307018091B9
:101E800007011F928F9386E994E0D5CF1092070146
:101E9000F6CF80910601681750F4861B80930601E7
:101EA000809106011F928F9381E894E0C4CF109235
:101EB0000601F6CF80910301681750F4861B8093CA
:101EC0000301809103011F928F9388E694E0B3CFC2
:101ED00010920301F6CF80910201681750F4861B1F
:101EE00080930201809102011F928F938DE494E010
:101EF000A2CF10920201F6CFCF93C82F1F928F93DB
:101F000082E597E09F938F930E94550861E070E00F
:101F100080E090E004C0660F771F881F991FCA9564
:101F2000D2F70E940D210F900F900F900F90CF913C
:101F30000C94751DCF93DF938B3109F4FAC108F02F
:101F40009CC18B3009F4B8C108F06AC1863009F42D
:101F5000C6C148F4853009F49EC18CEB9BE00E9419
:101F6000BC0780E0CCC1873009F4CCC18830A9F728
:101F70008BE59CE00E94BC078CEA9BE00E94BC07BA
:101F80000E94BD231F928F9389EA9BE09F938F93BA
:101F90000E94550887EA9BE00E94BC070E94B92373
:101FA000C82F84E99BE00E94BC071F92CF938FE863
:101FB0009BE09F938F930E9455088DE89BE00E94C1
:101FC000BC0783E89BE00E94BC078C2F81701F92A6
:101FD0008F9380E89BE09F938F930E9455088EE734
:101FE0009BE00E94BC0784E79BE00E94BC07C1FB0A
:101FF000882780F91F928F9381E79BE09F938F93AF
:102000000E9455088FE69BE00E94BC0783E69BE098
:102010000E94BC07C2FB882780F91F928F9380E63D
:102020009BE09F938F930E9455088EE59BE00E9452
:10203000BC0785E59BE00E94BC07C3FBCC27C0F929
:102040001F92CF9382E59BE09F938F930E94550848
:1020500080E59BE00E94BC070E94C123EC018CE359
:102060009BE00E94BC07DF93CF9387E39BE09F93A5
:102070008F930E94550885E39BE00E94BC078CE18A
:102080009BE00E94BC078C2F81701F928F9389E187
:102090009BE09F938F930E9455088DB79EB78096C3
:1020A0000FB6F8949EBF0FBE8DBF87E19BE00E94E4
:1020B000BC0780E09BE00E94BC07C1FB882780F939
:1020C0001F928F938DEF9AE09F938F930E945508F4
:1020D0008BEF9AE00E94BC0789EE9AE00E94BC0751
:1020E0008D2F81701F928F9386EE9AE09F938F932E
:1020F0000E94550884EE9AE00E94BC0782ED9AE0A7
:102100000E94BC07D695D1701F92DF938FEC9AE0A6
:102110009F938F930E9455088DEC9AE00E94BC0714
:102120008BEB9AE00E94BC07C2FB882780F91F92C4
:102130008F9388EB9AE09F938F930E94550886EBCC
:102140009AE00E94BC0784EA9AE00E94BC07C3FBA5
:10215000882780F91F928F9381EA9AE09F938F934B
:102160000E9455088FE99AE00E94BC0785E99AE031
:102170000E94BC07C4FB882780F91F928F9382E9D5
:102180009AE09F938F930E94550880E99AE00E94FD
:10219000BC078EE79AE00E94BC07C5FB882780F940
:1021A0001F928F938BE79AE09F938F930E9455081D
:1021B00089E79AE00E94BC078DE59AE00E94BC077F
:1021C000C6FB882780F91F928F938AE59AE09F9338
:1021D0008F930E9455088DB79EB780960FB6F894DE
:1021E0009EBF0FBE8DBF88E59AE00E94BC0780E5C8
:1021F0009AE00E94BC07C7FBCC27C0F91F92CF937F
:102200008DE49AE09F938F930E9455088BE49AE0A7
:102210000E94BC070F900F900F900F9081E06FC04D
:10222000803109F49EC080F48E3009F096CE9091F2
:102230005102892F8B7F92FF84608093510282FF2D
:102240008DC087EE9BE081C0863109F49AC0893148
:1022500009F083CE82E798E00E94BC0788E398E00B
:102260000E94BC0781E298E00E94BC078BEE97E0D9
:102270000E94BC0780EC97E021C08A3249F190F4BB
:10228000873211F128F48E3108F467CE8D511DC0CC
:10229000893209F062CE8AE29CE00E94BC070E946B
:1022A0005F0ABCCF833468F48A3308F0A1C0853359
:1022B00059F0883309F051CE88EA98E00E94BC07B3
:1022C000ADCF833409F049CE80E00E947C0FA6CFC9
:1022D0008AE49CE00E94BC070E9452249FCF809118
:1022E0005102807F8093510281E898E00E94BC07F0
:1022F00086E49CE00E94BC0781E08093AE01DF9100
:10230000CF91089590915102892F8E7F90FF816027
:102310008093510280FF03C08EE19CE0CFCF81E12A
:102320009CE00E94BC0780915102817F8093510202
:1023300075CF90915102892F8D7F91FF826080939C
:10234000510281FF08C084E09CE00E94BC0780919C
:1023500051028160EBCF86EF9BE0B0CF87ED9BE031
:10236000ADCF90915102892F877F93FF8860809332
:10237000510283FF03C08BEC9BE0E7CF8EEB9BE029
:102380009DCF82EB97E00E94BC070E9436181F92F7
:102390008F9388E997E09F938F930E9455088091CF
:1023A00014011F928F9381E897E09F938F930E946F
:1023B000550880916C021F928F938EE697E09F9351
:1023C0008F930E9455080E943D259F938F937F9382
:1023D0006F9387E597E09F938F930E9455088DB781
:1023E0009EB742960FB6F8949EBF0FBE8DBF16CF14
:1023F00089536BCF80E008950C94FA118E518A3086
:1024000030F4E82FF0E0E85AFE4F8081089580E034
:102410000895CF93C82F8091AE018130C1F08823F9
:1024200039F0823009F447C01092AE0180E00DC04F
:102430000E94F4228232D1F78C2F0E94FA1181116E
:102440001BC08C2F0E949A0F8170CF9108950E941B
:10245000F422823289F38C2F0E94FC1181111BC05F
:10246000C431D9F060F4CB3071F0C031D1F088E4E0
:1024700097E00E94BC0713C081E090E0E5CFC9322D
:1024800061F0C833A1F781E898E00E94BC078EE4B0
:1024900097E00E94BC0781E0D7CF1092AE0180E0A8
:1024A000D3CF0E94420E8AE497E00E94BC0782E0EC
:1024B0008093AE01F0CFC432C8F4CE3108F0BEC074
:1024C000CB30E1F040F4C73009F4CCC08CEE95E09D
:1024D0000E94BC0726C0C331C1F1C431B9F7809155
:1024E000AD01882351F11092AD010AC0CB3409F43B
:1024F000B7C0C8F4C93299F3C83341F70E94420EFD
:102500008091AD01882309F4C4C01F928F9386EE99
:1025100095E09F938F930E9455080F900F900F9016
:102520000F9081E092CFC13509F494C0C23509F40F
:102530008BC0CE3459F66AE08EC08BEF95E00E94D6
:10254000BC0781E08093AE0180CF85ED95E00E94CD
:10255000BC0783EC95E00E94BC07809109011F92A3
:102560008F9380EC95E09F938F930E9455088EEB9C
:1025700095E00E94BC078CEA95E00E94BC07809120
:1025800008011F928F9389EA95E09F938F930E9491
:10259000550887EA95E00E94BC0788E995E00E940B
:1025A000BC07809107011F928F9385E995E09F9367
:1025B0008F930E94550883E995E00E94BC0782E84A
:1025C00095E00E94BC07809106011F928F938FE7D0
:1025D00095E09F938F930E9455088DE795E00E94A8
:1025E000BC0788E695E00E94BC07809103011F921A
:1025F0008F9385E695E09F938F930E94550883E61D
:1026000095E00E94BC078CE495E00E94BC07809195
:1026100002011F928F9389E495E09F938F930E940C
:10262000550887E495E00E94BC078DB79EB7489691
:102630000FB6F8949EBF0FBE8DBF62CF8C2F0E9445
:10264000FE118093AD015CCF61E08091AD010E94ED
:10265000590E56CF61E08091AD010E94FD0E50CF22
:102660006AE0F3CF8EE18093090182E38093080151
:102670008AE08093070184E18093060188E08093DB
:10268000030188E2809302018EEE95E00E94BC0770
:1026900037CF83EE95E01CCF82E290E00E94473175
:1026A000813289F483E290E00E944731833059F40B
:1026B00084E290E00E94473191E0843009F090E09C
:1026C000892F8170089580E0FCCFCF93C82F6FEFE2
:1026D000811161E282E290E00E9455316FEFC111F9
:1026E00063E083E290E00E9455316FEFC11164E036
:1026F00084E290E0CF910C94553180E00E94651304
:102700000C94A823089585E290E00E944731682F39
:1027100070E090E080E0089585E290E00C945531FF
:102720000E9482130E944C1381110CC060E070E083
:10273000CB010E948C130E94D3140E94BF1581E02C
:102740000C9465130895CF93FB01C281CC2309F14A
:102750009C0122513F452031310520F582510E94D4
:10276000CF15C0E08C2FCF91089581E00E946F219A
:1027700043E062E081E00E94400AF3CF81E00E94E2
:10278000902143E062E081E00E94400AEBCF82E0CA
:10279000F6CF8031FFE59F0789F381319F45B9F37B
:1027A000C1E0E0CF8031EFE59E07F9F281319F452E
:1027B000C9F682E0DBCF2FEFFC0120830895EF9272
:1027C000FF920F931F93CF93DF93EC01062FE881C5
:1027D000E150E33108F05EC0F0E0E557FE4C0C94A8
:1027E0002631198289E08A83602FCE01DF91CF9153
:1027F0001F910F91FF90EF900C94D729898182301F
:1028000069F0833071F08130D9F40E943D250E9437
:102810002C316A837B838C839D83E6CF0E94831354
:10282000F6CF7E0110E0812F0E94F80CF701928311
:1028300083831F5FF2E0EF0EF11C1930A1F7D4CFB4
:10284000602FCE010E94DB13CFCF89818230C1F788
:102850006A817B818C819D810E942C310E948C1326
:10286000C3CF4B816A8189810E94A514982789274B
:1028700098279D838C83B8CF2C813D8132272327D5
:1028800032274B816A8189810E94BE14ADCF0E949C
:10289000D314AACF8FEF8883A7CF0E9468158983AE
:1028A000A3CF0E946A159827892798279A8389833E
:1028B0009BCF6B8170E089819A81AE014C5F5F4F45
:1028C0009827892798270E946D158ECF6B8170E01D
:1028D00089819A81AE014C5F5F4F9827892798279D
:1028E0000E94941581CF0E94BF157ECF0E94931441
:1028F000D6CF6B8170E089819A81AE014C5F5F4FCA
:102900009827892798270E940B156ECF6B8170E05E
:1029100089819A81AE014C5F5F4F9827892798275C
:102920000E94311561CF84E0089550E0440F551F97
:1029300092E1699F400D511D112492EA899F400D3B
:10294000511D1124CA01869608950F931F93CF93AA
:10295000DF930E9495148C010E944731C82FD0E06C
:10296000DC2FCC27C80101960E9447319E01282BFD
:10297000C901DF91CF911F910F9108950F931F937C
:10298000CF93DF93122F032F0E949514EC01602F39
:102990000E945531612FCE010196DF91CF911F9199
:1029A0000F910C945531AF92BF92CF92DF92EF927C
:1029B000FF921F93CF93DF938BEDC82E80E0D82E2C
:1029C000D0E07601C0E014C0F50125913491412F8B
:1029D0006C2F8D2F0E94BE1482E0A80EB11C1F5FC9
:1029E000193091F782E1E80EF11CCF5FC93019F080
:1029F000570110E0E9CFDF5F82EAC80ED11CD43066
:102A000001F7DF91CF911F91FF90EF90DF90CF9072
:102A1000BF90AF900895EF92FF920F931F93CF93C3
:102A2000DF93EC018A017C01E60EF71ECE0186964B
:102A3000CE15DF0539F4DF91CF911F910F91FF90F3
:102A4000EF900895C83822E0D20740F40E94473141
:102A5000F80180830F5F1F4F2196E8CFF8011082A5
:102A6000F9CFCF92DF92EF92FF920F931F93CF9304
:102A7000DF937C016A018C01060F171FEC01CE0168
:102A80008696C017D10749F4DF91CF911F910F911E
:102A9000FF90EF90DF90CF900895C83822E0D207E2
:102AA00040F4FE01EE19FF09EC0DFD1D60810E944E
:102AB00055312196E4CF462F843038F4793028F40C
:102AC000693018F4672F0C94A51490E080E0089505
:102AD00080E1089582E591E00895EF92FF920F93CF
:102AE0001F93CF93DF93EC018A017C01E60EF71E62
:102AF000CE0182559D4FCE15DF0539F4DF91CF9180
:102B00001F910F91FF90EF900895C23521E0D207F9
:102B100040F40E944731F80180830F5F1F4F2196D8
:102B2000E7CFF8011082F9CFCF92DF92EF92FF92B8
:102B30000F931F93CF93DF937C016A018C01060FE3
:102B4000171FEC01CE0182559D4FC017D10749F4E4
:102B5000DF91CF911F910F91FF90EF90DF90CF9079
:102B60000895C23521E0D20740F4FE01EE19FF09B5
:102B7000EC0DFD1D60810E9455312196E3CFCF936E
:102B8000DF93CEEAD2E060E0CE010E94553121967B
:102B9000C11584E0D807B9F7DF91CF910895DF928E
:102BA000EF92FF920F931F93CF93DF9300D000D04B
:102BB000CDB7DEB7F82E8FE08F1540F08FEF93E0A2
:102BC0000E9447310EEA12E08823C1F00F900F9067
:102BD0000F900F90DF91CF911F910F91FF90EF9089
:102BE000DF900895011584E0180781F3C8010E9461
:102BF0004731811101C0FA940F5F1F4FF110F2CFDE
:102C000019821A821B821C82DD24D39478018FEFF3
:102C1000E81AF80AC8010E94473189831A8288237A
:102C2000A9F29FEF980F933078F48A83D9820E5FD0
:102C30001F4FC7010E9447318B83882339F2CE0191
:102C400001960E947C09E2CF8701F9CF0F931F9371
:102C5000CF93DF93C42FD22FFC0182818823C9F048
:102C60004093B1010E9431259093B0018093AF0150
:102C700080E28C0F883008F050C0C77081E001C03E
:102C8000880FCA95EAF7DF91CF911F910F910C94AD
:102C9000F91A1091B101141335C08091AF019091D0
:102CA000B0010E944925883C910560F5C0E2CD0F36
:102CB0001D17B9F080E2810F883040F4177081E071
:102CC00001C0880F1A95EAF70E94001BC83048F42B
:102CD00081E09D2F977001C0880F9A95EAF70E94B6
:102CE000F91A802F0E94E61AC830B8F4D77081E034
:102CF00001C0880FDA95EAF7DF91CF911F910F910C
:102D00000C94001B80E28C0F883038F4C77081E08F
:102D100001C0880FCA95EAF7EFCFDF91CF911F91DD
:102D20000F9108950F939C01CB01243F4CE534078C
:102D300059F1A8F4293DFCE53F0701F12A3D4CE596
:102D40003407D1F1283D3C4591F406E221EE41EEF5
:102D500068ED7CE50E94261680E00F910895263FDD
:102D6000FCE53F07E9F0B0F0273F3C45F9F0FC01F6
:102D70008281882339F11092B101EFCF07E225EE6D
:102D800045EE69ED7CE5E6CF06E221EE40EE64EF2C
:102D90007CE5E0CF07E225EE44EE65EF7CE5DACF97
:102DA00006E221EE42EE66EF7CE5D4CF07E225EEA7
:102DB00046EE67EF7CE5CECF08E221E045EE6AED16
:102DC0007CE5C8CF81E0C9CFCF93DF93EC01FB0155
:102DD0008281882309F419C1C230FCE5DF07C0F104
:102DE000C6319CE5D90730F09E012B5F3C45293068
:102DF000310570F50E94C12390939602809395024D
:102E0000C031ECE5DE0709F4CFC008F05BC0C83084
:102E10008CE5D80709F4B6C088F5C430ECE5DE07C8
:102E200009F4A8C0C0F4C2308CE5D80709F49CC0EE
:102E3000809195028260C330DC4509F498C080918E
:102E40009502909196020E94CF230E94751D80E00A
:102E5000DF91CF910895809195028061C630ECE5B5
:102E6000DE0709F484C0809195028860C730DC4594
:102E700008F47DC080919502806279C0CC308CE5E9
:102E8000D80709F489C070F4809195028C60CA302B
:102E9000ECE5DE0709F46BC008F478C08091950278
:102EA0008E7F65C0CE308CE5D80709F479C080915B
:102EB00095028B7FCF30DC4508F459C08091950294
:102EC0008F7E55C0CC3FECE5DE0709F457C030F5E6
:102ED000C3318CE5D80709F46FC078F4C131ECE553
:102EE000DE0709F465C0C231DC4509F0A8CF0E94B5
:102EF000751D809195028F773AC0C5318CE5D80752
:102F000009F462C008F476C0809196028160CB3FDC
:102F1000DC4509F094CF8093960291CFC115FDE571
:102F2000DF0709F44DC088F4809196028D7FCE3F73
:102F30009CE5D90781F3809196028E7FCF3FDC45D7
:102F400050F3809196028360E6CFC230FDE5DF0743
:102F500009F459C008F444C080E0C330DD4509F0ED
:102F60006ECF0E9454246BCF809195028160809334
:102F7000950265CF809195028460F9CF8091960289
:102F80008260C9CF809195028064F1CF0E94751D47
:102F9000809195028068EBCF809195028D7FE7CF7D
:102FA00080919502877FE3CF809195028F7DDFCF5F
:102FB000809195028F7BDBCF80919502837FD7CF65
:102FC000809196028C7FA7CF8091950282FB9927F2
:102FD00090F921E0922790FB82F990FB83F9C7CF0B
:102FE00080919602982F909591708E7F892B90FBFF
:102FF00081F991CF0E94751D90919502892F97FBC1
:1030000087F98058B4CF81E0ACCF81E021CFCF9356
:10301000DF93EB0186319C4511F50E94F4229A81E1
:10302000992399F08A7A91E009F490E09093B201A3
:10303000811109C089E20E94CF220E94402380E0D2
:10304000DF91CF91089585E3F6CF8091B201811190
:1030500004C089E20E94D622F0CF85E3FBCF81E055
:10306000EFCF9093B8018093B7010895E091B70135
:10307000F091B801309721F00190F081E02D099492
:1030800080E00895EF92FF920F931F93CF93DF9309
:103090008C01E091B701F091B8013097C1F1028045
:1030A000F381E02D09958091510282FF30C080FFAD
:1030B00004C08EE69CE00E94BC07D0E0C0E088E639
:1030C000E82E8CE0F82E8091510280FF0EC0F801AE
:1030D000EC0FFD1F80811F928F93FF92EF920E9451
:1030E00055080F900F900F900F902196C830D10582
:1030F00051F78091510280FF0AC086E69CE0DF9183
:10310000CF911F910F91FF90EF900C94BC07DF912E
:10311000CF911F910F91FF90EF900895E091B7012B
:10312000F091B801309739F022E0DC012C93048053
:10313000F581E02D099408952091B5013091B601F3
:103140002817390771F09093B6018093B501E0918B
:10315000B701F091B801309721F00680F781E02D9A
:10316000099408952091B3013091B40128173907CB
:1031700071F09093B4018093B301E091B701F091A5
:10318000B801309721F00084F185E02D099408956D
:1031900085B7806885BF85B7806885BF0895089525
:1031A00008950C94CF1808950C94D3180E94C81851
:1031B0000E94D0180C94D11881E008950C94DC186A
:1031C000089508950E9428250E94630D0E9490137F
:1031D0000E94A3250C94D418CF93C82F809151023C
:1031E00082FF1EC080FF1CC087E89CE00E94BC07D5
:1031F0008091510280FF14C01F92CF9382E89CE01F
:103200009F938F930E945508809151020F900F90C9
:103210000F900F9080FF04C080E89CE00E94BC07E4
:103220008C2FCF910C94F10A7F928F929F92AF9244
:10323000BF92CF92DF92EF92FF920F931F93CF93A3
:10324000DF93CDB7DEB72A970FB6F894DEBF0FBE77
:10325000CDBF0E94E0180E94E1180E948A0D0E94D2
:10326000DE18882309F471C04AEBA42E41E0B42E85
:1032700010E000E0702E802F0E94F80C6C01F50128
:10328000819091905F018816990609F458C0809149
:10329000510281FD0E94010D80E0EE24E394F12CA7
:1032A0008C249D2494012E213F21232B09F441C01D
:1032B0008E837F82CE20DF2081E0CD2809F480E05C
:1032C00088870E9431258160782F9A8789874E816F
:1032D0005F8168858A850E94CA19000F111FF80155
:1032E000E654FE4F80819181E826F926F182E08242
:1032F0000E94D0270E9436189091B9018917B1F128
:103300000E9436188093B9012A960FB6F894DEBF52
:103310000FBECDBFDF91CF911F910F91FF90EF9026
:10332000DF90CF90BF90AF909F908F907F900C9444
:10333000EC188F5FEE0CFF1C893009F0B3CF0F5FE4
:103340001F4F0930110509F095CF8FEF89838A83CC
:103350001B820E9431258160782F9D838C83498157
:103360005A816B818D810E94CA19C2CF2A960FB6ED
:10337000F894DEBF0FBECDBFDF91CF911F910F91AB
:10338000FF90EF90DF90CF90BF90AF909F908F9085
:103390007F900895CF93DF93CDB7DEB72B970FB60D
:1033A000F894DEBF0FBECDBF4F83588769877A87F9
:1033B0008B871E821D8285E0FE013796DE01119605
:1033C00001900D928A95E1F749815A816B817C8148
:1033D0008D819E812B960FB6F894DEBF0FBECDBFB8
:1033E000DF91CF910C94EB1FFC01808191810C94B3
:1033F000A122CF93C82F882309F490C08238C1F44A
:103400000E94361881FD8AC089E30E94CF220E9463
:1034100040232FEF81EE94E0215080409040E1F76F
:1034200000C0000089E30E94D622CF910C94402373
:103430008338A1F40E94361880FD70C083E50E9495
:10344000CF220E9440232FEF81EE94E02150804054
:103450009040E1F700C0000083E5E5CF8438A1F497
:103460000E94361882FD5AC087E40E94CF220E9433
:1034700040232FEF81EE94E0215080409040E1F70F
:1034800000C0000087E4CFCF8CEF8C0F813AB8F4F6
:103490008C2F0E940912811141C06C2F8091000174
:1034A000909101010E946B24882329F08C2F0E94A7
:1034B000D6220E9440238C2F0E94CF22B6CF80E2DA
:1034C0008C0F883048F4C77081E001C0880FCA951E
:1034D000EAF70E94F722A9CFEBE5EC0FE33040F4C6
:1034E000F0E0E057FE4F808190E0CF910C949C1863
:1034F000E8E5EC0FE73150F4F0E0EE0FFF1FEE5976
:10350000FE4F80819181CF910C94B218C03F30F072
:103510008C2F0E944826CF910C943327CF91089589
:10352000882309F452C0823871F40E94361881FF52
:103530004CC089E30E94CF220E94402389E30E946D
:10354000D6220C944023833859F40E94361880FF09
:103550003CC083E50E94CF220E94402383E5EFCF49
:10356000843859F40E94361882FF2FC087E40E94E5
:10357000CF220E94402387E4E2CF9CEF980F913A3C
:10358000F0F290E2980F983050F4877091E001C00B
:10359000990F8A95EAF7892F0E94FD22D2CF9BE5E9
:1035A000980F933020F490E080E00C949C1898E5FC
:1035B000980F973120F490E080E00C94B218803F8F
:1035C00020F00E94B0260C9433270895CF93C82F83
:1035D0000E94F919C93349F42FEF87EE93E0215087
:1035E00080409040E1F700C000008C2FCF910C94F8
:1035F000901A882321F00E94F7220C94402308950A
:10360000882321F00E94FD220C9440230895BF924C
:10361000CF92DF92EF92FF920F931F93CF93DF939E
:103620006C01D62FC72FFC01058102950F70128106
:1036300011110E9414230E94ED22E82E882391F09C
:103640001123D1F08C2F807F803421F080E28D0F08
:10365000883090F082E00E948B230E94ED2291E05E
:10366000E82EE926BC2EB2949FE0B922EB2DF0E0C3
:10367000E256FE4C0C942631E12CF4CF0C2F0F7047
:10368000C07F11F00295007F1123A9F0002359F0AB
:1036900080E28D0F883010F0D11109C0802F0E9478
:1036A000F7220E9440238D2F0E94F91914C0802F09
:1036B0000E940723F6CF8D2F0E94901A002359F005
:1036C00080E28D0F883010F0D1112CC0802F0E9425
:1036D000FD220E9440232B2D2850330B243031052E
:1036E00020F40E9436180E94F10AEE2009F49EC1CF
:1036F0000E94E92280FD9AC1F60112820E94E32213
:103700000E946F21C6010E94371D0E94E322DF91B3
:10371000CF911F910F91FF90EF90DF90CF90BF90CE
:103720000C949021802F0E940D23D3CFFC2FFF708B
:10373000FF2EC07FC03219F0F29480EFF822DD2313
:1037400069F0D13049F1112391F1002351F1F601D3
:10375000858180FFA8CF8F70858323C0112381F0DE
:10376000011106C00E9427238F290E94F91AB3CFA6
:103770000130C1F70E9427238F290E942D23ABCF50
:10378000011106C00E9436238F2D0E94001BA3CF7B
:10379000013009F4A0CFF6CF112329F0063008F04C
:1037A0009ACF8F2DE2CF053008F095CFEDCF0023D3
:1037B00059F3D93349F4FFEF27EE33E0F1502040BD
:1037C0003040E1F700C000008D2F0E94901A83CF97
:1037D0008C2F86958695837069F0813009F07BCFB8
:1037E0008D2F9C2F9370111102C090E080E00E94F9
:1037F000B21871CF8D2F9C2F9370111102C090E0E1
:1038000080E00E949C1867CF8D2F112329F00E9421
:1038100048260E9433275FCF0E94B026FACF8C2F14
:10382000837009F041C0111156CF4D2F4295469536
:103830004770440F440F0D2F0F7010E030E020E070
:10384000042E04C0000F111F221F331F0A94D2F749
:1038500060E070E0CB01D4FF0FC06FE070E080E06B
:1038600090E004C0660F771F881F991F4A95D2F712
:103870006095709580959095C695C695C370602BA0
:10388000712B822B932BC23049F058F4C13019F0C0
:103890000E94212120CF0E940F211DCF0E943321A1
:1038A0001ACF0E940D2117CF8695112311F08C2F6E
:1038B0008170882309F40FCF4D2F429546954770AC
:1038C000440F440F0D2F0F7010E030E020E0042E65
:1038D00004C0000F111F221F331F0A94D2F760E0AB
:1038E00070E0CB01D4FF0FC06FE070E080E090E0AB
:1038F00004C0660F771F881F991F4A95D2F76095FD
:10390000709580959095C695C695C370602B712B68
:10391000822B932BC23049F058F4C13019F00E9429
:10392000E621D9CE0E94D421D6CE0E94F821D3CE52
:103930000E944921D0CECF70112329F08C2F0E94F4
:103940006F218D2F12CF8D2F0E94001B8C2F0E9474
:103950009021C1CED23F89F160F4D03FC9F0D13F70
:1039600029F1112309F442C001119DCE8C2F8F71D2
:1039700021C0D33F39F1D43FA1F7112369F1CF71B1
:103980008C2F0E946F2163E08C2F0E947623A3CEA0
:10399000112341F0053008F09ECE8C2F8F710E94CC
:1039A000B32199CE063008F096CEF7CF8C2F8F71C9
:1039B000112369F20E946F218ECE8C2F8F711123FB
:1039C000C9F3C5CF112329F08C2F8F710E945A2182
:1039D00082CE0E9455217FCE81E00E948B2302304F
:1039E00008F479CE82E00E948B2375CE002359F033
:1039F000D93309F0E9CE8FEF97EEE3E081509040A4
:103A0000E040E1F7DFCE8C2F8F71A1CF4C2F4F70AC
:103A10006D2FC6010E94F90A0E9485205CCE4C2FB2
:103A20004F706D2FC6010E94FC0A55CEDF91CF91D9
:103A30001F910F91FF90EF90DF90CF90BF9008956E
:103A40000F931F93CF93DF93EC01688179818A8173
:103A50000E94AB228C010E940A220E940C21B80114
:103A6000CE01DF91CF911F910F910C94071BCF9343
:103A7000DF93EC018B819C81892B29F088819981CE
:103A800089238F3F59F4DF91CF910895CE010E9491
:103A9000201DCE01DF91CF910C94BD08CE010E9474
:103AA0006E0A8111F3CF0E94ED22882361F38A818F
:103AB000882349F382E0DF91CF910C948B230E94FD
:103AC00014230E9424230E9440230E94DC280E9489
:103AD000332790E080E00E949C1890E080E00C94F6
:103AE000B2180E94DD220C945F1D0E9404230C94E6
:103AF000711DE92FE295EF70E250EE3070F4F0E0C6
:103B0000E255FE4C0C942631803F19F020F4883E9B
:103B100020F481E00895843FE1F380E00895883E39
:103B2000C0F3813FD1F7F5CF93FB882780F9089543
:103B30000E94A1220C94791DCF93DF9300D000D076
:103B40000F92CDB7DEB70F900F900F900F900F90A0
:103B5000DF91CF910895CF93DF9300D000D000D0B4
:103B6000CDB7DEB726960FB6F894DEBF0FBECDBF39
:103B7000DF91CF9108951F93CF93DF93C091CD0133
:103B800016E08091CE018C1304C0DF91CF911F917C
:103B90000895D0E01C9FF0011D9FF00D1124E1530A
:103BA000FE4F4081518162817381848195810E94A1
:103BB000AB1D2196C770E5CF4091FF0150910002E7
:103BC00060910102709102028091030290910402BF
:103BD0000C94AB1D1F93CF93DF9380910402807FE1
:103BE000A9F480910102882389F08091CD01C091D0
:103BF000CE016091FF0170910002A0910202B0918C
:103C00000302D62FD72316E0C81304C0DF91CF914B
:103C10001F91089590E0109711F0DF3F19F401967D
:103C20008770F2CF189F9001199F300D1124F90170
:103C3000E153FE4F41814713F2CF40814613EFCF4E
:103C400042814111ECCF438154814A1B5B0B483CBC
:103C5000510528F7809104028F70806180930402DF
:103C6000F901EC52FE4F80818F70806180838FEF6D
:103C700091E00E94371DDF91CF911F910C94BB1DE5
:103C8000AF92BF92CF92DF92EF92FF920F931F936A
:103C9000CF93DF93CDB7DEB761970FB6F894DEBF51
:103CA0000FBECDBF8C0185E0F801DE011D960190AD
:103CB0000D928A95E1F7F80140815181E2808FEF02
:103CC000C82E81E0D82E6091020270910302611526
:103CD000710509F461C19091FF0120910002892FC3
:103CE00082238F3F09F458C1A380B480F090010271
:103CF000F501E61BF70BFF2009F4FCC080910402DC
:103D0000382F307FE83CF10508F0B2C0311179C09E
:103D1000FE2C251323C0941321C0E1101FC08F7007
:103D20008061809304020E94DC1DC6010E94371D41
:103D300080910402F80185838F2D61960FB6F89467
:103D4000DEBF0FBECDBFDF91CF911F910F91FF90CE
:103D5000EF90DF90CF90BF90AF900895AB2829F0FF
:103D6000842F85238F3F09F033C180E0F82FF17055
:103D7000DF2E80FF3CC08091CD012091CE0136E046
:103D8000821315C04D875E878D859E850E94A12276
:103D9000292F22952F702230F0F0243018F59F70D3
:103DA000F1F0F8019581907FD1F4D12C1EC090E004
:103DB000389FF001399FF00D1124E153FE4F6181CE
:103DC000651306C06081641303C062816E110FC069
:103DD00001968770D5CF9F7011F0882331F3805EF4
:103DE000883018F3C8010E94371DFD2CA5CFEE20A6
:103DF00009F4A2CF80910402816080930402F12C27
:103E00009BCF251306C0941304C0F801EE2009F4DB
:103E10008DC04D875E878D859E850E94981D882365
:103E200019F1EE2009F180910402803270F02091A6
:103E3000FF013091000238872F831986BB86AA863E
:103E40008C87CE0107960E94371D86E0F801AFEF00
:103E5000B1E001900D928A95E1F70E94EA1D0E945F
:103E6000DC1DFF24F39468CFC8010E94371DF9CFF1
:103E7000311113C07A2DB98AA88A6E2D89890E94C2
:103E80009C1D8FEF91E00E94371D86E0F601119294
:103E90008A95E9F70E94DC1DB2CF25130FC0941359
:103EA0000DC0E1100BC0F8018583C8010E94371DC9
:103EB00086E0F60111928A95E9F73ECF4D875E873D
:103EC0008D859E850E94981D882371F2EE2061F2F7
:103ED00080910402803208F4B8CF2091FF01309124
:103EE00000023A8329831B82BD82AC828E83CE017D
:103EF0000196A9CFE83CF10508F041C0FE2CEE2068
:103F000009F4B2CF25132AC0941328C0809104026B
:103F100080FD1BC0982F907FC1F0F8018583903FF2
:103F200031F0982F907F905F8F70892B8583C80127
:103F30000E94371D86E0F801AFEFB1E001900D92CD
:103F40008A95E1F70E94DC1DF7CE86E0F801AFEF1D
:103F5000B1E001900D928A95E1F7EECE4D875E8734
:103F60008D859E850E94981D81116FCF80910402DE
:103F7000816080930402C8010E94371DDDCE7A2D36
:103F8000B98AA88A6E2D89890E949C1D86E0F60157
:103F900011928A95E9F7D6CFEE2009F465CF4D87C7
:103FA0005E878D859E850E94981DF82E882309F4D2
:103FB0005BCF86E0F801AFEFB1E001900D928A95FA
:103FC000E1F78FEF91E00E94F4190E94EA1DBACF49
:103FD00081E08E25CBCE1F93CF93DF93CDB7DEB795
:103FE0002C970FB6F894DEBF0FBECDBF4F83588716
:103FF00069877A878B879C87CE0107960E94401E2F
:10400000882369F08A859B85892B39F04F815885F3
:10401000842F85238F3F09F071C016E05FC086E0D2
:10402000FE013796DE01119601900D928A95E1F717
:104030008A859B85892B89F388859F8189238F3F7A
:1040400061F32091CE0130E0C90101968770992774
:104050004091CD014817190671F40E94751D109208
:10406000CE011092CD0186E0EFEFF1E0DF011D926D
:104070008A95E9F7D2CF96E0929FD001939FB00D39
:104080001124A153BE4FFE01319601900D929A95D5
:10409000E1F78093CE010E94BB1DBFCF819FC0017D
:1040A000112481539E4F0E94401E8823E9F0E09125
:1040B000CD011E9FF0011124E153FE4F408151813B
:1040C00062817381848195810E94AB1D8091CD01B5
:1040D00090E00196877099278093CD018091CD0162
:1040E0009091CE018913DACF2C960FB6F894DEBFEB
:1040F0000FBECDBFDF91CF911F91089569857A855D
:104100008B859C850E94AB1D88CFEF92FF920F9309
:104110001F93CF93DF938C01892B81F0F12CEE2438
:10412000E394E8012196F8018491843770F4843097
:1041300008F05FC08130B1F08230A1F1DF91CF9102
:104140001F910F91FF90EF900895853709F44CC0AF
:1041500008F43DC09CE7980F903780F78F770E9456
:10416000901A49C00E5F1F4FFE01849190E2980F94
:10417000983060F48770FE2D01C0FF0F8A95EAF732
:104180008F2F0E9417230E94402302C00E94F9191A
:104190008F2D815030F2EFE9FFE03197F1F700C049
:1041A0000000F7CF0E5F1F4FFE01849190E2980F41
:1041B000983050F48770FE2D01C0FF0F8A95EAF702
:1041C0008F2F0E941D23DFCF0E94901AE1CF0E5F38
:1041D0001F4FFE01C491C150D8F28FE99FE00197B3
:1041E000F1F700C00000F7CF0E5F1F4FFE01F49003
:1041F000CFCF0E94F9198E01CBCF08950C94FD20EA
:104200000E94FE206093400270934102809342021C
:10421000909343020C945F1D08950C9400210F931A
:104220001F9300914002109141022091420230916F
:104230004302602B712B822B932B1F910F910C94B7
:1042400000210F931F930091400210914102209191
:1042500042023091430260237123822393231F91F2
:104260000F910C9400210F931F9300914002109125
:104270004102209142023091430260277127822738
:1042800093271F910F910C9400210C94FD200C9406
:1042900045210E94472160933C0270933D02809328
:1042A0003E0290933F020C945F1D60E070E0CB01F2
:1042B0000C9449210F931F9341E050E060E070E0BF
:1042C0008A019B0104C0000F111F221F331F8A9512
:1042D000D2F7C901B8011F910F910C9449210F9396
:1042E0001F9341E050E060E070E004C0440F551FB0
:1042F000661F771F8A95D2F780913C0290913D020C
:10430000A0913E02B0913F028A019B01082B192B1C
:104310002A2B3B2BC901B8011F910F910C94492105
:104320000F931F9341E050E060E070E004C0440F41
:10433000551F661F771F8A95D2F7CB01BA0160958A
:1043400070958095909500913C0210913D022091CE
:104350003E0230913F0260237123822393231F91F9
:104360000F910C9449210F931F9341E050E060E0BE
:1043700070E004C0440F551F661F771F8A95D2F75F
:1043800080913C0290913D02A0913E02B0913F028B
:104390008A019B01082719272A273B27C901B80151
:1043A0001F910F910C9449210F931F9300913C0290
:1043B00010913D0220913E0230913F02602B712B03
:1043C000822B932B1F910F910C9449210F931F93D4
:1043D00000913C0210913D0220913E0230913F023B
:1043E00060237123822393231F910F910C94492101
:1043F0000F931F9300913C0210913D0220913E02C9
:1044000030913F0260277127822793271F910F91D8
:104410000C944921089529E0929F800D1124982F32
:10442000977041E001C0440F9A95EAF7869586950A
:10443000869595E0899FF0011124EB5FFD4F90E098
:1044400080E070E05191DF0111979B01082E02C0BE
:10445000369527950A94E2F7217021952527242384
:1044600025272C9301968530910561F7089529E061
:10447000929F800D1124982F97708695869586952A
:1044800025E0829FF0011124EB5FFD4F50E040E0FA
:1044900080E0219130E0092E02C0369527950A94DC
:1044A000E2F721703327042E01C0220F0A94EAF7A5
:1044B000822B4F5F5F4F4530510559F70895BF92EA
:1044C000CF92DF92EF92FF920F931F93CF93DF93E0
:1044D0008C01C0903C02D0903D02E0903E02F090F2
:1044E0003F028091400290914102A0914202B0911E
:1044F0004302C82AD92AEA2AFB2ACFE1D0E0BC2EFF
:10450000D701C6010C2E04C0B695A795979587953F
:104510000A94D2F780FD0EC0219788F7B12C8B2D1D
:10452000DF91CF911F910F91FF90EF90DF90CF908F
:10453000BF900895B8018C2F0E94050B019761F37D
:10454000EECFCF93DF93EC010E945F22BE01DF919B
:10455000CF910C94050B1F93CF93DF93EB019091B8
:10456000CC01992331F0CB01DF91CF911F910C94B5
:10457000A122882379F0CB010E945F22182F682F97
:10458000CE010E940B22BE01812FDF91CF911F919E
:104590000C94050BCB010E943722182FF4CF682F03
:1045A00080910001909101010C94A124682F8091C9
:1045B0000001909101010C94A3248091000190913D
:1045C00001010C94A52480914402859585958595DB
:1045D00008958091440287700895909144029770E5
:1045E00081E009F480E0089580915002089590914F
:1045F0005002892B8093500208958095909150022B
:10460000982390935002089510925002089590912B
:104610004F02892B80934F020895809590914F020D
:10462000982390934F02089510924F02089590910D
:104630004E02892B80934E020895809590914E02F0
:10464000982390934E02089510924E0208958091FF
:104650004502089508950C942A23909145029817D5
:1046600021F0809345020C942B23089580914502FC
:10467000882329F01092450280E00C942B230895A2
:10468000E0910001F0910101809150028083E0915E
:104690000001F0910101808190914F02892B80836C
:1046A000E0910001F0910101808190914E02892BEF
:1046B000808390914502992381F0E0910001F0916F
:1046C00001018081892B80838091000190910101FB
:1046D0000E94592481110E943623809100019091FB
:1046E00001010C94421808950C94732398E0899F5B
:1046F00090011124622B609344020E946F218091EB
:1047000044028595859585950C94742310924402F6
:1047100080E00C94742390914402809589238093C7
:104720004402282F277071F4282F082E000C330B19
:104730009217130639F08595859585950E949021ED
:104740000C94862308959093A9018093A80108955D
:104750006FEF7FEF90E080E00C94733190E080E0A9
:104760000E944F3121E08C3E9E4F09F020E0822FC5
:10477000089582E090E00C94473183E090E00C943F
:104780004731CF9384E090E00E944731C82F81E207
:1047900090E00E944731982F8C2FCF910895CF93AE
:1047A000C92F682F84E090E00E9455316C2F81E280
:1047B00090E0CF910C945531AB01BC018FE090E0BB
:1047C0000C946731AB01BC0183E190E00C9467313C
:1047D00060E070E0CB010C94E22360E070E0CB017C
:1047E0000E94DC230C94E8236CEE7EEF90E080E0E6
:1047F0000E94733160E082E090E00E94553160E0F9
:1048000083E090E00E9455311092400210924102E4
:10481000109242021092430260E084E090E00E9415
:10482000553160E081E290E00E94553160E085E022
:1048300090E00E94553160E086E090E00E945531A2
:104840006FEF87E090E00E94553140E050E0BA0100
:1048500088E090E00E94673160E08DE090E00E9487
:10486000553140E050E0BA0188E190E00E946731A4
:1048700060E087E190E00E94553140E050E0BA01ED
:104880008CE190E00E94673160E080E290E00E945D
:10489000553140E050E0BA0188E190E00E94673174
:1048A0000C94ED230C94F423682F8EE090E00C948C
:1048B00055319C012E5F3F4FAC01485F5F4F80E058
:1048C0002417350709F40895F90191919F0199235F
:1048D000B9F38F5FF5CF662349F0FC013296089655
:1048E0002191261729F0E817F907D1F780E00895FC
:1048F00081E008959C01FC0132969FEF80E0419198
:10490000461751F09F3F19F4411101C0982F8F5F56
:104910008630A9F79F3F09F40895290F311D97FDAF
:104920003A95F90162830895FC0132960896219127
:10493000261303C0DF0111971C92E817F907B9F796
:1049400008950C947A240C949424029626E0FC0199
:1049500011922A95E9F70895089508950C94AD24CD
:104960000E94AE2480919B02843049F11092520241
:1049700088E190E020E40FB6F894A8958093600059
:104980000FBE2093600080E00E94F10A0E94AE24D6
:1049900083B7817F846083BF83B7816083BF78944E
:1049A000889583B78E7F83BF0FB6F894A8958091C2
:1049B0006000886180936000109260000FBE0895CF
:1049C0000895CF930E94AC240E948A0D0E94E02497
:1049D000C0E08C2F0E94F80C892B31F4CF5FC930D6
:1049E000C1F780E0CF91089581E0FCCF08950C9449
:1049F000F6240E94751D0E9436180E94F10A0C943C
:104A0000F7241F921FB61F9211248F939F93AF9389
:104A1000BF9380915202811113C0809191029091B5
:104A20009202A0919302B09194024196A11DB11DF2
:104A30008093910290939202A0939302B093940278
:104A4000BF91AF919F918F911F901FBE1F9018959E
:104A500082E084BD93E095BD9AEF97BD80936E0090
:104A600008952FB7F8948091910290919202A091AD
:104A70009302B09194022FBF08952FB7F8946091DC
:104A800091027091920280919302909194022FBFB3
:104A900008959C014FB7F8948091910290919202F1
:104AA000A0919302B09194024FBF821B930B089583
:104AB00078941F921FB61F9211248F939F93AF93E8
:104AC000BF938091910290919202A0919302B09134
:104AD00094020196A11DB11D8093910290939202C0
:104AE000A0939302B0939402BF91AF919F918F9145
:104AF0001F901FBE1F90189587E797E790930108B6
:104B00008093000888E19AE00FB6F894A895809306
:104B100060000FBE90936000FFCF0C947D130E9445
:104B20008A0D8FE39CE90197F1F700C000000E9415
:104B30008A0D80E00E94F80C80FF04C00E948D2541
:104B40000C947C2508950E94AE23811102C00E941E
:104B500052240E94B923809351020E94C123909352
:104B60009602809395020E94BD23682F70E090E02A
:104B700080E00E940D2160913C0270913D02809185
:104B80003E0290913F020C9447218091590280FF90
:104B900012C06091070185E0689FB00111247595EE
:104BA00067957595679560387105A8F5611571056C
:104BB000A1F1862F089581FF09C06091070185E06A
:104BC000689FB001112475956795EDCF609107013D
:104BD00082FD0AC0809158028823D1F0909106018D
:104BE00060910701891728F085E0689FB0011124C2
:104BF000DACF869FB001112485E0869F9001879FC0
:104C0000300D1124692F70E0C9010E941231CBCF01
:104C100065E070E0CECF8FE7089581E00895809140
:104C2000590280FF0CC06091030170E07595679593
:104C3000759567956115710549F1862F089581FF76
:104C400006C06091030170E075956795F3CF6091A0
:104C5000030182FD0BC0909157029923A1F060914E
:104C6000020180910301961738F0682F70E06038D8
:104C7000710500F38FE70895899FC001112470E04A
:104C80000E941231F4CF61E070E0D7CF81E0089547
:104C9000803F31F40E94C525819580935D0208957F
:104CA000813F19F40E94C525F8CF823F31F40E945C
:104CB000C525819580935C020895833F19F40E9475
:104CC000C525F8CF893F29F40E940F2680935E0204
:104CD00008958A3F21F40E940F268195F7CF8B3FDC
:104CE00031F40E940F26819580935F0208958C3FD6
:104CF00019F40E940F26F8CF843F31F480915B02B3
:104D0000816080935B020895853F21F480915B026E
:104D10008260F7CF863F21F480915B028460F1CFFF
:104D2000873F21F480915B028860EBCF883F21F4BC
:104D300080915B028061E5CF8D3F31F48091590213
:104D400081608093590208958E3F21F48091590229
:104D50008260F7CF8F3FB9F7809159028460F1CF1D
:104D600090915C02803F59F480915D0287FF0DC0F5
:104D700010925D0291110BC01092580208C0813F41
:104D800081F480915D0218169CF3992381F0809143
:104D90005E0290915F02892B09F064C01092570265
:104DA0000895823F49F497FFF0CF10925C02809102
:104DB0005D028111ECCFE0CF833F19F41916ACF3FB
:104DC000E4CF20915E02893F29F41216F4F6109286
:104DD0005E02DBCF8A3F19F427FFD7CFF8CF2091AF
:104DE0005F028B3F29F427FFD0CF10925F02CDCF17
:104DF0008C3F19F41216CCF3C8CF843F31F4809164
:104E00005B028E7F80935B02C0CF853F21F480914F
:104E10005B028D7FF7CF863F21F480915B028B7F11
:104E2000F1CF873F21F480915B02877FEBCF883FF2
:104E300021F480915B028F7EE5CF8D3F31F480912C
:104E400059028E7F80935902A0CF8E3F21F480912A
:104E500059028D7FF7CF8F3F09F097CF809159028C
:104E60008B7FF0CF08958091510283FF7EC081EC4B
:104E70009CE00E94BC0780915B021F928F938CEB99
:104E80009CE09F938F930E9455088AEB9CE00E94C0
:104E9000BC0780915C02282F082E000C330B3F9337
:104EA0008F9387EB9CE09F938F930E94550885EB2F
:104EB0009CE00E94BC0780915D02282F082E000C08
:104EC000330B3F938F9382EB9CE09F938F930E94D1
:104ED000550880EB9CE00E94BC0780915E02282F61
:104EE000082E000C330B3F938F938DEA9CE09F9329
:104EF0008F930E9455088BEA9CE00E94BC0780912A
:104F00005F02282F082E000C330B3F938F9388EA03
:104F10009CE09F938F930E94550885EA9CE00E9435
:104F2000BC07809158021F928F9382EA9CE09F9366
:104F30008F930E94550880EA9CE00E94BC078091F4
:104F400059021F928F938DE99CE09F938F930E944B
:104F500055088AE99CE00E94BC078DB79EB74C9625
:104F60000FB6F8949EBF0FBE8DBF0E9431259C01E5
:104F700090915C0280915D02982B21F03093560253
:104F80002093550290915E0280915F02982B21F050
:104F900030935402209353028AE592E00C948E18C9
:104FA000EF92FF920F931F93CF93DF9300D000D027
:104FB00000D0CDB7DEB786E0EAE5F2E0DE0111967B
:104FC00001900D928A95E1F7E0905C02F0905D020D
:104FD00000915E0210915F0210925C0210925D02DD
:104FE00010925E0210925F028E2D8F2991F08091B7
:104FF0005502909156020E944925AC0190915802A9
:10500000992309F43FC0809108018417150608F41C
:1050100047C0802F812B91F08091530290915402D0
:105020000E944925AC0190915702992309F477C059
:10503000809104018417150608F47FC080915C02FA
:1050400090915D02892B90915E02892B90915F0275
:10505000892B11F00E94332786E0FE013196AAE5E4
:10506000B2E001900D928A95E1F726960FB6F8947A
:10507000DEBF0FBECDBFDF91CF911F910F91FF908B
:10508000EF900895209109018AE0289F9001112452
:105090002417350708F0BDCF9F5F9093580202C0D8
:1050A0009F3FD1F7EE2059F00E94C5259FEF1E14B7
:1050B0000CF491E0899F802D112480935C02FF20E5
:1050C00059F00E94C5259FEF1F140CF491E0899FB1
:1050D000802D112480935D0230915C02332309F40A
:1050E00098CF20915D02222309F493CF45EB34033E
:1050F000C0011124992359F090935C0245EB2403DD
:1051000090011124332339F030935D0282CF81E086
:1051100080935C02F3CF81E080935D027ACF20918F
:1051200005018AE0289F900111242417350708F013
:1051300085CF9F5F9093570202C09F3FD1F7002316
:1051400059F00E940F269FEF10160CF491E0899FF2
:10515000802D112480935E02112359F00E940F26A6
:105160009FEF11160CF491E0899F802D11248093FC
:105170005F0230915E02332309F460CF20915F0219
:10518000222309F45BCF45EB3403C001112499239A
:1051900059F090935E0245EB2403900111243323D0
:1051A00039F030935F024ACF81E080935E02F3CF03
:1051B00081E080935F0242CF86E0EAE5F2E0DF0122
:1051C0001D928A95E9F71092580210925702109298
:1051D0005902089580916B0208959FB7F894109238
:1051E00062029FBF90919B02943009F048C02091C9
:1051F000E9002F703091EC00932F917030FD90E812
:10520000922B25E02093E9002091EB0020FF34C091
:105210002091EE0027FF30C020916002222321F070
:105220002091E80025FF28C01092600226E030910E
:10523000E80035FF14C08093F1008091E80085FDFF
:1052400027C08091E80080FFFCCF8091E8008E7736
:105250008093E8009F709093E90080E0089530917A
:105260009B02343049F43091EB0035FD05C02150EC
:1052700041F481E0809360029F709093E9008FEF8A
:105280000895EFE9FFE03197F1F700C00000CFCFBC
:105290008FB7F89421E0209362028FBFDBCFCF93CA
:1052A000DF9300D00F92CDB7DEB790919B02943080
:1052B00011F589837B836A839093E9008FEF909146
:1052C000E800815095FD06C095ED9A95F1F7000034
:1052D0008111F5CF8091E80085FF0DC050E040E0DE
:1052E00063E070E0CE0101960E94272C8091E800D7
:1052F0008E778093E8000F900F900F90DF91CF9101
:105300000895BC0184E00C944F29BC0183E00C9407
:105310004F299C0184E08093E9009FEF8091E80091
:10532000915085FD06C085ED8A95F1F70000911139
:10533000F5CF8091E80085FF0CC050E040E066E0CA
:1053400070E0C9010E94272C8091E8008E7780933D
:10535000E8000895CF93DF93EC0181E08093E900AA
:105360008FEF9091E800815095FD06C095ED9A95DC
:10537000F1F700008111F5CF8091E80085FF14C09E
:1053800050E040E068E070E0CE010E94272C809160
:10539000E8008E778093E80088E0FE01A3E6B2E0A3
:1053A00001900D928A95E1F7DF91CF910895CF9307
:1053B000FC01603221F580919B02843001F5C0919F
:1053C000E900CF702091EC00922F917020FD90E8C1
:1053D000C92B82E08093E9008091E80080FF0CC037
:1053E00050E040E060E270E0CF010E94272C809105
:1053F000E8008E778093E800CF70C093E900CF91EA
:10540000089589E09DE00E94BC0780919A02811175
:1054100009C00E94062E0E94632E8091E2008460E3
:105420008093E200089585E09DE00E94BC07109201
:105430009A02089581E09DE00C94BC078DEF9CE0FA
:105440000C94BC0789EF9CE00E94BC070C94F924E3
:10545000209161022F5F822F62E30E94063199231F
:1054600019F0209361020895109261028091620206
:105470008823F1F080919B028430C1F49091E9007F
:105480009F702091EC00822F817020FD80E8892B95
:1054900095E09093E9009091EB0090FF04C090910B
:1054A000EE0097FD08C08F708093E90010926202B1
:1054B00008951092F1009091E80095FDFACF909137
:1054C000E80090FFF0CF9091E8009E779093E8007D
:1054D000EACF42E061EC81E00E94822D42E261EC81
:1054E00084E00E94822D42E261EC82E00E94822DE3
:1054F00042E260EC83E00E94822D42E261EC85E0B2
:105500000C94822D80919D02833009F461C030F4A7
:105510008130D1F1823009F49DC008958A3009F4B8
:1055200089C08B3009F46FC0893009F050C0809178
:105530009C02813209F04BC08091A0029091A1029F
:10554000009719F0029709F042C08091E800877F28
:105550008093E8008091E80082FF35C09091F300CD
:105560008091F200029729F48091F1008B7F8130C5
:1055700021F48091F10080936B028091E8008B7799
:105580008093E8000C94B62D80919C02813AF9F446
:105590008091E800877F8093E8008091A00290913D
:1055A000A102892B61F468E083E692E070E00E943A
:1055B000C52C8091E8008B778093E800089560E027
:1055C00090E080E0F3CF80919B028111C3CF0895DA
:1055D00080919C02813AD9F78091A0029091A1021A
:1055E000892BA9F78091E800877F8093E80080915C
:1055F000E80080FFFCCF809114018093F10080913E
:10560000E8008E77BDCF80919C02813201F78091B6
:10561000A0029091A102892BD1F68091E800877FAA
:105620008093E8000E94B62D80919E028093140121
:105630000C94751D80919C02813249F68091E8009E
:10564000877F8093E8000E94B62D80919F0280930F
:105650006C02089580919C02813A09F0B8CF809144
:10566000E800877F8093E8008091E80080FFFCCF0E
:1056700080916C02C2CFCDB7DEB7A0970FB6F89479
:10568000DEBF0FBECDBF84B7877F84BF0FB6F8944F
:10569000A8958091600088618093600010926000FE
:1056A0000FBE80E890E00FB6F8948093610090936D
:1056B00061000FBE0E94D6180E94062E0E94632E23
:1056C0008091E20084608093E2008DEE98E20E9477
:1056D000A32378940E94EB300E94E2188AE091E0C4
:1056E0000E94311888EE9CE00E94BC0713E0809174
:1056F0009B02853059F00E94141980919B028430DE
:10570000B1F00E94E0180E94E118F1CF84EE9CE015
:105710000E94BC070E94B02480919902882339F32B
:105720000E94E124882319F30E94112CE0CF1093EA
:10573000E9008091E80082FFE4CF8091E80090E0EA
:1057400085FF09C050E040E060E270E0CE010196C4
:105750000E94762C91E08091E8008B778093E8009E
:10576000992379F260E2CE0101960E94DF13C9CF3E
:105770000C94BA2B292F33272330310521F168F4FB
:105780002130310509F443C02230310509F444C009
:1057900090E080E030E020E026C02132310551F178
:1057A00022323105A9F76430710590F7FB01EE0F45
:1057B000FF1FE956FE4F208131816D567E4FFB0160
:1057C000808190E010C099278130910581F0009789
:1057D00029F00297E9F6EDE0FDE002C0E7E3FDE025
:1057E000849190E09F01FA01318320830895E7E2DC
:1057F000FDE0F6CF6430710558F6660F771FFB01A8
:10580000E156FE4F2081318189E090E0ECCF82E1CA
:1058100090E026EB3DE0E7CF8BE790E02BE33DE027
:10582000E2CF80E189BD82E189BD09B400FEFDCFF0
:105830008091D8008F7D8093D8008091E0008260B5
:105840008093E0008091E00081FDFCCF0895AF924D
:10585000BF92CF92DF92FF920F931F93CF93DF936C
:105860006C01EB018A010E94D52DF82E811123C015
:105870000115110539F0F80180819181C81BD90B00
:10588000C80ED91EB12CA12C2097A9F08091E80058
:1058900085FD22C08091E8008E778093E800011595
:1058A0001105A1F0F80180819181A80EB91EB18285
:1058B000A08285E0F82E8F2DDF91CF911F910F915F
:1058C000FF90DF90CF90BF90AF9008950E94D52DAC
:1058D0008823D1F2F82EEFCFF60181916F018093EA
:1058E000F1002197FFEFAF1ABF0ACECFAF92BF9260
:1058F000CF92DF92FF920F931F93CF93DF936C01B0
:10590000EB018A010E94D52DF82E811123C00115CB
:10591000110539F0F80180819181C81BD90BC80E9F
:10592000D91EB12CA12C2097A9F08091E80085FD0B
:1059300022C08091E8008B778093E8000115110563
:10594000A1F0F80180819181A80EB91EB182A082D8
:1059500085E0F82E8F2DDF91CF911F910F91FF9051
:10596000DF90CF90BF90AF9008950E94D52D8823EF
:10597000D1F2F82EEFCF8091F100F60181936F0103
:105980002197FFEFAF1ABF0ACECFFC018091A20290
:105990009091A30286179707A0F06115710529F46D
:1059A0009091E8009E779093E80090E06115710572
:1059B00051F4911108C08091E80082FF34C080E06A
:1059C0000895BC01F2CF80919B028823C1F18530FC
:1059D000C1F18091E80083FD30C08091E80082FD34
:1059E000EACF8091E80080FFE1CF8091F300209121
:1059F000F200382F6115710519F02830310558F083
:105A000091E02830310509F090E02091E8002E77F0
:105A10002093E800CBCF81918093F1006150710910
:105A20002F5F3F4FE7CF80919B02882341F0853065
:105A300041F08091E80083FFBECF81E0089582E0CD
:105A4000089583E00895FC018091A2029091A30241
:105A500086179707A0F06115710529F48091E80079
:105A60008E778093E80090E06115710551F49111F3
:105A700008C08091E80082FF35C080E00895BC0135
:105A8000F2CF80919B028823C9F18530C9F18091C2
:105A9000E80083FD31C08091E80082FDEACF80916B
:105AA000E80080FFE1CF8091F3002091F200382FD1
:105AB0006115710519F02830310558F091E0283052
:105AC000310509F090E08091E8008E778093E8003E
:105AD000CBCF84918093F1003196615071092F5F93
